{
	"contracts/SimpleDEX.sol": {
		"SimpleDEX": {
			"abi": [
				{
					"inputs": [
						{
							"internalType": "address",
							"name": "_tokenA",
							"type": "address"
						},
						{
							"internalType": "address",
							"name": "_tokenB",
							"type": "address"
						}
					],
					"stateMutability": "nonpayable",
					"type": "constructor"
				},
				{
					"anonymous": false,
					"inputs": [
						{
							"indexed": false,
							"internalType": "uint256",
							"name": "amountOnTokenA",
							"type": "uint256"
						},
						{
							"indexed": false,
							"internalType": "uint256",
							"name": "amountOnTokenB",
							"type": "uint256"
						}
					],
					"name": "LiquidityAdded",
					"type": "event"
				},
				{
					"anonymous": false,
					"inputs": [
						{
							"indexed": false,
							"internalType": "uint256",
							"name": "amountOnTokenA",
							"type": "uint256"
						},
						{
							"indexed": false,
							"internalType": "uint256",
							"name": "amountOnTokenB",
							"type": "uint256"
						}
					],
					"name": "LiquidityRemoved",
					"type": "event"
				},
				{
					"anonymous": false,
					"inputs": [
						{
							"indexed": true,
							"internalType": "address",
							"name": "previousOwner",
							"type": "address"
						},
						{
							"indexed": true,
							"internalType": "address",
							"name": "newOwner",
							"type": "address"
						}
					],
					"name": "OwnershipTransferred",
					"type": "event"
				},
				{
					"anonymous": false,
					"inputs": [
						{
							"indexed": true,
							"internalType": "address",
							"name": "user",
							"type": "address"
						},
						{
							"indexed": false,
							"internalType": "string",
							"name": "direction",
							"type": "string"
						},
						{
							"indexed": false,
							"internalType": "uint256",
							"name": "inputAmount",
							"type": "uint256"
						},
						{
							"indexed": false,
							"internalType": "uint256",
							"name": "outputAmount",
							"type": "uint256"
						}
					],
					"name": "Swap",
					"type": "event"
				},
				{
					"inputs": [
						{
							"internalType": "uint256",
							"name": "amountOnTokenA",
							"type": "uint256"
						},
						{
							"internalType": "uint256",
							"name": "amountOnTokenB",
							"type": "uint256"
						}
					],
					"name": "addLiquidity",
					"outputs": [],
					"stateMutability": "nonpayable",
					"type": "function"
				},
				{
					"inputs": [
						{
							"internalType": "address",
							"name": "_token",
							"type": "address"
						}
					],
					"name": "getPrice",
					"outputs": [
						{
							"internalType": "uint256",
							"name": "",
							"type": "uint256"
						}
					],
					"stateMutability": "view",
					"type": "function"
				},
				{
					"inputs": [],
					"name": "owner",
					"outputs": [
						{
							"internalType": "address",
							"name": "",
							"type": "address"
						}
					],
					"stateMutability": "view",
					"type": "function"
				},
				{
					"inputs": [
						{
							"internalType": "uint256",
							"name": "amountOnTokenA",
							"type": "uint256"
						},
						{
							"internalType": "uint256",
							"name": "amountOnTokenB",
							"type": "uint256"
						}
					],
					"name": "removeLiquidity",
					"outputs": [],
					"stateMutability": "nonpayable",
					"type": "function"
				},
				{
					"inputs": [],
					"name": "renounceOwnership",
					"outputs": [],
					"stateMutability": "nonpayable",
					"type": "function"
				},
				{
					"inputs": [],
					"name": "reserveForTokenA",
					"outputs": [
						{
							"internalType": "uint256",
							"name": "",
							"type": "uint256"
						}
					],
					"stateMutability": "view",
					"type": "function"
				},
				{
					"inputs": [],
					"name": "reserveForTokenB",
					"outputs": [
						{
							"internalType": "uint256",
							"name": "",
							"type": "uint256"
						}
					],
					"stateMutability": "view",
					"type": "function"
				},
				{
					"inputs": [
						{
							"internalType": "uint256",
							"name": "amountOnTokenAIn",
							"type": "uint256"
						}
					],
					"name": "swapAforB",
					"outputs": [],
					"stateMutability": "nonpayable",
					"type": "function"
				},
				{
					"inputs": [
						{
							"internalType": "uint256",
							"name": "amountOnTokenBIn",
							"type": "uint256"
						}
					],
					"name": "swapBforA",
					"outputs": [],
					"stateMutability": "nonpayable",
					"type": "function"
				},
				{
					"inputs": [],
					"name": "tokenA",
					"outputs": [
						{
							"internalType": "contract IERC20",
							"name": "",
							"type": "address"
						}
					],
					"stateMutability": "view",
					"type": "function"
				},
				{
					"inputs": [],
					"name": "tokenB",
					"outputs": [
						{
							"internalType": "contract IERC20",
							"name": "",
							"type": "address"
						}
					],
					"stateMutability": "view",
					"type": "function"
				},
				{
					"inputs": [
						{
							"internalType": "address",
							"name": "newOwner",
							"type": "address"
						}
					],
					"name": "transferOwnership",
					"outputs": [],
					"stateMutability": "nonpayable",
					"type": "function"
				}
			],
			"devdoc": {
				"details": "A simple decentralized exchange.",
				"kind": "dev",
				"methods": {
					"addLiquidity(uint256,uint256)": {
						"details": "Transfers TokenA and TokenB from the owner to the contract and updates reserves",
						"params": {
							"amountOnTokenA": "Amount of TokenA to add",
							"amountOnTokenB": "Amount of TokenB to add"
						}
					},
					"constructor": {
						"details": "Token addresses are immutable once set",
						"params": {
							"_tokenA": "Address of TokenA contract",
							"_tokenB": "Address of TokenB contract"
						}
					},
					"getPrice(address)": {
						"details": "This is a simple price calculation based on current reserves, not a swap quote",
						"params": {
							"_token": "The address of the token for which to get the price"
						},
						"returns": {
							"_0": "price The price in the other token, scaled by 1e18"
						}
					},
					"owner()": {
						"details": "Returns the address of the current owner."
					},
					"removeLiquidity(uint256,uint256)": {
						"details": "Transfers specified amounts of TokenA and/or TokenB back to the owner and updates reserves",
						"params": {
							"amountOnTokenA": "Amount of TokenA to remove",
							"amountOnTokenB": "Amount of TokenB to remove"
						}
					},
					"renounceOwnership()": {
						"details": "Leaves the contract without owner. It will not be possible to call `onlyOwner` functions. Can only be called by the current owner. NOTE: Renouncing ownership will leave the contract without an owner, thereby disabling any functionality that is only available to the owner."
					},
					"swapAforB(uint256)": {
						"details": "Uses constant product formula to calculate TokenB output and updates reserves",
						"params": {
							"amountOnTokenAIn": "Amount of TokenA provided by the user"
						}
					},
					"swapBforA(uint256)": {
						"details": "Uses constant product formula to calculate TokenA output and updates reserves",
						"params": {
							"amountOnTokenBIn": "Amount of TokenB provided by the user"
						}
					},
					"transferOwnership(address)": {
						"details": "Transfers ownership of the contract to a new account (`newOwner`). Can only be called by the current owner."
					}
				},
				"title": "SimpleDEX",
				"version": 1
			},
			"evm": {
				"assembly": "    /* \"contracts/SimpleDEX.sol\":561:7127  contract SimpleDEX is Ownable {... */\n  mstore(0x40, 0x80)\n    /* \"contracts/SimpleDEX.sol\":1495:1616  constructor(address _tokenA, address _tokenB) {... */\n  callvalue\n  dup1\n  iszero\n  tag_1\n  jumpi\n  revert(0x00, 0x00)\ntag_1:\n  pop\n  mload(0x40)\n  sub(codesize, bytecodeSize)\n  dup1\n  bytecodeSize\n  dup4\n  codecopy\n  dup2\n  dup2\n  add\n  0x40\n  mstore\n  dup2\n  add\n  swap1\n  tag_2\n  swap2\n  swap1\n  tag_3\n  jump\t// in\ntag_2:\n    /* \"https://github.com/OpenZeppelin/openzeppelin-contracts/blob/v4.9.0/contracts/access/Ownable.sol\":936:968  _transferOwnership(_msgSender()) */\n  tag_7\n    /* \"https://github.com/OpenZeppelin/openzeppelin-contracts/blob/v4.9.0/contracts/access/Ownable.sol\":955:967  _msgSender() */\n  tag_8\n    /* \"https://github.com/OpenZeppelin/openzeppelin-contracts/blob/v4.9.0/contracts/access/Ownable.sol\":955:965  _msgSender */\n  shl(0x20, tag_9)\n    /* \"https://github.com/OpenZeppelin/openzeppelin-contracts/blob/v4.9.0/contracts/access/Ownable.sol\":955:967  _msgSender() */\n  0x20\n  shr\n  jump\t// in\ntag_8:\n    /* \"https://github.com/OpenZeppelin/openzeppelin-contracts/blob/v4.9.0/contracts/access/Ownable.sol\":936:954  _transferOwnership */\n  shl(0x20, tag_10)\n    /* \"https://github.com/OpenZeppelin/openzeppelin-contracts/blob/v4.9.0/contracts/access/Ownable.sol\":936:968  _transferOwnership(_msgSender()) */\n  0x20\n  shr\n  jump\t// in\ntag_7:\n    /* \"contracts/SimpleDEX.sol\":1567:1574  _tokenA */\n  dup2\n    /* \"contracts/SimpleDEX.sol\":1551:1557  tokenA */\n  0x01\n  0x00\n    /* \"contracts/SimpleDEX.sol\":1551:1575  tokenA = IERC20(_tokenA) */\n  0x0100\n  exp\n  dup2\n  sload\n  dup2\n  0xffffffffffffffffffffffffffffffffffffffff\n  mul\n  not\n  and\n  swap1\n  dup4\n  0xffffffffffffffffffffffffffffffffffffffff\n  and\n  mul\n  or\n  swap1\n  sstore\n  pop\n    /* \"contracts/SimpleDEX.sol\":1601:1608  _tokenB */\n  dup1\n    /* \"contracts/SimpleDEX.sol\":1585:1591  tokenB */\n  0x02\n  0x00\n    /* \"contracts/SimpleDEX.sol\":1585:1609  tokenB = IERC20(_tokenB) */\n  0x0100\n  exp\n  dup2\n  sload\n  dup2\n  0xffffffffffffffffffffffffffffffffffffffff\n  mul\n  not\n  and\n  swap1\n  dup4\n  0xffffffffffffffffffffffffffffffffffffffff\n  and\n  mul\n  or\n  swap1\n  sstore\n  pop\n    /* \"contracts/SimpleDEX.sol\":1495:1616  constructor(address _tokenA, address _tokenB) {... */\n  pop\n  pop\n    /* \"contracts/SimpleDEX.sol\":561:7127  contract SimpleDEX is Ownable {... */\n  jump(tag_12)\n    /* \"https://github.com/OpenZeppelin/openzeppelin-contracts/blob/v4.9.0/contracts/utils/Context.sol\":640:736  function _msgSender() internal view virtual returns (address) {... */\ntag_9:\n    /* \"https://github.com/OpenZeppelin/openzeppelin-contracts/blob/v4.9.0/contracts/utils/Context.sol\":693:700  address */\n  0x00\n    /* \"https://github.com/OpenZeppelin/openzeppelin-contracts/blob/v4.9.0/contracts/utils/Context.sol\":719:729  msg.sender */\n  caller\n    /* \"https://github.com/OpenZeppelin/openzeppelin-contracts/blob/v4.9.0/contracts/utils/Context.sol\":712:729  return msg.sender */\n  swap1\n  pop\n    /* \"https://github.com/OpenZeppelin/openzeppelin-contracts/blob/v4.9.0/contracts/utils/Context.sol\":640:736  function _msgSender() internal view virtual returns (address) {... */\n  swap1\n  jump\t// out\n    /* \"https://github.com/OpenZeppelin/openzeppelin-contracts/blob/v4.9.0/contracts/access/Ownable.sol\":2426:2613  function _transferOwnership(address newOwner) internal virtual {... */\ntag_10:\n    /* \"https://github.com/OpenZeppelin/openzeppelin-contracts/blob/v4.9.0/contracts/access/Ownable.sol\":2499:2515  address oldOwner */\n  0x00\n    /* \"https://github.com/OpenZeppelin/openzeppelin-contracts/blob/v4.9.0/contracts/access/Ownable.sol\":2518:2524  _owner */\n  0x00\n  0x00\n  swap1\n  sload\n  swap1\n  0x0100\n  exp\n  swap1\n  div\n  0xffffffffffffffffffffffffffffffffffffffff\n  and\n    /* \"https://github.com/OpenZeppelin/openzeppelin-contracts/blob/v4.9.0/contracts/access/Ownable.sol\":2499:2524  address oldOwner = _owner */\n  swap1\n  pop\n    /* \"https://github.com/OpenZeppelin/openzeppelin-contracts/blob/v4.9.0/contracts/access/Ownable.sol\":2543:2551  newOwner */\n  dup2\n    /* \"https://github.com/OpenZeppelin/openzeppelin-contracts/blob/v4.9.0/contracts/access/Ownable.sol\":2534:2540  _owner */\n  0x00\n  0x00\n    /* \"https://github.com/OpenZeppelin/openzeppelin-contracts/blob/v4.9.0/contracts/access/Ownable.sol\":2534:2551  _owner = newOwner */\n  0x0100\n  exp\n  dup2\n  sload\n  dup2\n  0xffffffffffffffffffffffffffffffffffffffff\n  mul\n  not\n  and\n  swap1\n  dup4\n  0xffffffffffffffffffffffffffffffffffffffff\n  and\n  mul\n  or\n  swap1\n  sstore\n  pop\n    /* \"https://github.com/OpenZeppelin/openzeppelin-contracts/blob/v4.9.0/contracts/access/Ownable.sol\":2597:2605  newOwner */\n  dup2\n    /* \"https://github.com/OpenZeppelin/openzeppelin-contracts/blob/v4.9.0/contracts/access/Ownable.sol\":2566:2606  OwnershipTransferred(oldOwner, newOwner) */\n  0xffffffffffffffffffffffffffffffffffffffff\n  and\n    /* \"https://github.com/OpenZeppelin/openzeppelin-contracts/blob/v4.9.0/contracts/access/Ownable.sol\":2587:2595  oldOwner */\n  dup2\n    /* \"https://github.com/OpenZeppelin/openzeppelin-contracts/blob/v4.9.0/contracts/access/Ownable.sol\":2566:2606  OwnershipTransferred(oldOwner, newOwner) */\n  0xffffffffffffffffffffffffffffffffffffffff\n  and\n  0x8be0079c531659141344cd1fd0a4f28419497f9722a3daafe3b4186f6b6457e0\n  mload(0x40)\n  mload(0x40)\n  dup1\n  swap2\n  sub\n  swap1\n  log3\n    /* \"https://github.com/OpenZeppelin/openzeppelin-contracts/blob/v4.9.0/contracts/access/Ownable.sol\":2489:2613  {... */\n  pop\n    /* \"https://github.com/OpenZeppelin/openzeppelin-contracts/blob/v4.9.0/contracts/access/Ownable.sol\":2426:2613  function _transferOwnership(address newOwner) internal virtual {... */\n  pop\n  jump\t// out\n    /* \"#utility.yul\":88:205   */\ntag_16:\n    /* \"#utility.yul\":197:198   */\n  0x00\n    /* \"#utility.yul\":194:195   */\n  0x00\n    /* \"#utility.yul\":187:199   */\n  revert\n    /* \"#utility.yul\":334:460   */\ntag_18:\n    /* \"#utility.yul\":371:378   */\n  0x00\n    /* \"#utility.yul\":411:453   */\n  0xffffffffffffffffffffffffffffffffffffffff\n    /* \"#utility.yul\":404:409   */\n  dup3\n    /* \"#utility.yul\":400:454   */\n  and\n    /* \"#utility.yul\":389:454   */\n  swap1\n  pop\n    /* \"#utility.yul\":334:460   */\n  swap2\n  swap1\n  pop\n  jump\t// out\n    /* \"#utility.yul\":466:562   */\ntag_19:\n    /* \"#utility.yul\":503:510   */\n  0x00\n    /* \"#utility.yul\":532:556   */\n  tag_28\n    /* \"#utility.yul\":550:555   */\n  dup3\n    /* \"#utility.yul\":532:556   */\n  tag_18\n  jump\t// in\ntag_28:\n    /* \"#utility.yul\":521:556   */\n  swap1\n  pop\n    /* \"#utility.yul\":466:562   */\n  swap2\n  swap1\n  pop\n  jump\t// out\n    /* \"#utility.yul\":568:690   */\ntag_20:\n    /* \"#utility.yul\":641:665   */\n  tag_30\n    /* \"#utility.yul\":659:664   */\n  dup2\n    /* \"#utility.yul\":641:665   */\n  tag_19\n  jump\t// in\ntag_30:\n    /* \"#utility.yul\":634:639   */\n  dup2\n    /* \"#utility.yul\":631:666   */\n  eq\n    /* \"#utility.yul\":621:684   */\n  tag_31\n  jumpi\n    /* \"#utility.yul\":680:681   */\n  0x00\n    /* \"#utility.yul\":677:678   */\n  0x00\n    /* \"#utility.yul\":670:682   */\n  revert\n    /* \"#utility.yul\":621:684   */\ntag_31:\n    /* \"#utility.yul\":568:690   */\n  pop\n  jump\t// out\n    /* \"#utility.yul\":696:839   */\ntag_21:\n    /* \"#utility.yul\":753:758   */\n  0x00\n    /* \"#utility.yul\":784:790   */\n  dup2\n    /* \"#utility.yul\":778:791   */\n  mload\n    /* \"#utility.yul\":769:791   */\n  swap1\n  pop\n    /* \"#utility.yul\":800:833   */\n  tag_33\n    /* \"#utility.yul\":827:832   */\n  dup2\n    /* \"#utility.yul\":800:833   */\n  tag_20\n  jump\t// in\ntag_33:\n    /* \"#utility.yul\":696:839   */\n  swap3\n  swap2\n  pop\n  pop\n  jump\t// out\n    /* \"#utility.yul\":845:1352   */\ntag_3:\n    /* \"#utility.yul\":924:930   */\n  0x00\n    /* \"#utility.yul\":932:938   */\n  0x00\n    /* \"#utility.yul\":981:983   */\n  0x40\n    /* \"#utility.yul\":969:978   */\n  dup4\n    /* \"#utility.yul\":960:967   */\n  dup6\n    /* \"#utility.yul\":956:979   */\n  sub\n    /* \"#utility.yul\":952:984   */\n  slt\n    /* \"#utility.yul\":949:1068   */\n  iszero\n  tag_35\n  jumpi\n    /* \"#utility.yul\":987:1066   */\n  tag_36\n  tag_16\n  jump\t// in\ntag_36:\n    /* \"#utility.yul\":949:1068   */\ntag_35:\n    /* \"#utility.yul\":1107:1108   */\n  0x00\n    /* \"#utility.yul\":1132:1196   */\n  tag_37\n    /* \"#utility.yul\":1188:1195   */\n  dup6\n    /* \"#utility.yul\":1179:1185   */\n  dup3\n    /* \"#utility.yul\":1168:1177   */\n  dup7\n    /* \"#utility.yul\":1164:1186   */\n  add\n    /* \"#utility.yul\":1132:1196   */\n  tag_21\n  jump\t// in\ntag_37:\n    /* \"#utility.yul\":1122:1196   */\n  swap3\n  pop\n    /* \"#utility.yul\":1078:1206   */\n  pop\n    /* \"#utility.yul\":1245:1247   */\n  0x20\n    /* \"#utility.yul\":1271:1335   */\n  tag_38\n    /* \"#utility.yul\":1327:1334   */\n  dup6\n    /* \"#utility.yul\":1318:1324   */\n  dup3\n    /* \"#utility.yul\":1307:1316   */\n  dup7\n    /* \"#utility.yul\":1303:1325   */\n  add\n    /* \"#utility.yul\":1271:1335   */\n  tag_21\n  jump\t// in\ntag_38:\n    /* \"#utility.yul\":1261:1335   */\n  swap2\n  pop\n    /* \"#utility.yul\":1216:1345   */\n  pop\n    /* \"#utility.yul\":845:1352   */\n  swap3\n  pop\n  swap3\n  swap1\n  pop\n  jump\t// out\n    /* \"contracts/SimpleDEX.sol\":561:7127  contract SimpleDEX is Ownable {... */\ntag_12:\n  dataSize(sub_0)\n  dup1\n  dataOffset(sub_0)\n  0x00\n  codecopy\n  0x00\n  return\nstop\n\nsub_0: assembly {\n        /* \"contracts/SimpleDEX.sol\":561:7127  contract SimpleDEX is Ownable {... */\n      mstore(0x40, 0x80)\n      callvalue\n      dup1\n      iszero\n      tag_1\n      jumpi\n      revert(0x00, 0x00)\n    tag_1:\n      pop\n      jumpi(tag_2, lt(calldatasize, 0x04))\n      shr(0xe0, calldataload(0x00))\n      dup1\n      0x8da5cb5b\n      gt\n      tag_15\n      jumpi\n      dup1\n      0x8da5cb5b\n      eq\n      tag_9\n      jumpi\n      dup1\n      0x9cd441da\n      eq\n      tag_10\n      jumpi\n      dup1\n      0x9d7de6b3\n      eq\n      tag_11\n      jumpi\n      dup1\n      0xc4ccea90\n      eq\n      tag_12\n      jumpi\n      dup1\n      0xe4f1f70a\n      eq\n      tag_13\n      jumpi\n      dup1\n      0xf2fde38b\n      eq\n      tag_14\n      jumpi\n      jump(tag_2)\n    tag_15:\n      dup1\n      0x0fc63d10\n      eq\n      tag_3\n      jumpi\n      dup1\n      0x41976e09\n      eq\n      tag_4\n      jumpi\n      dup1\n      0x45b42138\n      eq\n      tag_5\n      jumpi\n      dup1\n      0x5f64b55b\n      eq\n      tag_6\n      jumpi\n      dup1\n      0x715018a6\n      eq\n      tag_7\n      jumpi\n      dup1\n      0x8014a7aa\n      eq\n      tag_8\n      jumpi\n    tag_2:\n      revert(0x00, 0x00)\n        /* \"contracts/SimpleDEX.sol\":597:617  IERC20 public tokenA */\n    tag_3:\n      tag_16\n      tag_17\n      jump\t// in\n    tag_16:\n      mload(0x40)\n      tag_18\n      swap2\n      swap1\n      tag_19\n      jump\t// in\n    tag_18:\n      mload(0x40)\n      dup1\n      swap2\n      sub\n      swap1\n      return\n        /* \"contracts/SimpleDEX.sol\":5933:6297  function getPrice(address _token) external view returns (uint256) {... */\n    tag_4:\n      tag_20\n      0x04\n      dup1\n      calldatasize\n      sub\n      dup2\n      add\n      swap1\n      tag_21\n      swap2\n      swap1\n      tag_22\n      jump\t// in\n    tag_21:\n      tag_23\n      jump\t// in\n    tag_20:\n      mload(0x40)\n      tag_24\n      swap2\n      swap1\n      tag_25\n      jump\t// in\n    tag_24:\n      mload(0x40)\n      dup1\n      swap2\n      sub\n      swap1\n      return\n        /* \"contracts/SimpleDEX.sol\":716:747  uint256 public reserveForTokenA */\n    tag_5:\n      tag_26\n      tag_27\n      jump\t// in\n    tag_26:\n      mload(0x40)\n      tag_28\n      swap2\n      swap1\n      tag_25\n      jump\t// in\n    tag_28:\n      mload(0x40)\n      dup1\n      swap2\n      sub\n      swap1\n      return\n        /* \"contracts/SimpleDEX.sol\":623:643  IERC20 public tokenB */\n    tag_6:\n      tag_29\n      tag_30\n      jump\t// in\n    tag_29:\n      mload(0x40)\n      tag_31\n      swap2\n      swap1\n      tag_19\n      jump\t// in\n    tag_31:\n      mload(0x40)\n      dup1\n      swap2\n      sub\n      swap1\n      return\n        /* \"https://github.com/OpenZeppelin/openzeppelin-contracts/blob/v4.9.0/contracts/access/Ownable.sol\":1824:1925  function renounceOwnership() public virtual onlyOwner {... */\n    tag_7:\n      tag_32\n      tag_33\n      jump\t// in\n    tag_32:\n      stop\n        /* \"contracts/SimpleDEX.sol\":4879:5609  function swapBforA(uint256 amountOnTokenBIn) external {... */\n    tag_8:\n      tag_34\n      0x04\n      dup1\n      calldatasize\n      sub\n      dup2\n      add\n      swap1\n      tag_35\n      swap2\n      swap1\n      tag_36\n      jump\t// in\n    tag_35:\n      tag_37\n      jump\t// in\n    tag_34:\n      stop\n        /* \"https://github.com/OpenZeppelin/openzeppelin-contracts/blob/v4.9.0/contracts/access/Ownable.sol\":1201:1286  function owner() public view virtual returns (address) {... */\n    tag_9:\n      tag_38\n      tag_39\n      jump\t// in\n    tag_38:\n      mload(0x40)\n      tag_40\n      swap2\n      swap1\n      tag_41\n      jump\t// in\n    tag_40:\n      mload(0x40)\n      dup1\n      swap2\n      sub\n      swap1\n      return\n        /* \"contracts/SimpleDEX.sol\":1897:2452  function addLiquidity(uint256 amountOnTokenA, uint256 amountOnTokenB)... */\n    tag_10:\n      tag_42\n      0x04\n      dup1\n      calldatasize\n      sub\n      dup2\n      add\n      swap1\n      tag_43\n      swap2\n      swap1\n      tag_44\n      jump\t// in\n    tag_43:\n      tag_45\n      jump\t// in\n    tag_42:\n      stop\n        /* \"contracts/SimpleDEX.sol\":2755:3673  function removeLiquidity(uint256 amountOnTokenA, uint256 amountOnTokenB)... */\n    tag_11:\n      tag_46\n      0x04\n      dup1\n      calldatasize\n      sub\n      dup2\n      add\n      swap1\n      tag_47\n      swap2\n      swap1\n      tag_44\n      jump\t// in\n    tag_47:\n      tag_48\n      jump\t// in\n    tag_46:\n      stop\n        /* \"contracts/SimpleDEX.sol\":753:784  uint256 public reserveForTokenB */\n    tag_12:\n      tag_49\n      tag_50\n      jump\t// in\n    tag_49:\n      mload(0x40)\n      tag_51\n      swap2\n      swap1\n      tag_25\n      jump\t// in\n    tag_51:\n      mload(0x40)\n      dup1\n      swap2\n      sub\n      swap1\n      return\n        /* \"contracts/SimpleDEX.sol\":3911:4641  function swapAforB(uint256 amountOnTokenAIn) external {... */\n    tag_13:\n      tag_52\n      0x04\n      dup1\n      calldatasize\n      sub\n      dup2\n      add\n      swap1\n      tag_53\n      swap2\n      swap1\n      tag_36\n      jump\t// in\n    tag_53:\n      tag_54\n      jump\t// in\n    tag_52:\n      stop\n        /* \"https://github.com/OpenZeppelin/openzeppelin-contracts/blob/v4.9.0/contracts/access/Ownable.sol\":2074:2272  function transferOwnership(address newOwner) public virtual onlyOwner {... */\n    tag_14:\n      tag_55\n      0x04\n      dup1\n      calldatasize\n      sub\n      dup2\n      add\n      swap1\n      tag_56\n      swap2\n      swap1\n      tag_22\n      jump\t// in\n    tag_56:\n      tag_57\n      jump\t// in\n    tag_55:\n      stop\n        /* \"contracts/SimpleDEX.sol\":597:617  IERC20 public tokenA */\n    tag_17:\n      0x01\n      0x00\n      swap1\n      sload\n      swap1\n      0x0100\n      exp\n      swap1\n      div\n      0xffffffffffffffffffffffffffffffffffffffff\n      and\n      dup2\n      jump\t// out\n        /* \"contracts/SimpleDEX.sol\":5933:6297  function getPrice(address _token) external view returns (uint256) {... */\n    tag_23:\n        /* \"contracts/SimpleDEX.sol\":5990:5997  uint256 */\n      0x00\n        /* \"contracts/SimpleDEX.sol\":6031:6037  tokenA */\n      0x01\n      0x00\n      swap1\n      sload\n      swap1\n      0x0100\n      exp\n      swap1\n      div\n      0xffffffffffffffffffffffffffffffffffffffff\n      and\n        /* \"contracts/SimpleDEX.sol\":6013:6038  _token == address(tokenA) */\n      0xffffffffffffffffffffffffffffffffffffffff\n      and\n        /* \"contracts/SimpleDEX.sol\":6013:6019  _token */\n      dup3\n        /* \"contracts/SimpleDEX.sol\":6013:6038  _token == address(tokenA) */\n      0xffffffffffffffffffffffffffffffffffffffff\n      and\n      sub\n        /* \"contracts/SimpleDEX.sol\":6009:6291  if (_token == address(tokenA)) {... */\n      tag_59\n      jumpi\n        /* \"contracts/SimpleDEX.sol\":6089:6105  reserveForTokenA */\n      sload(0x03)\n        /* \"contracts/SimpleDEX.sol\":6081:6085  1e18 */\n      0x0de0b6b3a7640000\n        /* \"contracts/SimpleDEX.sol\":6062:6078  reserveForTokenB */\n      sload(0x04)\n        /* \"contracts/SimpleDEX.sol\":6062:6085  reserveForTokenB * 1e18 */\n      tag_60\n      swap2\n      swap1\n      tag_61\n      jump\t// in\n    tag_60:\n        /* \"contracts/SimpleDEX.sol\":6061:6105  (reserveForTokenB * 1e18) / reserveForTokenA */\n      tag_62\n      swap2\n      swap1\n      tag_63\n      jump\t// in\n    tag_62:\n        /* \"contracts/SimpleDEX.sol\":6054:6105  return (reserveForTokenB * 1e18) / reserveForTokenA */\n      swap1\n      pop\n      jump(tag_58)\n        /* \"contracts/SimpleDEX.sol\":6009:6291  if (_token == address(tokenA)) {... */\n    tag_59:\n        /* \"contracts/SimpleDEX.sol\":6144:6150  tokenB */\n      0x02\n      0x00\n      swap1\n      sload\n      swap1\n      0x0100\n      exp\n      swap1\n      div\n      0xffffffffffffffffffffffffffffffffffffffff\n      and\n        /* \"contracts/SimpleDEX.sol\":6126:6151  _token == address(tokenB) */\n      0xffffffffffffffffffffffffffffffffffffffff\n      and\n        /* \"contracts/SimpleDEX.sol\":6126:6132  _token */\n      dup3\n        /* \"contracts/SimpleDEX.sol\":6126:6151  _token == address(tokenB) */\n      0xffffffffffffffffffffffffffffffffffffffff\n      and\n      sub\n        /* \"contracts/SimpleDEX.sol\":6122:6291  if (_token == address(tokenB)) {... */\n      tag_65\n      jumpi\n        /* \"contracts/SimpleDEX.sol\":6202:6218  reserveForTokenB */\n      sload(0x04)\n        /* \"contracts/SimpleDEX.sol\":6194:6198  1e18 */\n      0x0de0b6b3a7640000\n        /* \"contracts/SimpleDEX.sol\":6175:6191  reserveForTokenA */\n      sload(0x03)\n        /* \"contracts/SimpleDEX.sol\":6175:6198  reserveForTokenA * 1e18 */\n      tag_66\n      swap2\n      swap1\n      tag_61\n      jump\t// in\n    tag_66:\n        /* \"contracts/SimpleDEX.sol\":6174:6218  (reserveForTokenA * 1e18) / reserveForTokenB */\n      tag_67\n      swap2\n      swap1\n      tag_63\n      jump\t// in\n    tag_67:\n        /* \"contracts/SimpleDEX.sol\":6167:6218  return (reserveForTokenA * 1e18) / reserveForTokenB */\n      swap1\n      pop\n      jump(tag_58)\n        /* \"contracts/SimpleDEX.sol\":6122:6291  if (_token == address(tokenB)) {... */\n    tag_65:\n        /* \"contracts/SimpleDEX.sol\":6249:6280  revert(\"Invalid token address\") */\n      mload(0x40)\n      0x08c379a000000000000000000000000000000000000000000000000000000000\n      dup2\n      mstore\n      0x04\n      add\n      tag_69\n      swap1\n      tag_70\n      jump\t// in\n    tag_69:\n      mload(0x40)\n      dup1\n      swap2\n      sub\n      swap1\n      revert\n        /* \"contracts/SimpleDEX.sol\":5933:6297  function getPrice(address _token) external view returns (uint256) {... */\n    tag_58:\n      swap2\n      swap1\n      pop\n      jump\t// out\n        /* \"contracts/SimpleDEX.sol\":716:747  uint256 public reserveForTokenA */\n    tag_27:\n      sload(0x03)\n      dup2\n      jump\t// out\n        /* \"contracts/SimpleDEX.sol\":623:643  IERC20 public tokenB */\n    tag_30:\n      0x02\n      0x00\n      swap1\n      sload\n      swap1\n      0x0100\n      exp\n      swap1\n      div\n      0xffffffffffffffffffffffffffffffffffffffff\n      and\n      dup2\n      jump\t// out\n        /* \"https://github.com/OpenZeppelin/openzeppelin-contracts/blob/v4.9.0/contracts/access/Ownable.sol\":1824:1925  function renounceOwnership() public virtual onlyOwner {... */\n    tag_33:\n        /* \"https://github.com/OpenZeppelin/openzeppelin-contracts/blob/v4.9.0/contracts/access/Ownable.sol\":1094:1107  _checkOwner() */\n      tag_72\n        /* \"https://github.com/OpenZeppelin/openzeppelin-contracts/blob/v4.9.0/contracts/access/Ownable.sol\":1094:1105  _checkOwner */\n      tag_73\n        /* \"https://github.com/OpenZeppelin/openzeppelin-contracts/blob/v4.9.0/contracts/access/Ownable.sol\":1094:1107  _checkOwner() */\n      jump\t// in\n    tag_72:\n        /* \"https://github.com/OpenZeppelin/openzeppelin-contracts/blob/v4.9.0/contracts/access/Ownable.sol\":1888:1918  _transferOwnership(address(0)) */\n      tag_75\n        /* \"https://github.com/OpenZeppelin/openzeppelin-contracts/blob/v4.9.0/contracts/access/Ownable.sol\":1915:1916  0 */\n      0x00\n        /* \"https://github.com/OpenZeppelin/openzeppelin-contracts/blob/v4.9.0/contracts/access/Ownable.sol\":1888:1906  _transferOwnership */\n      tag_76\n        /* \"https://github.com/OpenZeppelin/openzeppelin-contracts/blob/v4.9.0/contracts/access/Ownable.sol\":1888:1918  _transferOwnership(address(0)) */\n      jump\t// in\n    tag_75:\n        /* \"https://github.com/OpenZeppelin/openzeppelin-contracts/blob/v4.9.0/contracts/access/Ownable.sol\":1824:1925  function renounceOwnership() public virtual onlyOwner {... */\n      jump\t// out\n        /* \"contracts/SimpleDEX.sol\":4879:5609  function swapBforA(uint256 amountOnTokenBIn) external {... */\n    tag_37:\n        /* \"contracts/SimpleDEX.sol\":4970:4971  0 */\n      0x00\n        /* \"contracts/SimpleDEX.sol\":4951:4967  amountOnTokenBIn */\n      dup2\n        /* \"contracts/SimpleDEX.sol\":4951:4971  amountOnTokenBIn > 0 */\n      gt\n        /* \"contracts/SimpleDEX.sol\":4943:5005  require(amountOnTokenBIn > 0, \"Amount must be greater than 0\") */\n      tag_78\n      jumpi\n      mload(0x40)\n      0x08c379a000000000000000000000000000000000000000000000000000000000\n      dup2\n      mstore\n      0x04\n      add\n      tag_79\n      swap1\n      tag_80\n      jump\t// in\n    tag_79:\n      mload(0x40)\n      dup1\n      swap2\n      sub\n      swap1\n      revert\n    tag_78:\n        /* \"contracts/SimpleDEX.sol\":5036:5042  tokenB */\n      0x02\n      0x00\n      swap1\n      sload\n      swap1\n      0x0100\n      exp\n      swap1\n      div\n      0xffffffffffffffffffffffffffffffffffffffff\n      and\n        /* \"contracts/SimpleDEX.sol\":5036:5055  tokenB.transferFrom */\n      0xffffffffffffffffffffffffffffffffffffffff\n      and\n      0x23b872dd\n        /* \"contracts/SimpleDEX.sol\":5056:5066  msg.sender */\n      caller\n        /* \"contracts/SimpleDEX.sol\":5076:5080  this */\n      address\n        /* \"contracts/SimpleDEX.sol\":5083:5099  amountOnTokenBIn */\n      dup5\n        /* \"contracts/SimpleDEX.sol\":5036:5100  tokenB.transferFrom(msg.sender, address(this), amountOnTokenBIn) */\n      mload(0x40)\n      dup5\n      0xffffffff\n      and\n      0xe0\n      shl\n      dup2\n      mstore\n      0x04\n      add\n      tag_81\n      swap4\n      swap3\n      swap2\n      swap1\n      tag_82\n      jump\t// in\n    tag_81:\n      0x20\n      mload(0x40)\n      dup1\n      dup4\n      sub\n      dup2\n      0x00\n      dup8\n      gas\n      call\n      iszero\n      dup1\n      iszero\n      tag_84\n      jumpi\n      returndatacopy(0x00, 0x00, returndatasize)\n      revert(0x00, returndatasize)\n    tag_84:\n      pop\n      pop\n      pop\n      pop\n      mload(0x40)\n      returndatasize\n      not(0x1f)\n      0x1f\n      dup3\n      add\n      and\n      dup3\n      add\n      dup1\n      0x40\n      mstore\n      pop\n      dup2\n      add\n      swap1\n      tag_85\n      swap2\n      swap1\n      tag_86\n      jump\t// in\n    tag_85:\n        /* \"contracts/SimpleDEX.sol\":5015:5151  require(... */\n      tag_87\n      jumpi\n      mload(0x40)\n      0x08c379a000000000000000000000000000000000000000000000000000000000\n      dup2\n      mstore\n      0x04\n      add\n      tag_88\n      swap1\n      tag_89\n      jump\t// in\n    tag_88:\n      mload(0x40)\n      dup1\n      swap2\n      sub\n      swap1\n      revert\n    tag_87:\n        /* \"contracts/SimpleDEX.sol\":5162:5187  uint256 amountOnTokenAOut */\n      0x00\n        /* \"contracts/SimpleDEX.sol\":5190:5302  getAmountOut(... */\n      tag_90\n        /* \"contracts/SimpleDEX.sol\":5216:5232  amountOnTokenBIn */\n      dup3\n        /* \"contracts/SimpleDEX.sol\":5246:5262  reserveForTokenB */\n      sload(0x04)\n        /* \"contracts/SimpleDEX.sol\":5276:5292  reserveForTokenA */\n      sload(0x03)\n        /* \"contracts/SimpleDEX.sol\":5190:5202  getAmountOut */\n      tag_91\n        /* \"contracts/SimpleDEX.sol\":5190:5302  getAmountOut(... */\n      jump\t// in\n    tag_90:\n        /* \"contracts/SimpleDEX.sol\":5162:5302  uint256 amountOnTokenAOut = getAmountOut(... */\n      swap1\n      pop\n        /* \"contracts/SimpleDEX.sol\":5333:5349  amountOnTokenBIn */\n      dup2\n        /* \"contracts/SimpleDEX.sol\":5313:5329  reserveForTokenB */\n      0x04\n      0x00\n        /* \"contracts/SimpleDEX.sol\":5313:5349  reserveForTokenB += amountOnTokenBIn */\n      dup3\n      dup3\n      sload\n      tag_92\n      swap2\n      swap1\n      tag_93\n      jump\t// in\n    tag_92:\n      swap3\n      pop\n      pop\n      dup2\n      swap1\n      sstore\n      pop\n        /* \"contracts/SimpleDEX.sol\":5379:5396  amountOnTokenAOut */\n      dup1\n        /* \"contracts/SimpleDEX.sol\":5359:5375  reserveForTokenA */\n      0x03\n      0x00\n        /* \"contracts/SimpleDEX.sol\":5359:5396  reserveForTokenA -= amountOnTokenAOut */\n      dup3\n      dup3\n      sload\n      tag_94\n      swap2\n      swap1\n      tag_95\n      jump\t// in\n    tag_94:\n      swap3\n      pop\n      pop\n      dup2\n      swap1\n      sstore\n      pop\n        /* \"contracts/SimpleDEX.sol\":5428:5434  tokenA */\n      0x01\n      0x00\n      swap1\n      sload\n      swap1\n      0x0100\n      exp\n      swap1\n      div\n      0xffffffffffffffffffffffffffffffffffffffff\n      and\n        /* \"contracts/SimpleDEX.sol\":5428:5443  tokenA.transfer */\n      0xffffffffffffffffffffffffffffffffffffffff\n      and\n      0xa9059cbb\n        /* \"contracts/SimpleDEX.sol\":5444:5454  msg.sender */\n      caller\n        /* \"contracts/SimpleDEX.sol\":5456:5473  amountOnTokenAOut */\n      dup4\n        /* \"contracts/SimpleDEX.sol\":5428:5474  tokenA.transfer(msg.sender, amountOnTokenAOut) */\n      mload(0x40)\n      dup4\n      0xffffffff\n      and\n      0xe0\n      shl\n      dup2\n      mstore\n      0x04\n      add\n      tag_96\n      swap3\n      swap2\n      swap1\n      tag_97\n      jump\t// in\n    tag_96:\n      0x20\n      mload(0x40)\n      dup1\n      dup4\n      sub\n      dup2\n      0x00\n      dup8\n      gas\n      call\n      iszero\n      dup1\n      iszero\n      tag_99\n      jumpi\n      returndatacopy(0x00, 0x00, returndatasize)\n      revert(0x00, returndatasize)\n    tag_99:\n      pop\n      pop\n      pop\n      pop\n      mload(0x40)\n      returndatasize\n      not(0x1f)\n      0x1f\n      dup3\n      add\n      and\n      dup3\n      add\n      dup1\n      0x40\n      mstore\n      pop\n      dup2\n      add\n      swap1\n      tag_100\n      swap2\n      swap1\n      tag_86\n      jump\t// in\n    tag_100:\n        /* \"contracts/SimpleDEX.sol\":5407:5525  require(... */\n      tag_101\n      jumpi\n      mload(0x40)\n      0x08c379a000000000000000000000000000000000000000000000000000000000\n      dup2\n      mstore\n      0x04\n      add\n      tag_102\n      swap1\n      tag_103\n      jump\t// in\n    tag_102:\n      mload(0x40)\n      dup1\n      swap2\n      sub\n      swap1\n      revert\n    tag_101:\n        /* \"contracts/SimpleDEX.sol\":5546:5556  msg.sender */\n      caller\n        /* \"contracts/SimpleDEX.sol\":5541:5602  Swap(msg.sender, \"B->A\", amountOnTokenBIn, amountOnTokenAOut) */\n      0xffffffffffffffffffffffffffffffffffffffff\n      and\n      0xd6fc4a38a3a3702d8fb16d699f0581d9d0ba09223b03c76aebd61831fe696f50\n        /* \"contracts/SimpleDEX.sol\":5566:5582  amountOnTokenBIn */\n      dup4\n        /* \"contracts/SimpleDEX.sol\":5584:5601  amountOnTokenAOut */\n      dup4\n        /* \"contracts/SimpleDEX.sol\":5541:5602  Swap(msg.sender, \"B->A\", amountOnTokenBIn, amountOnTokenAOut) */\n      mload(0x40)\n      tag_104\n      swap3\n      swap2\n      swap1\n      tag_105\n      jump\t// in\n    tag_104:\n      mload(0x40)\n      dup1\n      swap2\n      sub\n      swap1\n      log2\n        /* \"contracts/SimpleDEX.sol\":4933:5609  {... */\n      pop\n        /* \"contracts/SimpleDEX.sol\":4879:5609  function swapBforA(uint256 amountOnTokenBIn) external {... */\n      pop\n      jump\t// out\n        /* \"https://github.com/OpenZeppelin/openzeppelin-contracts/blob/v4.9.0/contracts/access/Ownable.sol\":1201:1286  function owner() public view virtual returns (address) {... */\n    tag_39:\n        /* \"https://github.com/OpenZeppelin/openzeppelin-contracts/blob/v4.9.0/contracts/access/Ownable.sol\":1247:1254  address */\n      0x00\n        /* \"https://github.com/OpenZeppelin/openzeppelin-contracts/blob/v4.9.0/contracts/access/Ownable.sol\":1273:1279  _owner */\n      0x00\n      0x00\n      swap1\n      sload\n      swap1\n      0x0100\n      exp\n      swap1\n      div\n      0xffffffffffffffffffffffffffffffffffffffff\n      and\n        /* \"https://github.com/OpenZeppelin/openzeppelin-contracts/blob/v4.9.0/contracts/access/Ownable.sol\":1266:1279  return _owner */\n      swap1\n      pop\n        /* \"https://github.com/OpenZeppelin/openzeppelin-contracts/blob/v4.9.0/contracts/access/Ownable.sol\":1201:1286  function owner() public view virtual returns (address) {... */\n      swap1\n      jump\t// out\n        /* \"contracts/SimpleDEX.sol\":1897:2452  function addLiquidity(uint256 amountOnTokenA, uint256 amountOnTokenB)... */\n    tag_45:\n        /* \"https://github.com/OpenZeppelin/openzeppelin-contracts/blob/v4.9.0/contracts/access/Ownable.sol\":1094:1107  _checkOwner() */\n      tag_108\n        /* \"https://github.com/OpenZeppelin/openzeppelin-contracts/blob/v4.9.0/contracts/access/Ownable.sol\":1094:1105  _checkOwner */\n      tag_73\n        /* \"https://github.com/OpenZeppelin/openzeppelin-contracts/blob/v4.9.0/contracts/access/Ownable.sol\":1094:1107  _checkOwner() */\n      jump\t// in\n    tag_108:\n        /* \"contracts/SimpleDEX.sol\":2037:2043  tokenA */\n      0x01\n      0x00\n      swap1\n      sload\n      swap1\n      0x0100\n      exp\n      swap1\n      div\n      0xffffffffffffffffffffffffffffffffffffffff\n      and\n        /* \"contracts/SimpleDEX.sol\":2037:2056  tokenA.transferFrom */\n      0xffffffffffffffffffffffffffffffffffffffff\n      and\n      0x23b872dd\n        /* \"contracts/SimpleDEX.sol\":2057:2067  msg.sender */\n      caller\n        /* \"contracts/SimpleDEX.sol\":2077:2081  this */\n      address\n        /* \"contracts/SimpleDEX.sol\":2084:2098  amountOnTokenA */\n      dup6\n        /* \"contracts/SimpleDEX.sol\":2037:2099  tokenA.transferFrom(msg.sender, address(this), amountOnTokenA) */\n      mload(0x40)\n      dup5\n      0xffffffff\n      and\n      0xe0\n      shl\n      dup2\n      mstore\n      0x04\n      add\n      tag_110\n      swap4\n      swap3\n      swap2\n      swap1\n      tag_82\n      jump\t// in\n    tag_110:\n      0x20\n      mload(0x40)\n      dup1\n      dup4\n      sub\n      dup2\n      0x00\n      dup8\n      gas\n      call\n      iszero\n      dup1\n      iszero\n      tag_112\n      jumpi\n      returndatacopy(0x00, 0x00, returndatasize)\n      revert(0x00, returndatasize)\n    tag_112:\n      pop\n      pop\n      pop\n      pop\n      mload(0x40)\n      returndatasize\n      not(0x1f)\n      0x1f\n      dup3\n      add\n      and\n      dup3\n      add\n      dup1\n      0x40\n      mstore\n      pop\n      dup2\n      add\n      swap1\n      tag_113\n      swap2\n      swap1\n      tag_86\n      jump\t// in\n    tag_113:\n        /* \"contracts/SimpleDEX.sol\":2016:2150  require(... */\n      tag_114\n      jumpi\n      mload(0x40)\n      0x08c379a000000000000000000000000000000000000000000000000000000000\n      dup2\n      mstore\n      0x04\n      add\n      tag_115\n      swap1\n      tag_103\n      jump\t// in\n    tag_115:\n      mload(0x40)\n      dup1\n      swap2\n      sub\n      swap1\n      revert\n    tag_114:\n        /* \"contracts/SimpleDEX.sol\":2181:2187  tokenB */\n      0x02\n      0x00\n      swap1\n      sload\n      swap1\n      0x0100\n      exp\n      swap1\n      div\n      0xffffffffffffffffffffffffffffffffffffffff\n      and\n        /* \"contracts/SimpleDEX.sol\":2181:2200  tokenB.transferFrom */\n      0xffffffffffffffffffffffffffffffffffffffff\n      and\n      0x23b872dd\n        /* \"contracts/SimpleDEX.sol\":2201:2211  msg.sender */\n      caller\n        /* \"contracts/SimpleDEX.sol\":2221:2225  this */\n      address\n        /* \"contracts/SimpleDEX.sol\":2228:2242  amountOnTokenB */\n      dup5\n        /* \"contracts/SimpleDEX.sol\":2181:2243  tokenB.transferFrom(msg.sender, address(this), amountOnTokenB) */\n      mload(0x40)\n      dup5\n      0xffffffff\n      and\n      0xe0\n      shl\n      dup2\n      mstore\n      0x04\n      add\n      tag_116\n      swap4\n      swap3\n      swap2\n      swap1\n      tag_82\n      jump\t// in\n    tag_116:\n      0x20\n      mload(0x40)\n      dup1\n      dup4\n      sub\n      dup2\n      0x00\n      dup8\n      gas\n      call\n      iszero\n      dup1\n      iszero\n      tag_118\n      jumpi\n      returndatacopy(0x00, 0x00, returndatasize)\n      revert(0x00, returndatasize)\n    tag_118:\n      pop\n      pop\n      pop\n      pop\n      mload(0x40)\n      returndatasize\n      not(0x1f)\n      0x1f\n      dup3\n      add\n      and\n      dup3\n      add\n      dup1\n      0x40\n      mstore\n      pop\n      dup2\n      add\n      swap1\n      tag_119\n      swap2\n      swap1\n      tag_86\n      jump\t// in\n    tag_119:\n        /* \"contracts/SimpleDEX.sol\":2160:2294  require(... */\n      tag_120\n      jumpi\n      mload(0x40)\n      0x08c379a000000000000000000000000000000000000000000000000000000000\n      dup2\n      mstore\n      0x04\n      add\n      tag_121\n      swap1\n      tag_89\n      jump\t// in\n    tag_121:\n      mload(0x40)\n      dup1\n      swap2\n      sub\n      swap1\n      revert\n    tag_120:\n        /* \"contracts/SimpleDEX.sol\":2325:2339  amountOnTokenA */\n      dup2\n        /* \"contracts/SimpleDEX.sol\":2305:2321  reserveForTokenA */\n      0x03\n      0x00\n        /* \"contracts/SimpleDEX.sol\":2305:2339  reserveForTokenA += amountOnTokenA */\n      dup3\n      dup3\n      sload\n      tag_122\n      swap2\n      swap1\n      tag_93\n      jump\t// in\n    tag_122:\n      swap3\n      pop\n      pop\n      dup2\n      swap1\n      sstore\n      pop\n        /* \"contracts/SimpleDEX.sol\":2369:2383  amountOnTokenB */\n      dup1\n        /* \"contracts/SimpleDEX.sol\":2349:2365  reserveForTokenB */\n      0x04\n      0x00\n        /* \"contracts/SimpleDEX.sol\":2349:2383  reserveForTokenB += amountOnTokenB */\n      dup3\n      dup3\n      sload\n      tag_123\n      swap2\n      swap1\n      tag_93\n      jump\t// in\n    tag_123:\n      swap3\n      pop\n      pop\n      dup2\n      swap1\n      sstore\n      pop\n        /* \"contracts/SimpleDEX.sol\":2399:2445  LiquidityAdded(amountOnTokenA, amountOnTokenB) */\n      0x38f8a0c92f4c5b0b6877f878cb4c0c8d348a47b76d716c8e78f425043df9515b\n        /* \"contracts/SimpleDEX.sol\":2414:2428  amountOnTokenA */\n      dup3\n        /* \"contracts/SimpleDEX.sol\":2430:2444  amountOnTokenB */\n      dup3\n        /* \"contracts/SimpleDEX.sol\":2399:2445  LiquidityAdded(amountOnTokenA, amountOnTokenB) */\n      mload(0x40)\n      tag_124\n      swap3\n      swap2\n      swap1\n      tag_125\n      jump\t// in\n    tag_124:\n      mload(0x40)\n      dup1\n      swap2\n      sub\n      swap1\n      log1\n        /* \"contracts/SimpleDEX.sol\":1897:2452  function addLiquidity(uint256 amountOnTokenA, uint256 amountOnTokenB)... */\n      pop\n      pop\n      jump\t// out\n        /* \"contracts/SimpleDEX.sol\":2755:3673  function removeLiquidity(uint256 amountOnTokenA, uint256 amountOnTokenB)... */\n    tag_48:\n        /* \"https://github.com/OpenZeppelin/openzeppelin-contracts/blob/v4.9.0/contracts/access/Ownable.sol\":1094:1107  _checkOwner() */\n      tag_127\n        /* \"https://github.com/OpenZeppelin/openzeppelin-contracts/blob/v4.9.0/contracts/access/Ownable.sol\":1094:1105  _checkOwner */\n      tag_73\n        /* \"https://github.com/OpenZeppelin/openzeppelin-contracts/blob/v4.9.0/contracts/access/Ownable.sol\":1094:1107  _checkOwner() */\n      jump\t// in\n    tag_127:\n        /* \"contracts/SimpleDEX.sol\":2898:2899  0 */\n      0x00\n        /* \"contracts/SimpleDEX.sol\":2881:2895  amountOnTokenA */\n      dup3\n        /* \"contracts/SimpleDEX.sol\":2881:2899  amountOnTokenA > 0 */\n      gt\n        /* \"contracts/SimpleDEX.sol\":2877:3235  if (amountOnTokenA > 0) {... */\n      iszero\n      tag_129\n      jumpi\n        /* \"contracts/SimpleDEX.sol\":2960:2974  amountOnTokenA */\n      dup2\n        /* \"contracts/SimpleDEX.sol\":2940:2956  reserveForTokenA */\n      sload(0x03)\n        /* \"contracts/SimpleDEX.sol\":2940:2974  reserveForTokenA >= amountOnTokenA */\n      lt\n      iszero\n        /* \"contracts/SimpleDEX.sol\":2915:3035  require(... */\n      tag_130\n      jumpi\n      mload(0x40)\n      0x08c379a000000000000000000000000000000000000000000000000000000000\n      dup2\n      mstore\n      0x04\n      add\n      tag_131\n      swap1\n      tag_132\n      jump\t// in\n    tag_131:\n      mload(0x40)\n      dup1\n      swap2\n      sub\n      swap1\n      revert\n    tag_130:\n        /* \"contracts/SimpleDEX.sol\":3069:3083  amountOnTokenA */\n      dup2\n        /* \"contracts/SimpleDEX.sol\":3049:3065  reserveForTokenA */\n      0x03\n      0x00\n        /* \"contracts/SimpleDEX.sol\":3049:3083  reserveForTokenA -= amountOnTokenA */\n      dup3\n      dup3\n      sload\n      tag_133\n      swap2\n      swap1\n      tag_95\n      jump\t// in\n    tag_133:\n      swap3\n      pop\n      pop\n      dup2\n      swap1\n      sstore\n      pop\n        /* \"contracts/SimpleDEX.sol\":3122:3128  tokenA */\n      0x01\n      0x00\n      swap1\n      sload\n      swap1\n      0x0100\n      exp\n      swap1\n      div\n      0xffffffffffffffffffffffffffffffffffffffff\n      and\n        /* \"contracts/SimpleDEX.sol\":3122:3137  tokenA.transfer */\n      0xffffffffffffffffffffffffffffffffffffffff\n      and\n      0xa9059cbb\n        /* \"contracts/SimpleDEX.sol\":3138:3148  msg.sender */\n      caller\n        /* \"contracts/SimpleDEX.sol\":3150:3164  amountOnTokenA */\n      dup5\n        /* \"contracts/SimpleDEX.sol\":3122:3165  tokenA.transfer(msg.sender, amountOnTokenA) */\n      mload(0x40)\n      dup4\n      0xffffffff\n      and\n      0xe0\n      shl\n      dup2\n      mstore\n      0x04\n      add\n      tag_134\n      swap3\n      swap2\n      swap1\n      tag_97\n      jump\t// in\n    tag_134:\n      0x20\n      mload(0x40)\n      dup1\n      dup4\n      sub\n      dup2\n      0x00\n      dup8\n      gas\n      call\n      iszero\n      dup1\n      iszero\n      tag_136\n      jumpi\n      returndatacopy(0x00, 0x00, returndatasize)\n      revert(0x00, returndatasize)\n    tag_136:\n      pop\n      pop\n      pop\n      pop\n      mload(0x40)\n      returndatasize\n      not(0x1f)\n      0x1f\n      dup3\n      add\n      and\n      dup3\n      add\n      dup1\n      0x40\n      mstore\n      pop\n      dup2\n      add\n      swap1\n      tag_137\n      swap2\n      swap1\n      tag_86\n      jump\t// in\n    tag_137:\n        /* \"contracts/SimpleDEX.sol\":3097:3224  require(... */\n      tag_138\n      jumpi\n      mload(0x40)\n      0x08c379a000000000000000000000000000000000000000000000000000000000\n      dup2\n      mstore\n      0x04\n      add\n      tag_139\n      swap1\n      tag_103\n      jump\t// in\n    tag_139:\n      mload(0x40)\n      dup1\n      swap2\n      sub\n      swap1\n      revert\n    tag_138:\n        /* \"contracts/SimpleDEX.sol\":2877:3235  if (amountOnTokenA > 0) {... */\n    tag_129:\n        /* \"contracts/SimpleDEX.sol\":3266:3267  0 */\n      0x00\n        /* \"contracts/SimpleDEX.sol\":3249:3263  amountOnTokenB */\n      dup2\n        /* \"contracts/SimpleDEX.sol\":3249:3267  amountOnTokenB > 0 */\n      gt\n        /* \"contracts/SimpleDEX.sol\":3245:3603  if (amountOnTokenB > 0) {... */\n      iszero\n      tag_140\n      jumpi\n        /* \"contracts/SimpleDEX.sol\":3328:3342  amountOnTokenB */\n      dup1\n        /* \"contracts/SimpleDEX.sol\":3308:3324  reserveForTokenB */\n      sload(0x04)\n        /* \"contracts/SimpleDEX.sol\":3308:3342  reserveForTokenB >= amountOnTokenB */\n      lt\n      iszero\n        /* \"contracts/SimpleDEX.sol\":3283:3403  require(... */\n      tag_141\n      jumpi\n      mload(0x40)\n      0x08c379a000000000000000000000000000000000000000000000000000000000\n      dup2\n      mstore\n      0x04\n      add\n      tag_142\n      swap1\n      tag_143\n      jump\t// in\n    tag_142:\n      mload(0x40)\n      dup1\n      swap2\n      sub\n      swap1\n      revert\n    tag_141:\n        /* \"contracts/SimpleDEX.sol\":3437:3451  amountOnTokenB */\n      dup1\n        /* \"contracts/SimpleDEX.sol\":3417:3433  reserveForTokenB */\n      0x04\n      0x00\n        /* \"contracts/SimpleDEX.sol\":3417:3451  reserveForTokenB -= amountOnTokenB */\n      dup3\n      dup3\n      sload\n      tag_144\n      swap2\n      swap1\n      tag_95\n      jump\t// in\n    tag_144:\n      swap3\n      pop\n      pop\n      dup2\n      swap1\n      sstore\n      pop\n        /* \"contracts/SimpleDEX.sol\":3490:3496  tokenB */\n      0x02\n      0x00\n      swap1\n      sload\n      swap1\n      0x0100\n      exp\n      swap1\n      div\n      0xffffffffffffffffffffffffffffffffffffffff\n      and\n        /* \"contracts/SimpleDEX.sol\":3490:3505  tokenB.transfer */\n      0xffffffffffffffffffffffffffffffffffffffff\n      and\n      0xa9059cbb\n        /* \"contracts/SimpleDEX.sol\":3506:3516  msg.sender */\n      caller\n        /* \"contracts/SimpleDEX.sol\":3518:3532  amountOnTokenB */\n      dup4\n        /* \"contracts/SimpleDEX.sol\":3490:3533  tokenB.transfer(msg.sender, amountOnTokenB) */\n      mload(0x40)\n      dup4\n      0xffffffff\n      and\n      0xe0\n      shl\n      dup2\n      mstore\n      0x04\n      add\n      tag_145\n      swap3\n      swap2\n      swap1\n      tag_97\n      jump\t// in\n    tag_145:\n      0x20\n      mload(0x40)\n      dup1\n      dup4\n      sub\n      dup2\n      0x00\n      dup8\n      gas\n      call\n      iszero\n      dup1\n      iszero\n      tag_147\n      jumpi\n      returndatacopy(0x00, 0x00, returndatasize)\n      revert(0x00, returndatasize)\n    tag_147:\n      pop\n      pop\n      pop\n      pop\n      mload(0x40)\n      returndatasize\n      not(0x1f)\n      0x1f\n      dup3\n      add\n      and\n      dup3\n      add\n      dup1\n      0x40\n      mstore\n      pop\n      dup2\n      add\n      swap1\n      tag_148\n      swap2\n      swap1\n      tag_86\n      jump\t// in\n    tag_148:\n        /* \"contracts/SimpleDEX.sol\":3465:3592  require(... */\n      tag_149\n      jumpi\n      mload(0x40)\n      0x08c379a000000000000000000000000000000000000000000000000000000000\n      dup2\n      mstore\n      0x04\n      add\n      tag_150\n      swap1\n      tag_89\n      jump\t// in\n    tag_150:\n      mload(0x40)\n      dup1\n      swap2\n      sub\n      swap1\n      revert\n    tag_149:\n        /* \"contracts/SimpleDEX.sol\":3245:3603  if (amountOnTokenB > 0) {... */\n    tag_140:\n        /* \"contracts/SimpleDEX.sol\":3618:3666  LiquidityRemoved(amountOnTokenA, amountOnTokenB) */\n      0x6f0f96292ae0038c04f9b6bab30f185d9ca02c471d0983f563f2a4f674aef137\n        /* \"contracts/SimpleDEX.sol\":3635:3649  amountOnTokenA */\n      dup3\n        /* \"contracts/SimpleDEX.sol\":3651:3665  amountOnTokenB */\n      dup3\n        /* \"contracts/SimpleDEX.sol\":3618:3666  LiquidityRemoved(amountOnTokenA, amountOnTokenB) */\n      mload(0x40)\n      tag_151\n      swap3\n      swap2\n      swap1\n      tag_125\n      jump\t// in\n    tag_151:\n      mload(0x40)\n      dup1\n      swap2\n      sub\n      swap1\n      log1\n        /* \"contracts/SimpleDEX.sol\":2755:3673  function removeLiquidity(uint256 amountOnTokenA, uint256 amountOnTokenB)... */\n      pop\n      pop\n      jump\t// out\n        /* \"contracts/SimpleDEX.sol\":753:784  uint256 public reserveForTokenB */\n    tag_50:\n      sload(0x04)\n      dup2\n      jump\t// out\n        /* \"contracts/SimpleDEX.sol\":3911:4641  function swapAforB(uint256 amountOnTokenAIn) external {... */\n    tag_54:\n        /* \"contracts/SimpleDEX.sol\":4002:4003  0 */\n      0x00\n        /* \"contracts/SimpleDEX.sol\":3983:3999  amountOnTokenAIn */\n      dup2\n        /* \"contracts/SimpleDEX.sol\":3983:4003  amountOnTokenAIn > 0 */\n      gt\n        /* \"contracts/SimpleDEX.sol\":3975:4037  require(amountOnTokenAIn > 0, \"Amount must be greater than 0\") */\n      tag_153\n      jumpi\n      mload(0x40)\n      0x08c379a000000000000000000000000000000000000000000000000000000000\n      dup2\n      mstore\n      0x04\n      add\n      tag_154\n      swap1\n      tag_80\n      jump\t// in\n    tag_154:\n      mload(0x40)\n      dup1\n      swap2\n      sub\n      swap1\n      revert\n    tag_153:\n        /* \"contracts/SimpleDEX.sol\":4068:4074  tokenA */\n      0x01\n      0x00\n      swap1\n      sload\n      swap1\n      0x0100\n      exp\n      swap1\n      div\n      0xffffffffffffffffffffffffffffffffffffffff\n      and\n        /* \"contracts/SimpleDEX.sol\":4068:4087  tokenA.transferFrom */\n      0xffffffffffffffffffffffffffffffffffffffff\n      and\n      0x23b872dd\n        /* \"contracts/SimpleDEX.sol\":4088:4098  msg.sender */\n      caller\n        /* \"contracts/SimpleDEX.sol\":4108:4112  this */\n      address\n        /* \"contracts/SimpleDEX.sol\":4115:4131  amountOnTokenAIn */\n      dup5\n        /* \"contracts/SimpleDEX.sol\":4068:4132  tokenA.transferFrom(msg.sender, address(this), amountOnTokenAIn) */\n      mload(0x40)\n      dup5\n      0xffffffff\n      and\n      0xe0\n      shl\n      dup2\n      mstore\n      0x04\n      add\n      tag_155\n      swap4\n      swap3\n      swap2\n      swap1\n      tag_82\n      jump\t// in\n    tag_155:\n      0x20\n      mload(0x40)\n      dup1\n      dup4\n      sub\n      dup2\n      0x00\n      dup8\n      gas\n      call\n      iszero\n      dup1\n      iszero\n      tag_157\n      jumpi\n      returndatacopy(0x00, 0x00, returndatasize)\n      revert(0x00, returndatasize)\n    tag_157:\n      pop\n      pop\n      pop\n      pop\n      mload(0x40)\n      returndatasize\n      not(0x1f)\n      0x1f\n      dup3\n      add\n      and\n      dup3\n      add\n      dup1\n      0x40\n      mstore\n      pop\n      dup2\n      add\n      swap1\n      tag_158\n      swap2\n      swap1\n      tag_86\n      jump\t// in\n    tag_158:\n        /* \"contracts/SimpleDEX.sol\":4047:4183  require(... */\n      tag_159\n      jumpi\n      mload(0x40)\n      0x08c379a000000000000000000000000000000000000000000000000000000000\n      dup2\n      mstore\n      0x04\n      add\n      tag_160\n      swap1\n      tag_103\n      jump\t// in\n    tag_160:\n      mload(0x40)\n      dup1\n      swap2\n      sub\n      swap1\n      revert\n    tag_159:\n        /* \"contracts/SimpleDEX.sol\":4194:4219  uint256 amountOnTokenBOut */\n      0x00\n        /* \"contracts/SimpleDEX.sol\":4222:4334  getAmountOut(... */\n      tag_161\n        /* \"contracts/SimpleDEX.sol\":4248:4264  amountOnTokenAIn */\n      dup3\n        /* \"contracts/SimpleDEX.sol\":4278:4294  reserveForTokenA */\n      sload(0x03)\n        /* \"contracts/SimpleDEX.sol\":4308:4324  reserveForTokenB */\n      sload(0x04)\n        /* \"contracts/SimpleDEX.sol\":4222:4234  getAmountOut */\n      tag_91\n        /* \"contracts/SimpleDEX.sol\":4222:4334  getAmountOut(... */\n      jump\t// in\n    tag_161:\n        /* \"contracts/SimpleDEX.sol\":4194:4334  uint256 amountOnTokenBOut = getAmountOut(... */\n      swap1\n      pop\n        /* \"contracts/SimpleDEX.sol\":4365:4381  amountOnTokenAIn */\n      dup2\n        /* \"contracts/SimpleDEX.sol\":4345:4361  reserveForTokenA */\n      0x03\n      0x00\n        /* \"contracts/SimpleDEX.sol\":4345:4381  reserveForTokenA += amountOnTokenAIn */\n      dup3\n      dup3\n      sload\n      tag_162\n      swap2\n      swap1\n      tag_93\n      jump\t// in\n    tag_162:\n      swap3\n      pop\n      pop\n      dup2\n      swap1\n      sstore\n      pop\n        /* \"contracts/SimpleDEX.sol\":4411:4428  amountOnTokenBOut */\n      dup1\n        /* \"contracts/SimpleDEX.sol\":4391:4407  reserveForTokenB */\n      0x04\n      0x00\n        /* \"contracts/SimpleDEX.sol\":4391:4428  reserveForTokenB -= amountOnTokenBOut */\n      dup3\n      dup3\n      sload\n      tag_163\n      swap2\n      swap1\n      tag_95\n      jump\t// in\n    tag_163:\n      swap3\n      pop\n      pop\n      dup2\n      swap1\n      sstore\n      pop\n        /* \"contracts/SimpleDEX.sol\":4460:4466  tokenB */\n      0x02\n      0x00\n      swap1\n      sload\n      swap1\n      0x0100\n      exp\n      swap1\n      div\n      0xffffffffffffffffffffffffffffffffffffffff\n      and\n        /* \"contracts/SimpleDEX.sol\":4460:4475  tokenB.transfer */\n      0xffffffffffffffffffffffffffffffffffffffff\n      and\n      0xa9059cbb\n        /* \"contracts/SimpleDEX.sol\":4476:4486  msg.sender */\n      caller\n        /* \"contracts/SimpleDEX.sol\":4488:4505  amountOnTokenBOut */\n      dup4\n        /* \"contracts/SimpleDEX.sol\":4460:4506  tokenB.transfer(msg.sender, amountOnTokenBOut) */\n      mload(0x40)\n      dup4\n      0xffffffff\n      and\n      0xe0\n      shl\n      dup2\n      mstore\n      0x04\n      add\n      tag_164\n      swap3\n      swap2\n      swap1\n      tag_97\n      jump\t// in\n    tag_164:\n      0x20\n      mload(0x40)\n      dup1\n      dup4\n      sub\n      dup2\n      0x00\n      dup8\n      gas\n      call\n      iszero\n      dup1\n      iszero\n      tag_166\n      jumpi\n      returndatacopy(0x00, 0x00, returndatasize)\n      revert(0x00, returndatasize)\n    tag_166:\n      pop\n      pop\n      pop\n      pop\n      mload(0x40)\n      returndatasize\n      not(0x1f)\n      0x1f\n      dup3\n      add\n      and\n      dup3\n      add\n      dup1\n      0x40\n      mstore\n      pop\n      dup2\n      add\n      swap1\n      tag_167\n      swap2\n      swap1\n      tag_86\n      jump\t// in\n    tag_167:\n        /* \"contracts/SimpleDEX.sol\":4439:4557  require(... */\n      tag_168\n      jumpi\n      mload(0x40)\n      0x08c379a000000000000000000000000000000000000000000000000000000000\n      dup2\n      mstore\n      0x04\n      add\n      tag_169\n      swap1\n      tag_89\n      jump\t// in\n    tag_169:\n      mload(0x40)\n      dup1\n      swap2\n      sub\n      swap1\n      revert\n    tag_168:\n        /* \"contracts/SimpleDEX.sol\":4578:4588  msg.sender */\n      caller\n        /* \"contracts/SimpleDEX.sol\":4573:4634  Swap(msg.sender, \"A->B\", amountOnTokenAIn, amountOnTokenBOut) */\n      0xffffffffffffffffffffffffffffffffffffffff\n      and\n      0xd6fc4a38a3a3702d8fb16d699f0581d9d0ba09223b03c76aebd61831fe696f50\n        /* \"contracts/SimpleDEX.sol\":4598:4614  amountOnTokenAIn */\n      dup4\n        /* \"contracts/SimpleDEX.sol\":4616:4633  amountOnTokenBOut */\n      dup4\n        /* \"contracts/SimpleDEX.sol\":4573:4634  Swap(msg.sender, \"A->B\", amountOnTokenAIn, amountOnTokenBOut) */\n      mload(0x40)\n      tag_170\n      swap3\n      swap2\n      swap1\n      tag_171\n      jump\t// in\n    tag_170:\n      mload(0x40)\n      dup1\n      swap2\n      sub\n      swap1\n      log2\n        /* \"contracts/SimpleDEX.sol\":3965:4641  {... */\n      pop\n        /* \"contracts/SimpleDEX.sol\":3911:4641  function swapAforB(uint256 amountOnTokenAIn) external {... */\n      pop\n      jump\t// out\n        /* \"https://github.com/OpenZeppelin/openzeppelin-contracts/blob/v4.9.0/contracts/access/Ownable.sol\":2074:2272  function transferOwnership(address newOwner) public virtual onlyOwner {... */\n    tag_57:\n        /* \"https://github.com/OpenZeppelin/openzeppelin-contracts/blob/v4.9.0/contracts/access/Ownable.sol\":1094:1107  _checkOwner() */\n      tag_173\n        /* \"https://github.com/OpenZeppelin/openzeppelin-contracts/blob/v4.9.0/contracts/access/Ownable.sol\":1094:1105  _checkOwner */\n      tag_73\n        /* \"https://github.com/OpenZeppelin/openzeppelin-contracts/blob/v4.9.0/contracts/access/Ownable.sol\":1094:1107  _checkOwner() */\n      jump\t// in\n    tag_173:\n        /* \"https://github.com/OpenZeppelin/openzeppelin-contracts/blob/v4.9.0/contracts/access/Ownable.sol\":2182:2183  0 */\n      0x00\n        /* \"https://github.com/OpenZeppelin/openzeppelin-contracts/blob/v4.9.0/contracts/access/Ownable.sol\":2162:2184  newOwner != address(0) */\n      0xffffffffffffffffffffffffffffffffffffffff\n      and\n        /* \"https://github.com/OpenZeppelin/openzeppelin-contracts/blob/v4.9.0/contracts/access/Ownable.sol\":2162:2170  newOwner */\n      dup2\n        /* \"https://github.com/OpenZeppelin/openzeppelin-contracts/blob/v4.9.0/contracts/access/Ownable.sol\":2162:2184  newOwner != address(0) */\n      0xffffffffffffffffffffffffffffffffffffffff\n      and\n      sub\n        /* \"https://github.com/OpenZeppelin/openzeppelin-contracts/blob/v4.9.0/contracts/access/Ownable.sol\":2154:2227  require(newOwner != address(0), \"Ownable: new owner is the zero address\") */\n      tag_175\n      jumpi\n      mload(0x40)\n      0x08c379a000000000000000000000000000000000000000000000000000000000\n      dup2\n      mstore\n      0x04\n      add\n      tag_176\n      swap1\n      tag_177\n      jump\t// in\n    tag_176:\n      mload(0x40)\n      dup1\n      swap2\n      sub\n      swap1\n      revert\n    tag_175:\n        /* \"https://github.com/OpenZeppelin/openzeppelin-contracts/blob/v4.9.0/contracts/access/Ownable.sol\":2237:2265  _transferOwnership(newOwner) */\n      tag_178\n        /* \"https://github.com/OpenZeppelin/openzeppelin-contracts/blob/v4.9.0/contracts/access/Ownable.sol\":2256:2264  newOwner */\n      dup2\n        /* \"https://github.com/OpenZeppelin/openzeppelin-contracts/blob/v4.9.0/contracts/access/Ownable.sol\":2237:2255  _transferOwnership */\n      tag_76\n        /* \"https://github.com/OpenZeppelin/openzeppelin-contracts/blob/v4.9.0/contracts/access/Ownable.sol\":2237:2265  _transferOwnership(newOwner) */\n      jump\t// in\n    tag_178:\n        /* \"https://github.com/OpenZeppelin/openzeppelin-contracts/blob/v4.9.0/contracts/access/Ownable.sol\":2074:2272  function transferOwnership(address newOwner) public virtual onlyOwner {... */\n      pop\n      jump\t// out\n        /* \"https://github.com/OpenZeppelin/openzeppelin-contracts/blob/v4.9.0/contracts/access/Ownable.sol\":1359:1489  function _checkOwner() internal view virtual {... */\n    tag_73:\n        /* \"https://github.com/OpenZeppelin/openzeppelin-contracts/blob/v4.9.0/contracts/access/Ownable.sol\":1433:1445  _msgSender() */\n      tag_180\n        /* \"https://github.com/OpenZeppelin/openzeppelin-contracts/blob/v4.9.0/contracts/access/Ownable.sol\":1433:1443  _msgSender */\n      tag_181\n        /* \"https://github.com/OpenZeppelin/openzeppelin-contracts/blob/v4.9.0/contracts/access/Ownable.sol\":1433:1445  _msgSender() */\n      jump\t// in\n    tag_180:\n        /* \"https://github.com/OpenZeppelin/openzeppelin-contracts/blob/v4.9.0/contracts/access/Ownable.sol\":1422:1445  owner() == _msgSender() */\n      0xffffffffffffffffffffffffffffffffffffffff\n      and\n        /* \"https://github.com/OpenZeppelin/openzeppelin-contracts/blob/v4.9.0/contracts/access/Ownable.sol\":1422:1429  owner() */\n      tag_182\n        /* \"https://github.com/OpenZeppelin/openzeppelin-contracts/blob/v4.9.0/contracts/access/Ownable.sol\":1422:1427  owner */\n      tag_39\n        /* \"https://github.com/OpenZeppelin/openzeppelin-contracts/blob/v4.9.0/contracts/access/Ownable.sol\":1422:1429  owner() */\n      jump\t// in\n    tag_182:\n        /* \"https://github.com/OpenZeppelin/openzeppelin-contracts/blob/v4.9.0/contracts/access/Ownable.sol\":1422:1445  owner() == _msgSender() */\n      0xffffffffffffffffffffffffffffffffffffffff\n      and\n      eq\n        /* \"https://github.com/OpenZeppelin/openzeppelin-contracts/blob/v4.9.0/contracts/access/Ownable.sol\":1414:1482  require(owner() == _msgSender(), \"Ownable: caller is not the owner\") */\n      tag_183\n      jumpi\n      mload(0x40)\n      0x08c379a000000000000000000000000000000000000000000000000000000000\n      dup2\n      mstore\n      0x04\n      add\n      tag_184\n      swap1\n      tag_185\n      jump\t// in\n    tag_184:\n      mload(0x40)\n      dup1\n      swap2\n      sub\n      swap1\n      revert\n    tag_183:\n        /* \"https://github.com/OpenZeppelin/openzeppelin-contracts/blob/v4.9.0/contracts/access/Ownable.sol\":1359:1489  function _checkOwner() internal view virtual {... */\n      jump\t// out\n        /* \"https://github.com/OpenZeppelin/openzeppelin-contracts/blob/v4.9.0/contracts/access/Ownable.sol\":2426:2613  function _transferOwnership(address newOwner) internal virtual {... */\n    tag_76:\n        /* \"https://github.com/OpenZeppelin/openzeppelin-contracts/blob/v4.9.0/contracts/access/Ownable.sol\":2499:2515  address oldOwner */\n      0x00\n        /* \"https://github.com/OpenZeppelin/openzeppelin-contracts/blob/v4.9.0/contracts/access/Ownable.sol\":2518:2524  _owner */\n      0x00\n      0x00\n      swap1\n      sload\n      swap1\n      0x0100\n      exp\n      swap1\n      div\n      0xffffffffffffffffffffffffffffffffffffffff\n      and\n        /* \"https://github.com/OpenZeppelin/openzeppelin-contracts/blob/v4.9.0/contracts/access/Ownable.sol\":2499:2524  address oldOwner = _owner */\n      swap1\n      pop\n        /* \"https://github.com/OpenZeppelin/openzeppelin-contracts/blob/v4.9.0/contracts/access/Ownable.sol\":2543:2551  newOwner */\n      dup2\n        /* \"https://github.com/OpenZeppelin/openzeppelin-contracts/blob/v4.9.0/contracts/access/Ownable.sol\":2534:2540  _owner */\n      0x00\n      0x00\n        /* \"https://github.com/OpenZeppelin/openzeppelin-contracts/blob/v4.9.0/contracts/access/Ownable.sol\":2534:2551  _owner = newOwner */\n      0x0100\n      exp\n      dup2\n      sload\n      dup2\n      0xffffffffffffffffffffffffffffffffffffffff\n      mul\n      not\n      and\n      swap1\n      dup4\n      0xffffffffffffffffffffffffffffffffffffffff\n      and\n      mul\n      or\n      swap1\n      sstore\n      pop\n        /* \"https://github.com/OpenZeppelin/openzeppelin-contracts/blob/v4.9.0/contracts/access/Ownable.sol\":2597:2605  newOwner */\n      dup2\n        /* \"https://github.com/OpenZeppelin/openzeppelin-contracts/blob/v4.9.0/contracts/access/Ownable.sol\":2566:2606  OwnershipTransferred(oldOwner, newOwner) */\n      0xffffffffffffffffffffffffffffffffffffffff\n      and\n        /* \"https://github.com/OpenZeppelin/openzeppelin-contracts/blob/v4.9.0/contracts/access/Ownable.sol\":2587:2595  oldOwner */\n      dup2\n        /* \"https://github.com/OpenZeppelin/openzeppelin-contracts/blob/v4.9.0/contracts/access/Ownable.sol\":2566:2606  OwnershipTransferred(oldOwner, newOwner) */\n      0xffffffffffffffffffffffffffffffffffffffff\n      and\n      0x8be0079c531659141344cd1fd0a4f28419497f9722a3daafe3b4186f6b6457e0\n      mload(0x40)\n      mload(0x40)\n      dup1\n      swap2\n      sub\n      swap1\n      log3\n        /* \"https://github.com/OpenZeppelin/openzeppelin-contracts/blob/v4.9.0/contracts/access/Ownable.sol\":2489:2613  {... */\n      pop\n        /* \"https://github.com/OpenZeppelin/openzeppelin-contracts/blob/v4.9.0/contracts/access/Ownable.sol\":2426:2613  function _transferOwnership(address newOwner) internal virtual {... */\n      pop\n      jump\t// out\n        /* \"contracts/SimpleDEX.sol\":6673:7125  function getAmountOut(... */\n    tag_91:\n        /* \"contracts/SimpleDEX.sol\":6805:6812  uint256 */\n      0x00\n        /* \"contracts/SimpleDEX.sol\":6943:6971  uint256 amountInWithReserves */\n      0x00\n        /* \"contracts/SimpleDEX.sol\":6986:6994  amountIn */\n      dup5\n        /* \"contracts/SimpleDEX.sol\":6974:6983  reserveIn */\n      dup5\n        /* \"contracts/SimpleDEX.sol\":6974:6994  reserveIn + amountIn */\n      tag_188\n      swap2\n      swap1\n      tag_93\n      jump\t// in\n    tag_188:\n        /* \"contracts/SimpleDEX.sol\":6943:6994  uint256 amountInWithReserves = reserveIn + amountIn */\n      swap1\n      pop\n        /* \"contracts/SimpleDEX.sol\":7004:7025  uint256 newReserveOut */\n      0x00\n        /* \"contracts/SimpleDEX.sol\":7055:7075  amountInWithReserves */\n      dup2\n        /* \"contracts/SimpleDEX.sol\":7041:7051  reserveOut */\n      dup5\n        /* \"contracts/SimpleDEX.sol\":7029:7038  reserveIn */\n      dup7\n        /* \"contracts/SimpleDEX.sol\":7029:7051  reserveIn * reserveOut */\n      tag_189\n      swap2\n      swap1\n      tag_61\n      jump\t// in\n    tag_189:\n        /* \"contracts/SimpleDEX.sol\":7028:7075  (reserveIn * reserveOut) / amountInWithReserves */\n      tag_190\n      swap2\n      swap1\n      tag_63\n      jump\t// in\n    tag_190:\n        /* \"contracts/SimpleDEX.sol\":7004:7075  uint256 newReserveOut = (reserveIn * reserveOut) / amountInWithReserves */\n      swap1\n      pop\n        /* \"contracts/SimpleDEX.sol\":7105:7118  newReserveOut */\n      dup1\n        /* \"contracts/SimpleDEX.sol\":7092:7102  reserveOut */\n      dup5\n        /* \"contracts/SimpleDEX.sol\":7092:7118  reserveOut - newReserveOut */\n      tag_191\n      swap2\n      swap1\n      tag_95\n      jump\t// in\n    tag_191:\n        /* \"contracts/SimpleDEX.sol\":7085:7118  return reserveOut - newReserveOut */\n      swap3\n      pop\n      pop\n      pop\n        /* \"contracts/SimpleDEX.sol\":6673:7125  function getAmountOut(... */\n      swap4\n      swap3\n      pop\n      pop\n      pop\n      jump\t// out\n        /* \"https://github.com/OpenZeppelin/openzeppelin-contracts/blob/v4.9.0/contracts/utils/Context.sol\":640:736  function _msgSender() internal view virtual returns (address) {... */\n    tag_181:\n        /* \"https://github.com/OpenZeppelin/openzeppelin-contracts/blob/v4.9.0/contracts/utils/Context.sol\":693:700  address */\n      0x00\n        /* \"https://github.com/OpenZeppelin/openzeppelin-contracts/blob/v4.9.0/contracts/utils/Context.sol\":719:729  msg.sender */\n      caller\n        /* \"https://github.com/OpenZeppelin/openzeppelin-contracts/blob/v4.9.0/contracts/utils/Context.sol\":712:729  return msg.sender */\n      swap1\n      pop\n        /* \"https://github.com/OpenZeppelin/openzeppelin-contracts/blob/v4.9.0/contracts/utils/Context.sol\":640:736  function _msgSender() internal view virtual returns (address) {... */\n      swap1\n      jump\t// out\n        /* \"#utility.yul\":7:133   */\n    tag_193:\n        /* \"#utility.yul\":44:51   */\n      0x00\n        /* \"#utility.yul\":84:126   */\n      0xffffffffffffffffffffffffffffffffffffffff\n        /* \"#utility.yul\":77:82   */\n      dup3\n        /* \"#utility.yul\":73:127   */\n      and\n        /* \"#utility.yul\":62:127   */\n      swap1\n      pop\n        /* \"#utility.yul\":7:133   */\n      swap2\n      swap1\n      pop\n      jump\t// out\n        /* \"#utility.yul\":139:199   */\n    tag_194:\n        /* \"#utility.yul\":167:170   */\n      0x00\n        /* \"#utility.yul\":188:193   */\n      dup2\n        /* \"#utility.yul\":181:193   */\n      swap1\n      pop\n        /* \"#utility.yul\":139:199   */\n      swap2\n      swap1\n      pop\n      jump\t// out\n        /* \"#utility.yul\":205:347   */\n    tag_195:\n        /* \"#utility.yul\":255:264   */\n      0x00\n        /* \"#utility.yul\":288:341   */\n      tag_240\n        /* \"#utility.yul\":306:340   */\n      tag_241\n        /* \"#utility.yul\":315:339   */\n      tag_242\n        /* \"#utility.yul\":333:338   */\n      dup5\n        /* \"#utility.yul\":315:339   */\n      tag_193\n      jump\t// in\n    tag_242:\n        /* \"#utility.yul\":306:340   */\n      tag_194\n      jump\t// in\n    tag_241:\n        /* \"#utility.yul\":288:341   */\n      tag_193\n      jump\t// in\n    tag_240:\n        /* \"#utility.yul\":275:341   */\n      swap1\n      pop\n        /* \"#utility.yul\":205:347   */\n      swap2\n      swap1\n      pop\n      jump\t// out\n        /* \"#utility.yul\":353:479   */\n    tag_196:\n        /* \"#utility.yul\":403:412   */\n      0x00\n        /* \"#utility.yul\":436:473   */\n      tag_244\n        /* \"#utility.yul\":467:472   */\n      dup3\n        /* \"#utility.yul\":436:473   */\n      tag_195\n      jump\t// in\n    tag_244:\n        /* \"#utility.yul\":423:473   */\n      swap1\n      pop\n        /* \"#utility.yul\":353:479   */\n      swap2\n      swap1\n      pop\n      jump\t// out\n        /* \"#utility.yul\":485:626   */\n    tag_197:\n        /* \"#utility.yul\":550:559   */\n      0x00\n        /* \"#utility.yul\":583:620   */\n      tag_246\n        /* \"#utility.yul\":614:619   */\n      dup3\n        /* \"#utility.yul\":583:620   */\n      tag_196\n      jump\t// in\n    tag_246:\n        /* \"#utility.yul\":570:620   */\n      swap1\n      pop\n        /* \"#utility.yul\":485:626   */\n      swap2\n      swap1\n      pop\n      jump\t// out\n        /* \"#utility.yul\":632:793   */\n    tag_198:\n        /* \"#utility.yul\":734:786   */\n      tag_248\n        /* \"#utility.yul\":780:785   */\n      dup2\n        /* \"#utility.yul\":734:786   */\n      tag_197\n      jump\t// in\n    tag_248:\n        /* \"#utility.yul\":729:732   */\n      dup3\n        /* \"#utility.yul\":722:787   */\n      mstore\n        /* \"#utility.yul\":632:793   */\n      pop\n      pop\n      jump\t// out\n        /* \"#utility.yul\":799:1051   */\n    tag_19:\n        /* \"#utility.yul\":907:911   */\n      0x00\n        /* \"#utility.yul\":945:947   */\n      0x20\n        /* \"#utility.yul\":934:943   */\n      dup3\n        /* \"#utility.yul\":930:948   */\n      add\n        /* \"#utility.yul\":922:948   */\n      swap1\n      pop\n        /* \"#utility.yul\":958:1044   */\n      tag_250\n        /* \"#utility.yul\":1041:1042   */\n      0x00\n        /* \"#utility.yul\":1030:1039   */\n      dup4\n        /* \"#utility.yul\":1026:1043   */\n      add\n        /* \"#utility.yul\":1017:1023   */\n      dup5\n        /* \"#utility.yul\":958:1044   */\n      tag_198\n      jump\t// in\n    tag_250:\n        /* \"#utility.yul\":799:1051   */\n      swap3\n      swap2\n      pop\n      pop\n      jump\t// out\n        /* \"#utility.yul\":1138:1255   */\n    tag_200:\n        /* \"#utility.yul\":1247:1248   */\n      0x00\n        /* \"#utility.yul\":1244:1245   */\n      0x00\n        /* \"#utility.yul\":1237:1249   */\n      revert\n        /* \"#utility.yul\":1384:1480   */\n    tag_202:\n        /* \"#utility.yul\":1421:1428   */\n      0x00\n        /* \"#utility.yul\":1450:1474   */\n      tag_255\n        /* \"#utility.yul\":1468:1473   */\n      dup3\n        /* \"#utility.yul\":1450:1474   */\n      tag_193\n      jump\t// in\n    tag_255:\n        /* \"#utility.yul\":1439:1474   */\n      swap1\n      pop\n        /* \"#utility.yul\":1384:1480   */\n      swap2\n      swap1\n      pop\n      jump\t// out\n        /* \"#utility.yul\":1486:1608   */\n    tag_203:\n        /* \"#utility.yul\":1559:1583   */\n      tag_257\n        /* \"#utility.yul\":1577:1582   */\n      dup2\n        /* \"#utility.yul\":1559:1583   */\n      tag_202\n      jump\t// in\n    tag_257:\n        /* \"#utility.yul\":1552:1557   */\n      dup2\n        /* \"#utility.yul\":1549:1584   */\n      eq\n        /* \"#utility.yul\":1539:1602   */\n      tag_258\n      jumpi\n        /* \"#utility.yul\":1598:1599   */\n      0x00\n        /* \"#utility.yul\":1595:1596   */\n      0x00\n        /* \"#utility.yul\":1588:1600   */\n      revert\n        /* \"#utility.yul\":1539:1602   */\n    tag_258:\n        /* \"#utility.yul\":1486:1608   */\n      pop\n      jump\t// out\n        /* \"#utility.yul\":1614:1753   */\n    tag_204:\n        /* \"#utility.yul\":1660:1665   */\n      0x00\n        /* \"#utility.yul\":1698:1704   */\n      dup2\n        /* \"#utility.yul\":1685:1705   */\n      calldataload\n        /* \"#utility.yul\":1676:1705   */\n      swap1\n      pop\n        /* \"#utility.yul\":1714:1747   */\n      tag_260\n        /* \"#utility.yul\":1741:1746   */\n      dup2\n        /* \"#utility.yul\":1714:1747   */\n      tag_203\n      jump\t// in\n    tag_260:\n        /* \"#utility.yul\":1614:1753   */\n      swap3\n      swap2\n      pop\n      pop\n      jump\t// out\n        /* \"#utility.yul\":1759:2088   */\n    tag_22:\n        /* \"#utility.yul\":1818:1824   */\n      0x00\n        /* \"#utility.yul\":1867:1869   */\n      0x20\n        /* \"#utility.yul\":1855:1864   */\n      dup3\n        /* \"#utility.yul\":1846:1853   */\n      dup5\n        /* \"#utility.yul\":1842:1865   */\n      sub\n        /* \"#utility.yul\":1838:1870   */\n      slt\n        /* \"#utility.yul\":1835:1954   */\n      iszero\n      tag_262\n      jumpi\n        /* \"#utility.yul\":1873:1952   */\n      tag_263\n      tag_200\n      jump\t// in\n    tag_263:\n        /* \"#utility.yul\":1835:1954   */\n    tag_262:\n        /* \"#utility.yul\":1993:1994   */\n      0x00\n        /* \"#utility.yul\":2018:2071   */\n      tag_264\n        /* \"#utility.yul\":2063:2070   */\n      dup5\n        /* \"#utility.yul\":2054:2060   */\n      dup3\n        /* \"#utility.yul\":2043:2052   */\n      dup6\n        /* \"#utility.yul\":2039:2061   */\n      add\n        /* \"#utility.yul\":2018:2071   */\n      tag_204\n      jump\t// in\n    tag_264:\n        /* \"#utility.yul\":2008:2071   */\n      swap2\n      pop\n        /* \"#utility.yul\":1964:2081   */\n      pop\n        /* \"#utility.yul\":1759:2088   */\n      swap3\n      swap2\n      pop\n      pop\n      jump\t// out\n        /* \"#utility.yul\":2094:2171   */\n    tag_205:\n        /* \"#utility.yul\":2131:2138   */\n      0x00\n        /* \"#utility.yul\":2160:2165   */\n      dup2\n        /* \"#utility.yul\":2149:2165   */\n      swap1\n      pop\n        /* \"#utility.yul\":2094:2171   */\n      swap2\n      swap1\n      pop\n      jump\t// out\n        /* \"#utility.yul\":2177:2295   */\n    tag_206:\n        /* \"#utility.yul\":2264:2288   */\n      tag_267\n        /* \"#utility.yul\":2282:2287   */\n      dup2\n        /* \"#utility.yul\":2264:2288   */\n      tag_205\n      jump\t// in\n    tag_267:\n        /* \"#utility.yul\":2259:2262   */\n      dup3\n        /* \"#utility.yul\":2252:2289   */\n      mstore\n        /* \"#utility.yul\":2177:2295   */\n      pop\n      pop\n      jump\t// out\n        /* \"#utility.yul\":2301:2523   */\n    tag_25:\n        /* \"#utility.yul\":2394:2398   */\n      0x00\n        /* \"#utility.yul\":2432:2434   */\n      0x20\n        /* \"#utility.yul\":2421:2430   */\n      dup3\n        /* \"#utility.yul\":2417:2435   */\n      add\n        /* \"#utility.yul\":2409:2435   */\n      swap1\n      pop\n        /* \"#utility.yul\":2445:2516   */\n      tag_269\n        /* \"#utility.yul\":2513:2514   */\n      0x00\n        /* \"#utility.yul\":2502:2511   */\n      dup4\n        /* \"#utility.yul\":2498:2515   */\n      add\n        /* \"#utility.yul\":2489:2495   */\n      dup5\n        /* \"#utility.yul\":2445:2516   */\n      tag_206\n      jump\t// in\n    tag_269:\n        /* \"#utility.yul\":2301:2523   */\n      swap3\n      swap2\n      pop\n      pop\n      jump\t// out\n        /* \"#utility.yul\":2529:2651   */\n    tag_207:\n        /* \"#utility.yul\":2602:2626   */\n      tag_271\n        /* \"#utility.yul\":2620:2625   */\n      dup2\n        /* \"#utility.yul\":2602:2626   */\n      tag_205\n      jump\t// in\n    tag_271:\n        /* \"#utility.yul\":2595:2600   */\n      dup2\n        /* \"#utility.yul\":2592:2627   */\n      eq\n        /* \"#utility.yul\":2582:2645   */\n      tag_272\n      jumpi\n        /* \"#utility.yul\":2641:2642   */\n      0x00\n        /* \"#utility.yul\":2638:2639   */\n      0x00\n        /* \"#utility.yul\":2631:2643   */\n      revert\n        /* \"#utility.yul\":2582:2645   */\n    tag_272:\n        /* \"#utility.yul\":2529:2651   */\n      pop\n      jump\t// out\n        /* \"#utility.yul\":2657:2796   */\n    tag_208:\n        /* \"#utility.yul\":2703:2708   */\n      0x00\n        /* \"#utility.yul\":2741:2747   */\n      dup2\n        /* \"#utility.yul\":2728:2748   */\n      calldataload\n        /* \"#utility.yul\":2719:2748   */\n      swap1\n      pop\n        /* \"#utility.yul\":2757:2790   */\n      tag_274\n        /* \"#utility.yul\":2784:2789   */\n      dup2\n        /* \"#utility.yul\":2757:2790   */\n      tag_207\n      jump\t// in\n    tag_274:\n        /* \"#utility.yul\":2657:2796   */\n      swap3\n      swap2\n      pop\n      pop\n      jump\t// out\n        /* \"#utility.yul\":2802:3131   */\n    tag_36:\n        /* \"#utility.yul\":2861:2867   */\n      0x00\n        /* \"#utility.yul\":2910:2912   */\n      0x20\n        /* \"#utility.yul\":2898:2907   */\n      dup3\n        /* \"#utility.yul\":2889:2896   */\n      dup5\n        /* \"#utility.yul\":2885:2908   */\n      sub\n        /* \"#utility.yul\":2881:2913   */\n      slt\n        /* \"#utility.yul\":2878:2997   */\n      iszero\n      tag_276\n      jumpi\n        /* \"#utility.yul\":2916:2995   */\n      tag_277\n      tag_200\n      jump\t// in\n    tag_277:\n        /* \"#utility.yul\":2878:2997   */\n    tag_276:\n        /* \"#utility.yul\":3036:3037   */\n      0x00\n        /* \"#utility.yul\":3061:3114   */\n      tag_278\n        /* \"#utility.yul\":3106:3113   */\n      dup5\n        /* \"#utility.yul\":3097:3103   */\n      dup3\n        /* \"#utility.yul\":3086:3095   */\n      dup6\n        /* \"#utility.yul\":3082:3104   */\n      add\n        /* \"#utility.yul\":3061:3114   */\n      tag_208\n      jump\t// in\n    tag_278:\n        /* \"#utility.yul\":3051:3114   */\n      swap2\n      pop\n        /* \"#utility.yul\":3007:3124   */\n      pop\n        /* \"#utility.yul\":2802:3131   */\n      swap3\n      swap2\n      pop\n      pop\n      jump\t// out\n        /* \"#utility.yul\":3137:3255   */\n    tag_209:\n        /* \"#utility.yul\":3224:3248   */\n      tag_280\n        /* \"#utility.yul\":3242:3247   */\n      dup2\n        /* \"#utility.yul\":3224:3248   */\n      tag_202\n      jump\t// in\n    tag_280:\n        /* \"#utility.yul\":3219:3222   */\n      dup3\n        /* \"#utility.yul\":3212:3249   */\n      mstore\n        /* \"#utility.yul\":3137:3255   */\n      pop\n      pop\n      jump\t// out\n        /* \"#utility.yul\":3261:3483   */\n    tag_41:\n        /* \"#utility.yul\":3354:3358   */\n      0x00\n        /* \"#utility.yul\":3392:3394   */\n      0x20\n        /* \"#utility.yul\":3381:3390   */\n      dup3\n        /* \"#utility.yul\":3377:3395   */\n      add\n        /* \"#utility.yul\":3369:3395   */\n      swap1\n      pop\n        /* \"#utility.yul\":3405:3476   */\n      tag_282\n        /* \"#utility.yul\":3473:3474   */\n      0x00\n        /* \"#utility.yul\":3462:3471   */\n      dup4\n        /* \"#utility.yul\":3458:3475   */\n      add\n        /* \"#utility.yul\":3449:3455   */\n      dup5\n        /* \"#utility.yul\":3405:3476   */\n      tag_209\n      jump\t// in\n    tag_282:\n        /* \"#utility.yul\":3261:3483   */\n      swap3\n      swap2\n      pop\n      pop\n      jump\t// out\n        /* \"#utility.yul\":3489:3963   */\n    tag_44:\n        /* \"#utility.yul\":3557:3563   */\n      0x00\n        /* \"#utility.yul\":3565:3571   */\n      0x00\n        /* \"#utility.yul\":3614:3616   */\n      0x40\n        /* \"#utility.yul\":3602:3611   */\n      dup4\n        /* \"#utility.yul\":3593:3600   */\n      dup6\n        /* \"#utility.yul\":3589:3612   */\n      sub\n        /* \"#utility.yul\":3585:3617   */\n      slt\n        /* \"#utility.yul\":3582:3701   */\n      iszero\n      tag_284\n      jumpi\n        /* \"#utility.yul\":3620:3699   */\n      tag_285\n      tag_200\n      jump\t// in\n    tag_285:\n        /* \"#utility.yul\":3582:3701   */\n    tag_284:\n        /* \"#utility.yul\":3740:3741   */\n      0x00\n        /* \"#utility.yul\":3765:3818   */\n      tag_286\n        /* \"#utility.yul\":3810:3817   */\n      dup6\n        /* \"#utility.yul\":3801:3807   */\n      dup3\n        /* \"#utility.yul\":3790:3799   */\n      dup7\n        /* \"#utility.yul\":3786:3808   */\n      add\n        /* \"#utility.yul\":3765:3818   */\n      tag_208\n      jump\t// in\n    tag_286:\n        /* \"#utility.yul\":3755:3818   */\n      swap3\n      pop\n        /* \"#utility.yul\":3711:3828   */\n      pop\n        /* \"#utility.yul\":3867:3869   */\n      0x20\n        /* \"#utility.yul\":3893:3946   */\n      tag_287\n        /* \"#utility.yul\":3938:3945   */\n      dup6\n        /* \"#utility.yul\":3929:3935   */\n      dup3\n        /* \"#utility.yul\":3918:3927   */\n      dup7\n        /* \"#utility.yul\":3914:3936   */\n      add\n        /* \"#utility.yul\":3893:3946   */\n      tag_208\n      jump\t// in\n    tag_287:\n        /* \"#utility.yul\":3883:3946   */\n      swap2\n      pop\n        /* \"#utility.yul\":3838:3956   */\n      pop\n        /* \"#utility.yul\":3489:3963   */\n      swap3\n      pop\n      swap3\n      swap1\n      pop\n      jump\t// out\n        /* \"#utility.yul\":3969:4149   */\n    tag_210:\n        /* \"#utility.yul\":4017:4094   */\n      0x4e487b7100000000000000000000000000000000000000000000000000000000\n        /* \"#utility.yul\":4014:4015   */\n      0x00\n        /* \"#utility.yul\":4007:4095   */\n      mstore\n        /* \"#utility.yul\":4114:4118   */\n      0x11\n        /* \"#utility.yul\":4111:4112   */\n      0x04\n        /* \"#utility.yul\":4104:4119   */\n      mstore\n        /* \"#utility.yul\":4138:4142   */\n      0x24\n        /* \"#utility.yul\":4135:4136   */\n      0x00\n        /* \"#utility.yul\":4128:4143   */\n      revert\n        /* \"#utility.yul\":4155:4565   */\n    tag_61:\n        /* \"#utility.yul\":4195:4202   */\n      0x00\n        /* \"#utility.yul\":4218:4238   */\n      tag_290\n        /* \"#utility.yul\":4236:4237   */\n      dup3\n        /* \"#utility.yul\":4218:4238   */\n      tag_205\n      jump\t// in\n    tag_290:\n        /* \"#utility.yul\":4213:4238   */\n      swap2\n      pop\n        /* \"#utility.yul\":4252:4272   */\n      tag_291\n        /* \"#utility.yul\":4270:4271   */\n      dup4\n        /* \"#utility.yul\":4252:4272   */\n      tag_205\n      jump\t// in\n    tag_291:\n        /* \"#utility.yul\":4247:4272   */\n      swap3\n      pop\n        /* \"#utility.yul\":4307:4308   */\n      dup3\n        /* \"#utility.yul\":4304:4305   */\n      dup3\n        /* \"#utility.yul\":4300:4309   */\n      mul\n        /* \"#utility.yul\":4329:4359   */\n      tag_292\n        /* \"#utility.yul\":4347:4358   */\n      dup2\n        /* \"#utility.yul\":4329:4359   */\n      tag_205\n      jump\t// in\n    tag_292:\n        /* \"#utility.yul\":4318:4359   */\n      swap2\n      pop\n        /* \"#utility.yul\":4508:4509   */\n      dup3\n        /* \"#utility.yul\":4499:4506   */\n      dup3\n        /* \"#utility.yul\":4495:4510   */\n      div\n        /* \"#utility.yul\":4492:4493   */\n      dup5\n        /* \"#utility.yul\":4489:4511   */\n      eq\n        /* \"#utility.yul\":4469:4470   */\n      dup4\n        /* \"#utility.yul\":4462:4471   */\n      iszero\n        /* \"#utility.yul\":4442:4525   */\n      or\n        /* \"#utility.yul\":4419:4558   */\n      tag_293\n      jumpi\n        /* \"#utility.yul\":4538:4556   */\n      tag_294\n      tag_210\n      jump\t// in\n    tag_294:\n        /* \"#utility.yul\":4419:4558   */\n    tag_293:\n        /* \"#utility.yul\":4203:4565   */\n      pop\n        /* \"#utility.yul\":4155:4565   */\n      swap3\n      swap2\n      pop\n      pop\n      jump\t// out\n        /* \"#utility.yul\":4571:4751   */\n    tag_211:\n        /* \"#utility.yul\":4619:4696   */\n      0x4e487b7100000000000000000000000000000000000000000000000000000000\n        /* \"#utility.yul\":4616:4617   */\n      0x00\n        /* \"#utility.yul\":4609:4697   */\n      mstore\n        /* \"#utility.yul\":4716:4720   */\n      0x12\n        /* \"#utility.yul\":4713:4714   */\n      0x04\n        /* \"#utility.yul\":4706:4721   */\n      mstore\n        /* \"#utility.yul\":4740:4744   */\n      0x24\n        /* \"#utility.yul\":4737:4738   */\n      0x00\n        /* \"#utility.yul\":4730:4745   */\n      revert\n        /* \"#utility.yul\":4757:4942   */\n    tag_63:\n        /* \"#utility.yul\":4797:4798   */\n      0x00\n        /* \"#utility.yul\":4814:4834   */\n      tag_297\n        /* \"#utility.yul\":4832:4833   */\n      dup3\n        /* \"#utility.yul\":4814:4834   */\n      tag_205\n      jump\t// in\n    tag_297:\n        /* \"#utility.yul\":4809:4834   */\n      swap2\n      pop\n        /* \"#utility.yul\":4848:4868   */\n      tag_298\n        /* \"#utility.yul\":4866:4867   */\n      dup4\n        /* \"#utility.yul\":4848:4868   */\n      tag_205\n      jump\t// in\n    tag_298:\n        /* \"#utility.yul\":4843:4868   */\n      swap3\n      pop\n        /* \"#utility.yul\":4887:4888   */\n      dup3\n        /* \"#utility.yul\":4877:4912   */\n      tag_299\n      jumpi\n        /* \"#utility.yul\":4892:4910   */\n      tag_300\n      tag_211\n      jump\t// in\n    tag_300:\n        /* \"#utility.yul\":4877:4912   */\n    tag_299:\n        /* \"#utility.yul\":4934:4935   */\n      dup3\n        /* \"#utility.yul\":4931:4932   */\n      dup3\n        /* \"#utility.yul\":4927:4936   */\n      div\n        /* \"#utility.yul\":4922:4936   */\n      swap1\n      pop\n        /* \"#utility.yul\":4757:4942   */\n      swap3\n      swap2\n      pop\n      pop\n      jump\t// out\n        /* \"#utility.yul\":4948:5117   */\n    tag_212:\n        /* \"#utility.yul\":5032:5043   */\n      0x00\n        /* \"#utility.yul\":5066:5072   */\n      dup3\n        /* \"#utility.yul\":5061:5064   */\n      dup3\n        /* \"#utility.yul\":5054:5073   */\n      mstore\n        /* \"#utility.yul\":5106:5110   */\n      0x20\n        /* \"#utility.yul\":5101:5104   */\n      dup3\n        /* \"#utility.yul\":5097:5111   */\n      add\n        /* \"#utility.yul\":5082:5111   */\n      swap1\n      pop\n        /* \"#utility.yul\":4948:5117   */\n      swap3\n      swap2\n      pop\n      pop\n      jump\t// out\n        /* \"#utility.yul\":5123:5294   */\n    tag_213:\n        /* \"#utility.yul\":5263:5286   */\n      0x496e76616c696420746f6b656e20616464726573730000000000000000000000\n        /* \"#utility.yul\":5259:5260   */\n      0x00\n        /* \"#utility.yul\":5251:5257   */\n      dup3\n        /* \"#utility.yul\":5247:5261   */\n      add\n        /* \"#utility.yul\":5240:5287   */\n      mstore\n        /* \"#utility.yul\":5123:5294   */\n      pop\n      jump\t// out\n        /* \"#utility.yul\":5300:5666   */\n    tag_214:\n        /* \"#utility.yul\":5442:5445   */\n      0x00\n        /* \"#utility.yul\":5463:5530   */\n      tag_304\n        /* \"#utility.yul\":5527:5529   */\n      0x15\n        /* \"#utility.yul\":5522:5525   */\n      dup4\n        /* \"#utility.yul\":5463:5530   */\n      tag_212\n      jump\t// in\n    tag_304:\n        /* \"#utility.yul\":5456:5530   */\n      swap2\n      pop\n        /* \"#utility.yul\":5539:5632   */\n      tag_305\n        /* \"#utility.yul\":5628:5631   */\n      dup3\n        /* \"#utility.yul\":5539:5632   */\n      tag_213\n      jump\t// in\n    tag_305:\n        /* \"#utility.yul\":5657:5659   */\n      0x20\n        /* \"#utility.yul\":5652:5655   */\n      dup3\n        /* \"#utility.yul\":5648:5660   */\n      add\n        /* \"#utility.yul\":5641:5660   */\n      swap1\n      pop\n        /* \"#utility.yul\":5300:5666   */\n      swap2\n      swap1\n      pop\n      jump\t// out\n        /* \"#utility.yul\":5672:6091   */\n    tag_70:\n        /* \"#utility.yul\":5838:5842   */\n      0x00\n        /* \"#utility.yul\":5876:5878   */\n      0x20\n        /* \"#utility.yul\":5865:5874   */\n      dup3\n        /* \"#utility.yul\":5861:5879   */\n      add\n        /* \"#utility.yul\":5853:5879   */\n      swap1\n      pop\n        /* \"#utility.yul\":5925:5934   */\n      dup2\n        /* \"#utility.yul\":5919:5923   */\n      dup2\n        /* \"#utility.yul\":5915:5935   */\n      sub\n        /* \"#utility.yul\":5911:5912   */\n      0x00\n        /* \"#utility.yul\":5900:5909   */\n      dup4\n        /* \"#utility.yul\":5896:5913   */\n      add\n        /* \"#utility.yul\":5889:5936   */\n      mstore\n        /* \"#utility.yul\":5953:6084   */\n      tag_307\n        /* \"#utility.yul\":6079:6083   */\n      dup2\n        /* \"#utility.yul\":5953:6084   */\n      tag_214\n      jump\t// in\n    tag_307:\n        /* \"#utility.yul\":5945:6084   */\n      swap1\n      pop\n        /* \"#utility.yul\":5672:6091   */\n      swap2\n      swap1\n      pop\n      jump\t// out\n        /* \"#utility.yul\":6097:6276   */\n    tag_215:\n        /* \"#utility.yul\":6237:6268   */\n      0x416d6f756e74206d7573742062652067726561746572207468616e2030000000\n        /* \"#utility.yul\":6233:6234   */\n      0x00\n        /* \"#utility.yul\":6225:6231   */\n      dup3\n        /* \"#utility.yul\":6221:6235   */\n      add\n        /* \"#utility.yul\":6214:6269   */\n      mstore\n        /* \"#utility.yul\":6097:6276   */\n      pop\n      jump\t// out\n        /* \"#utility.yul\":6282:6648   */\n    tag_216:\n        /* \"#utility.yul\":6424:6427   */\n      0x00\n        /* \"#utility.yul\":6445:6512   */\n      tag_310\n        /* \"#utility.yul\":6509:6511   */\n      0x1d\n        /* \"#utility.yul\":6504:6507   */\n      dup4\n        /* \"#utility.yul\":6445:6512   */\n      tag_212\n      jump\t// in\n    tag_310:\n        /* \"#utility.yul\":6438:6512   */\n      swap2\n      pop\n        /* \"#utility.yul\":6521:6614   */\n      tag_311\n        /* \"#utility.yul\":6610:6613   */\n      dup3\n        /* \"#utility.yul\":6521:6614   */\n      tag_215\n      jump\t// in\n    tag_311:\n        /* \"#utility.yul\":6639:6641   */\n      0x20\n        /* \"#utility.yul\":6634:6637   */\n      dup3\n        /* \"#utility.yul\":6630:6642   */\n      add\n        /* \"#utility.yul\":6623:6642   */\n      swap1\n      pop\n        /* \"#utility.yul\":6282:6648   */\n      swap2\n      swap1\n      pop\n      jump\t// out\n        /* \"#utility.yul\":6654:7073   */\n    tag_80:\n        /* \"#utility.yul\":6820:6824   */\n      0x00\n        /* \"#utility.yul\":6858:6860   */\n      0x20\n        /* \"#utility.yul\":6847:6856   */\n      dup3\n        /* \"#utility.yul\":6843:6861   */\n      add\n        /* \"#utility.yul\":6835:6861   */\n      swap1\n      pop\n        /* \"#utility.yul\":6907:6916   */\n      dup2\n        /* \"#utility.yul\":6901:6905   */\n      dup2\n        /* \"#utility.yul\":6897:6917   */\n      sub\n        /* \"#utility.yul\":6893:6894   */\n      0x00\n        /* \"#utility.yul\":6882:6891   */\n      dup4\n        /* \"#utility.yul\":6878:6895   */\n      add\n        /* \"#utility.yul\":6871:6918   */\n      mstore\n        /* \"#utility.yul\":6935:7066   */\n      tag_313\n        /* \"#utility.yul\":7061:7065   */\n      dup2\n        /* \"#utility.yul\":6935:7066   */\n      tag_216\n      jump\t// in\n    tag_313:\n        /* \"#utility.yul\":6927:7066   */\n      swap1\n      pop\n        /* \"#utility.yul\":6654:7073   */\n      swap2\n      swap1\n      pop\n      jump\t// out\n        /* \"#utility.yul\":7079:7521   */\n    tag_82:\n        /* \"#utility.yul\":7228:7232   */\n      0x00\n        /* \"#utility.yul\":7266:7268   */\n      0x60\n        /* \"#utility.yul\":7255:7264   */\n      dup3\n        /* \"#utility.yul\":7251:7269   */\n      add\n        /* \"#utility.yul\":7243:7269   */\n      swap1\n      pop\n        /* \"#utility.yul\":7279:7350   */\n      tag_315\n        /* \"#utility.yul\":7347:7348   */\n      0x00\n        /* \"#utility.yul\":7336:7345   */\n      dup4\n        /* \"#utility.yul\":7332:7349   */\n      add\n        /* \"#utility.yul\":7323:7329   */\n      dup7\n        /* \"#utility.yul\":7279:7350   */\n      tag_209\n      jump\t// in\n    tag_315:\n        /* \"#utility.yul\":7360:7432   */\n      tag_316\n        /* \"#utility.yul\":7428:7430   */\n      0x20\n        /* \"#utility.yul\":7417:7426   */\n      dup4\n        /* \"#utility.yul\":7413:7431   */\n      add\n        /* \"#utility.yul\":7404:7410   */\n      dup6\n        /* \"#utility.yul\":7360:7432   */\n      tag_209\n      jump\t// in\n    tag_316:\n        /* \"#utility.yul\":7442:7514   */\n      tag_317\n        /* \"#utility.yul\":7510:7512   */\n      0x40\n        /* \"#utility.yul\":7499:7508   */\n      dup4\n        /* \"#utility.yul\":7495:7513   */\n      add\n        /* \"#utility.yul\":7486:7492   */\n      dup5\n        /* \"#utility.yul\":7442:7514   */\n      tag_206\n      jump\t// in\n    tag_317:\n        /* \"#utility.yul\":7079:7521   */\n      swap5\n      swap4\n      pop\n      pop\n      pop\n      pop\n      jump\t// out\n        /* \"#utility.yul\":7527:7617   */\n    tag_217:\n        /* \"#utility.yul\":7561:7568   */\n      0x00\n        /* \"#utility.yul\":7604:7609   */\n      dup2\n        /* \"#utility.yul\":7597:7610   */\n      iszero\n        /* \"#utility.yul\":7590:7611   */\n      iszero\n        /* \"#utility.yul\":7579:7611   */\n      swap1\n      pop\n        /* \"#utility.yul\":7527:7617   */\n      swap2\n      swap1\n      pop\n      jump\t// out\n        /* \"#utility.yul\":7623:7739   */\n    tag_218:\n        /* \"#utility.yul\":7693:7714   */\n      tag_320\n        /* \"#utility.yul\":7708:7713   */\n      dup2\n        /* \"#utility.yul\":7693:7714   */\n      tag_217\n      jump\t// in\n    tag_320:\n        /* \"#utility.yul\":7686:7691   */\n      dup2\n        /* \"#utility.yul\":7683:7715   */\n      eq\n        /* \"#utility.yul\":7673:7733   */\n      tag_321\n      jumpi\n        /* \"#utility.yul\":7729:7730   */\n      0x00\n        /* \"#utility.yul\":7726:7727   */\n      0x00\n        /* \"#utility.yul\":7719:7731   */\n      revert\n        /* \"#utility.yul\":7673:7733   */\n    tag_321:\n        /* \"#utility.yul\":7623:7739   */\n      pop\n      jump\t// out\n        /* \"#utility.yul\":7745:7882   */\n    tag_219:\n        /* \"#utility.yul\":7799:7804   */\n      0x00\n        /* \"#utility.yul\":7830:7836   */\n      dup2\n        /* \"#utility.yul\":7824:7837   */\n      mload\n        /* \"#utility.yul\":7815:7837   */\n      swap1\n      pop\n        /* \"#utility.yul\":7846:7876   */\n      tag_323\n        /* \"#utility.yul\":7870:7875   */\n      dup2\n        /* \"#utility.yul\":7846:7876   */\n      tag_218\n      jump\t// in\n    tag_323:\n        /* \"#utility.yul\":7745:7882   */\n      swap3\n      swap2\n      pop\n      pop\n      jump\t// out\n        /* \"#utility.yul\":7888:8233   */\n    tag_86:\n        /* \"#utility.yul\":7955:7961   */\n      0x00\n        /* \"#utility.yul\":8004:8006   */\n      0x20\n        /* \"#utility.yul\":7992:8001   */\n      dup3\n        /* \"#utility.yul\":7983:7990   */\n      dup5\n        /* \"#utility.yul\":7979:8002   */\n      sub\n        /* \"#utility.yul\":7975:8007   */\n      slt\n        /* \"#utility.yul\":7972:8091   */\n      iszero\n      tag_325\n      jumpi\n        /* \"#utility.yul\":8010:8089   */\n      tag_326\n      tag_200\n      jump\t// in\n    tag_326:\n        /* \"#utility.yul\":7972:8091   */\n    tag_325:\n        /* \"#utility.yul\":8130:8131   */\n      0x00\n        /* \"#utility.yul\":8155:8216   */\n      tag_327\n        /* \"#utility.yul\":8208:8215   */\n      dup5\n        /* \"#utility.yul\":8199:8205   */\n      dup3\n        /* \"#utility.yul\":8188:8197   */\n      dup6\n        /* \"#utility.yul\":8184:8206   */\n      add\n        /* \"#utility.yul\":8155:8216   */\n      tag_219\n      jump\t// in\n    tag_327:\n        /* \"#utility.yul\":8145:8216   */\n      swap2\n      pop\n        /* \"#utility.yul\":8101:8226   */\n      pop\n        /* \"#utility.yul\":7888:8233   */\n      swap3\n      swap2\n      pop\n      pop\n      jump\t// out\n        /* \"#utility.yul\":8239:8414   */\n    tag_220:\n        /* \"#utility.yul\":8379:8406   */\n      0x5472616e73666572206f6620546f6b656e42206661696c656400000000000000\n        /* \"#utility.yul\":8375:8376   */\n      0x00\n        /* \"#utility.yul\":8367:8373   */\n      dup3\n        /* \"#utility.yul\":8363:8377   */\n      add\n        /* \"#utility.yul\":8356:8407   */\n      mstore\n        /* \"#utility.yul\":8239:8414   */\n      pop\n      jump\t// out\n        /* \"#utility.yul\":8420:8786   */\n    tag_221:\n        /* \"#utility.yul\":8562:8565   */\n      0x00\n        /* \"#utility.yul\":8583:8650   */\n      tag_330\n        /* \"#utility.yul\":8647:8649   */\n      0x19\n        /* \"#utility.yul\":8642:8645   */\n      dup4\n        /* \"#utility.yul\":8583:8650   */\n      tag_212\n      jump\t// in\n    tag_330:\n        /* \"#utility.yul\":8576:8650   */\n      swap2\n      pop\n        /* \"#utility.yul\":8659:8752   */\n      tag_331\n        /* \"#utility.yul\":8748:8751   */\n      dup3\n        /* \"#utility.yul\":8659:8752   */\n      tag_220\n      jump\t// in\n    tag_331:\n        /* \"#utility.yul\":8777:8779   */\n      0x20\n        /* \"#utility.yul\":8772:8775   */\n      dup3\n        /* \"#utility.yul\":8768:8780   */\n      add\n        /* \"#utility.yul\":8761:8780   */\n      swap1\n      pop\n        /* \"#utility.yul\":8420:8786   */\n      swap2\n      swap1\n      pop\n      jump\t// out\n        /* \"#utility.yul\":8792:9211   */\n    tag_89:\n        /* \"#utility.yul\":8958:8962   */\n      0x00\n        /* \"#utility.yul\":8996:8998   */\n      0x20\n        /* \"#utility.yul\":8985:8994   */\n      dup3\n        /* \"#utility.yul\":8981:8999   */\n      add\n        /* \"#utility.yul\":8973:8999   */\n      swap1\n      pop\n        /* \"#utility.yul\":9045:9054   */\n      dup2\n        /* \"#utility.yul\":9039:9043   */\n      dup2\n        /* \"#utility.yul\":9035:9055   */\n      sub\n        /* \"#utility.yul\":9031:9032   */\n      0x00\n        /* \"#utility.yul\":9020:9029   */\n      dup4\n        /* \"#utility.yul\":9016:9033   */\n      add\n        /* \"#utility.yul\":9009:9056   */\n      mstore\n        /* \"#utility.yul\":9073:9204   */\n      tag_333\n        /* \"#utility.yul\":9199:9203   */\n      dup2\n        /* \"#utility.yul\":9073:9204   */\n      tag_221\n      jump\t// in\n    tag_333:\n        /* \"#utility.yul\":9065:9204   */\n      swap1\n      pop\n        /* \"#utility.yul\":8792:9211   */\n      swap2\n      swap1\n      pop\n      jump\t// out\n        /* \"#utility.yul\":9217:9408   */\n    tag_93:\n        /* \"#utility.yul\":9257:9260   */\n      0x00\n        /* \"#utility.yul\":9276:9296   */\n      tag_335\n        /* \"#utility.yul\":9294:9295   */\n      dup3\n        /* \"#utility.yul\":9276:9296   */\n      tag_205\n      jump\t// in\n    tag_335:\n        /* \"#utility.yul\":9271:9296   */\n      swap2\n      pop\n        /* \"#utility.yul\":9310:9330   */\n      tag_336\n        /* \"#utility.yul\":9328:9329   */\n      dup4\n        /* \"#utility.yul\":9310:9330   */\n      tag_205\n      jump\t// in\n    tag_336:\n        /* \"#utility.yul\":9305:9330   */\n      swap3\n      pop\n        /* \"#utility.yul\":9353:9354   */\n      dup3\n        /* \"#utility.yul\":9350:9351   */\n      dup3\n        /* \"#utility.yul\":9346:9355   */\n      add\n        /* \"#utility.yul\":9339:9355   */\n      swap1\n      pop\n        /* \"#utility.yul\":9374:9377   */\n      dup1\n        /* \"#utility.yul\":9371:9372   */\n      dup3\n        /* \"#utility.yul\":9368:9378   */\n      gt\n        /* \"#utility.yul\":9365:9401   */\n      iszero\n      tag_337\n      jumpi\n        /* \"#utility.yul\":9381:9399   */\n      tag_338\n      tag_210\n      jump\t// in\n    tag_338:\n        /* \"#utility.yul\":9365:9401   */\n    tag_337:\n        /* \"#utility.yul\":9217:9408   */\n      swap3\n      swap2\n      pop\n      pop\n      jump\t// out\n        /* \"#utility.yul\":9414:9608   */\n    tag_95:\n        /* \"#utility.yul\":9454:9458   */\n      0x00\n        /* \"#utility.yul\":9474:9494   */\n      tag_340\n        /* \"#utility.yul\":9492:9493   */\n      dup3\n        /* \"#utility.yul\":9474:9494   */\n      tag_205\n      jump\t// in\n    tag_340:\n        /* \"#utility.yul\":9469:9494   */\n      swap2\n      pop\n        /* \"#utility.yul\":9508:9528   */\n      tag_341\n        /* \"#utility.yul\":9526:9527   */\n      dup4\n        /* \"#utility.yul\":9508:9528   */\n      tag_205\n      jump\t// in\n    tag_341:\n        /* \"#utility.yul\":9503:9528   */\n      swap3\n      pop\n        /* \"#utility.yul\":9552:9553   */\n      dup3\n        /* \"#utility.yul\":9549:9550   */\n      dup3\n        /* \"#utility.yul\":9545:9554   */\n      sub\n        /* \"#utility.yul\":9537:9554   */\n      swap1\n      pop\n        /* \"#utility.yul\":9576:9577   */\n      dup2\n        /* \"#utility.yul\":9570:9574   */\n      dup2\n        /* \"#utility.yul\":9567:9578   */\n      gt\n        /* \"#utility.yul\":9564:9601   */\n      iszero\n      tag_342\n      jumpi\n        /* \"#utility.yul\":9581:9599   */\n      tag_343\n      tag_210\n      jump\t// in\n    tag_343:\n        /* \"#utility.yul\":9564:9601   */\n    tag_342:\n        /* \"#utility.yul\":9414:9608   */\n      swap3\n      swap2\n      pop\n      pop\n      jump\t// out\n        /* \"#utility.yul\":9614:9946   */\n    tag_97:\n        /* \"#utility.yul\":9735:9739   */\n      0x00\n        /* \"#utility.yul\":9773:9775   */\n      0x40\n        /* \"#utility.yul\":9762:9771   */\n      dup3\n        /* \"#utility.yul\":9758:9776   */\n      add\n        /* \"#utility.yul\":9750:9776   */\n      swap1\n      pop\n        /* \"#utility.yul\":9786:9857   */\n      tag_345\n        /* \"#utility.yul\":9854:9855   */\n      0x00\n        /* \"#utility.yul\":9843:9852   */\n      dup4\n        /* \"#utility.yul\":9839:9856   */\n      add\n        /* \"#utility.yul\":9830:9836   */\n      dup6\n        /* \"#utility.yul\":9786:9857   */\n      tag_209\n      jump\t// in\n    tag_345:\n        /* \"#utility.yul\":9867:9939   */\n      tag_346\n        /* \"#utility.yul\":9935:9937   */\n      0x20\n        /* \"#utility.yul\":9924:9933   */\n      dup4\n        /* \"#utility.yul\":9920:9938   */\n      add\n        /* \"#utility.yul\":9911:9917   */\n      dup5\n        /* \"#utility.yul\":9867:9939   */\n      tag_206\n      jump\t// in\n    tag_346:\n        /* \"#utility.yul\":9614:9946   */\n      swap4\n      swap3\n      pop\n      pop\n      pop\n      jump\t// out\n        /* \"#utility.yul\":9952:10127   */\n    tag_222:\n        /* \"#utility.yul\":10092:10119   */\n      0x5472616e73666572206f6620546f6b656e41206661696c656400000000000000\n        /* \"#utility.yul\":10088:10089   */\n      0x00\n        /* \"#utility.yul\":10080:10086   */\n      dup3\n        /* \"#utility.yul\":10076:10090   */\n      add\n        /* \"#utility.yul\":10069:10120   */\n      mstore\n        /* \"#utility.yul\":9952:10127   */\n      pop\n      jump\t// out\n        /* \"#utility.yul\":10133:10499   */\n    tag_223:\n        /* \"#utility.yul\":10275:10278   */\n      0x00\n        /* \"#utility.yul\":10296:10363   */\n      tag_349\n        /* \"#utility.yul\":10360:10362   */\n      0x19\n        /* \"#utility.yul\":10355:10358   */\n      dup4\n        /* \"#utility.yul\":10296:10363   */\n      tag_212\n      jump\t// in\n    tag_349:\n        /* \"#utility.yul\":10289:10363   */\n      swap2\n      pop\n        /* \"#utility.yul\":10372:10465   */\n      tag_350\n        /* \"#utility.yul\":10461:10464   */\n      dup3\n        /* \"#utility.yul\":10372:10465   */\n      tag_222\n      jump\t// in\n    tag_350:\n        /* \"#utility.yul\":10490:10492   */\n      0x20\n        /* \"#utility.yul\":10485:10488   */\n      dup3\n        /* \"#utility.yul\":10481:10493   */\n      add\n        /* \"#utility.yul\":10474:10493   */\n      swap1\n      pop\n        /* \"#utility.yul\":10133:10499   */\n      swap2\n      swap1\n      pop\n      jump\t// out\n        /* \"#utility.yul\":10505:10924   */\n    tag_103:\n        /* \"#utility.yul\":10671:10675   */\n      0x00\n        /* \"#utility.yul\":10709:10711   */\n      0x20\n        /* \"#utility.yul\":10698:10707   */\n      dup3\n        /* \"#utility.yul\":10694:10712   */\n      add\n        /* \"#utility.yul\":10686:10712   */\n      swap1\n      pop\n        /* \"#utility.yul\":10758:10767   */\n      dup2\n        /* \"#utility.yul\":10752:10756   */\n      dup2\n        /* \"#utility.yul\":10748:10768   */\n      sub\n        /* \"#utility.yul\":10744:10745   */\n      0x00\n        /* \"#utility.yul\":10733:10742   */\n      dup4\n        /* \"#utility.yul\":10729:10746   */\n      add\n        /* \"#utility.yul\":10722:10769   */\n      mstore\n        /* \"#utility.yul\":10786:10917   */\n      tag_352\n        /* \"#utility.yul\":10912:10916   */\n      dup2\n        /* \"#utility.yul\":10786:10917   */\n      tag_223\n      jump\t// in\n    tag_352:\n        /* \"#utility.yul\":10778:10917   */\n      swap1\n      pop\n        /* \"#utility.yul\":10505:10924   */\n      swap2\n      swap1\n      pop\n      jump\t// out\n        /* \"#utility.yul\":10930:11084   */\n    tag_224:\n        /* \"#utility.yul\":11070:11076   */\n      0x422d3e4100000000000000000000000000000000000000000000000000000000\n        /* \"#utility.yul\":11066:11067   */\n      0x00\n        /* \"#utility.yul\":11058:11064   */\n      dup3\n        /* \"#utility.yul\":11054:11068   */\n      add\n        /* \"#utility.yul\":11047:11077   */\n      mstore\n        /* \"#utility.yul\":10930:11084   */\n      pop\n      jump\t// out\n        /* \"#utility.yul\":11090:11455   */\n    tag_225:\n        /* \"#utility.yul\":11232:11235   */\n      0x00\n        /* \"#utility.yul\":11253:11319   */\n      tag_355\n        /* \"#utility.yul\":11317:11318   */\n      0x04\n        /* \"#utility.yul\":11312:11315   */\n      dup4\n        /* \"#utility.yul\":11253:11319   */\n      tag_212\n      jump\t// in\n    tag_355:\n        /* \"#utility.yul\":11246:11319   */\n      swap2\n      pop\n        /* \"#utility.yul\":11328:11421   */\n      tag_356\n        /* \"#utility.yul\":11417:11420   */\n      dup3\n        /* \"#utility.yul\":11328:11421   */\n      tag_224\n      jump\t// in\n    tag_356:\n        /* \"#utility.yul\":11446:11448   */\n      0x20\n        /* \"#utility.yul\":11441:11444   */\n      dup3\n        /* \"#utility.yul\":11437:11449   */\n      add\n        /* \"#utility.yul\":11430:11449   */\n      swap1\n      pop\n        /* \"#utility.yul\":11090:11455   */\n      swap2\n      swap1\n      pop\n      jump\t// out\n        /* \"#utility.yul\":11461:12100   */\n    tag_105:\n        /* \"#utility.yul\":11683:11687   */\n      0x00\n        /* \"#utility.yul\":11721:11723   */\n      0x60\n        /* \"#utility.yul\":11710:11719   */\n      dup3\n        /* \"#utility.yul\":11706:11724   */\n      add\n        /* \"#utility.yul\":11698:11724   */\n      swap1\n      pop\n        /* \"#utility.yul\":11770:11779   */\n      dup2\n        /* \"#utility.yul\":11764:11768   */\n      dup2\n        /* \"#utility.yul\":11760:11780   */\n      sub\n        /* \"#utility.yul\":11756:11757   */\n      0x00\n        /* \"#utility.yul\":11745:11754   */\n      dup4\n        /* \"#utility.yul\":11741:11758   */\n      add\n        /* \"#utility.yul\":11734:11781   */\n      mstore\n        /* \"#utility.yul\":11798:11929   */\n      tag_358\n        /* \"#utility.yul\":11924:11928   */\n      dup2\n        /* \"#utility.yul\":11798:11929   */\n      tag_225\n      jump\t// in\n    tag_358:\n        /* \"#utility.yul\":11790:11929   */\n      swap1\n      pop\n        /* \"#utility.yul\":11939:12011   */\n      tag_359\n        /* \"#utility.yul\":12007:12009   */\n      0x20\n        /* \"#utility.yul\":11996:12005   */\n      dup4\n        /* \"#utility.yul\":11992:12010   */\n      add\n        /* \"#utility.yul\":11983:11989   */\n      dup6\n        /* \"#utility.yul\":11939:12011   */\n      tag_206\n      jump\t// in\n    tag_359:\n        /* \"#utility.yul\":12021:12093   */\n      tag_360\n        /* \"#utility.yul\":12089:12091   */\n      0x40\n        /* \"#utility.yul\":12078:12087   */\n      dup4\n        /* \"#utility.yul\":12074:12092   */\n      add\n        /* \"#utility.yul\":12065:12071   */\n      dup5\n        /* \"#utility.yul\":12021:12093   */\n      tag_206\n      jump\t// in\n    tag_360:\n        /* \"#utility.yul\":11461:12100   */\n      swap4\n      swap3\n      pop\n      pop\n      pop\n      jump\t// out\n        /* \"#utility.yul\":12106:12438   */\n    tag_125:\n        /* \"#utility.yul\":12227:12231   */\n      0x00\n        /* \"#utility.yul\":12265:12267   */\n      0x40\n        /* \"#utility.yul\":12254:12263   */\n      dup3\n        /* \"#utility.yul\":12250:12268   */\n      add\n        /* \"#utility.yul\":12242:12268   */\n      swap1\n      pop\n        /* \"#utility.yul\":12278:12349   */\n      tag_362\n        /* \"#utility.yul\":12346:12347   */\n      0x00\n        /* \"#utility.yul\":12335:12344   */\n      dup4\n        /* \"#utility.yul\":12331:12348   */\n      add\n        /* \"#utility.yul\":12322:12328   */\n      dup6\n        /* \"#utility.yul\":12278:12349   */\n      tag_206\n      jump\t// in\n    tag_362:\n        /* \"#utility.yul\":12359:12431   */\n      tag_363\n        /* \"#utility.yul\":12427:12429   */\n      0x20\n        /* \"#utility.yul\":12416:12425   */\n      dup4\n        /* \"#utility.yul\":12412:12430   */\n      add\n        /* \"#utility.yul\":12403:12409   */\n      dup5\n        /* \"#utility.yul\":12359:12431   */\n      tag_206\n      jump\t// in\n    tag_363:\n        /* \"#utility.yul\":12106:12438   */\n      swap4\n      swap3\n      pop\n      pop\n      pop\n      jump\t// out\n        /* \"#utility.yul\":12444:12621   */\n    tag_226:\n        /* \"#utility.yul\":12584:12613   */\n      0x4e6f7420656e6f75676820546f6b656e41206c69717569646974790000000000\n        /* \"#utility.yul\":12580:12581   */\n      0x00\n        /* \"#utility.yul\":12572:12578   */\n      dup3\n        /* \"#utility.yul\":12568:12582   */\n      add\n        /* \"#utility.yul\":12561:12614   */\n      mstore\n        /* \"#utility.yul\":12444:12621   */\n      pop\n      jump\t// out\n        /* \"#utility.yul\":12627:12993   */\n    tag_227:\n        /* \"#utility.yul\":12769:12772   */\n      0x00\n        /* \"#utility.yul\":12790:12857   */\n      tag_366\n        /* \"#utility.yul\":12854:12856   */\n      0x1b\n        /* \"#utility.yul\":12849:12852   */\n      dup4\n        /* \"#utility.yul\":12790:12857   */\n      tag_212\n      jump\t// in\n    tag_366:\n        /* \"#utility.yul\":12783:12857   */\n      swap2\n      pop\n        /* \"#utility.yul\":12866:12959   */\n      tag_367\n        /* \"#utility.yul\":12955:12958   */\n      dup3\n        /* \"#utility.yul\":12866:12959   */\n      tag_226\n      jump\t// in\n    tag_367:\n        /* \"#utility.yul\":12984:12986   */\n      0x20\n        /* \"#utility.yul\":12979:12982   */\n      dup3\n        /* \"#utility.yul\":12975:12987   */\n      add\n        /* \"#utility.yul\":12968:12987   */\n      swap1\n      pop\n        /* \"#utility.yul\":12627:12993   */\n      swap2\n      swap1\n      pop\n      jump\t// out\n        /* \"#utility.yul\":12999:13418   */\n    tag_132:\n        /* \"#utility.yul\":13165:13169   */\n      0x00\n        /* \"#utility.yul\":13203:13205   */\n      0x20\n        /* \"#utility.yul\":13192:13201   */\n      dup3\n        /* \"#utility.yul\":13188:13206   */\n      add\n        /* \"#utility.yul\":13180:13206   */\n      swap1\n      pop\n        /* \"#utility.yul\":13252:13261   */\n      dup2\n        /* \"#utility.yul\":13246:13250   */\n      dup2\n        /* \"#utility.yul\":13242:13262   */\n      sub\n        /* \"#utility.yul\":13238:13239   */\n      0x00\n        /* \"#utility.yul\":13227:13236   */\n      dup4\n        /* \"#utility.yul\":13223:13240   */\n      add\n        /* \"#utility.yul\":13216:13263   */\n      mstore\n        /* \"#utility.yul\":13280:13411   */\n      tag_369\n        /* \"#utility.yul\":13406:13410   */\n      dup2\n        /* \"#utility.yul\":13280:13411   */\n      tag_227\n      jump\t// in\n    tag_369:\n        /* \"#utility.yul\":13272:13411   */\n      swap1\n      pop\n        /* \"#utility.yul\":12999:13418   */\n      swap2\n      swap1\n      pop\n      jump\t// out\n        /* \"#utility.yul\":13424:13601   */\n    tag_228:\n        /* \"#utility.yul\":13564:13593   */\n      0x4e6f7420656e6f75676820546f6b656e42206c69717569646974790000000000\n        /* \"#utility.yul\":13560:13561   */\n      0x00\n        /* \"#utility.yul\":13552:13558   */\n      dup3\n        /* \"#utility.yul\":13548:13562   */\n      add\n        /* \"#utility.yul\":13541:13594   */\n      mstore\n        /* \"#utility.yul\":13424:13601   */\n      pop\n      jump\t// out\n        /* \"#utility.yul\":13607:13973   */\n    tag_229:\n        /* \"#utility.yul\":13749:13752   */\n      0x00\n        /* \"#utility.yul\":13770:13837   */\n      tag_372\n        /* \"#utility.yul\":13834:13836   */\n      0x1b\n        /* \"#utility.yul\":13829:13832   */\n      dup4\n        /* \"#utility.yul\":13770:13837   */\n      tag_212\n      jump\t// in\n    tag_372:\n        /* \"#utility.yul\":13763:13837   */\n      swap2\n      pop\n        /* \"#utility.yul\":13846:13939   */\n      tag_373\n        /* \"#utility.yul\":13935:13938   */\n      dup3\n        /* \"#utility.yul\":13846:13939   */\n      tag_228\n      jump\t// in\n    tag_373:\n        /* \"#utility.yul\":13964:13966   */\n      0x20\n        /* \"#utility.yul\":13959:13962   */\n      dup3\n        /* \"#utility.yul\":13955:13967   */\n      add\n        /* \"#utility.yul\":13948:13967   */\n      swap1\n      pop\n        /* \"#utility.yul\":13607:13973   */\n      swap2\n      swap1\n      pop\n      jump\t// out\n        /* \"#utility.yul\":13979:14398   */\n    tag_143:\n        /* \"#utility.yul\":14145:14149   */\n      0x00\n        /* \"#utility.yul\":14183:14185   */\n      0x20\n        /* \"#utility.yul\":14172:14181   */\n      dup3\n        /* \"#utility.yul\":14168:14186   */\n      add\n        /* \"#utility.yul\":14160:14186   */\n      swap1\n      pop\n        /* \"#utility.yul\":14232:14241   */\n      dup2\n        /* \"#utility.yul\":14226:14230   */\n      dup2\n        /* \"#utility.yul\":14222:14242   */\n      sub\n        /* \"#utility.yul\":14218:14219   */\n      0x00\n        /* \"#utility.yul\":14207:14216   */\n      dup4\n        /* \"#utility.yul\":14203:14220   */\n      add\n        /* \"#utility.yul\":14196:14243   */\n      mstore\n        /* \"#utility.yul\":14260:14391   */\n      tag_375\n        /* \"#utility.yul\":14386:14390   */\n      dup2\n        /* \"#utility.yul\":14260:14391   */\n      tag_229\n      jump\t// in\n    tag_375:\n        /* \"#utility.yul\":14252:14391   */\n      swap1\n      pop\n        /* \"#utility.yul\":13979:14398   */\n      swap2\n      swap1\n      pop\n      jump\t// out\n        /* \"#utility.yul\":14404:14558   */\n    tag_230:\n        /* \"#utility.yul\":14544:14550   */\n      0x412d3e4200000000000000000000000000000000000000000000000000000000\n        /* \"#utility.yul\":14540:14541   */\n      0x00\n        /* \"#utility.yul\":14532:14538   */\n      dup3\n        /* \"#utility.yul\":14528:14542   */\n      add\n        /* \"#utility.yul\":14521:14551   */\n      mstore\n        /* \"#utility.yul\":14404:14558   */\n      pop\n      jump\t// out\n        /* \"#utility.yul\":14564:14929   */\n    tag_231:\n        /* \"#utility.yul\":14706:14709   */\n      0x00\n        /* \"#utility.yul\":14727:14793   */\n      tag_378\n        /* \"#utility.yul\":14791:14792   */\n      0x04\n        /* \"#utility.yul\":14786:14789   */\n      dup4\n        /* \"#utility.yul\":14727:14793   */\n      tag_212\n      jump\t// in\n    tag_378:\n        /* \"#utility.yul\":14720:14793   */\n      swap2\n      pop\n        /* \"#utility.yul\":14802:14895   */\n      tag_379\n        /* \"#utility.yul\":14891:14894   */\n      dup3\n        /* \"#utility.yul\":14802:14895   */\n      tag_230\n      jump\t// in\n    tag_379:\n        /* \"#utility.yul\":14920:14922   */\n      0x20\n        /* \"#utility.yul\":14915:14918   */\n      dup3\n        /* \"#utility.yul\":14911:14923   */\n      add\n        /* \"#utility.yul\":14904:14923   */\n      swap1\n      pop\n        /* \"#utility.yul\":14564:14929   */\n      swap2\n      swap1\n      pop\n      jump\t// out\n        /* \"#utility.yul\":14935:15574   */\n    tag_171:\n        /* \"#utility.yul\":15157:15161   */\n      0x00\n        /* \"#utility.yul\":15195:15197   */\n      0x60\n        /* \"#utility.yul\":15184:15193   */\n      dup3\n        /* \"#utility.yul\":15180:15198   */\n      add\n        /* \"#utility.yul\":15172:15198   */\n      swap1\n      pop\n        /* \"#utility.yul\":15244:15253   */\n      dup2\n        /* \"#utility.yul\":15238:15242   */\n      dup2\n        /* \"#utility.yul\":15234:15254   */\n      sub\n        /* \"#utility.yul\":15230:15231   */\n      0x00\n        /* \"#utility.yul\":15219:15228   */\n      dup4\n        /* \"#utility.yul\":15215:15232   */\n      add\n        /* \"#utility.yul\":15208:15255   */\n      mstore\n        /* \"#utility.yul\":15272:15403   */\n      tag_381\n        /* \"#utility.yul\":15398:15402   */\n      dup2\n        /* \"#utility.yul\":15272:15403   */\n      tag_231\n      jump\t// in\n    tag_381:\n        /* \"#utility.yul\":15264:15403   */\n      swap1\n      pop\n        /* \"#utility.yul\":15413:15485   */\n      tag_382\n        /* \"#utility.yul\":15481:15483   */\n      0x20\n        /* \"#utility.yul\":15470:15479   */\n      dup4\n        /* \"#utility.yul\":15466:15484   */\n      add\n        /* \"#utility.yul\":15457:15463   */\n      dup6\n        /* \"#utility.yul\":15413:15485   */\n      tag_206\n      jump\t// in\n    tag_382:\n        /* \"#utility.yul\":15495:15567   */\n      tag_383\n        /* \"#utility.yul\":15563:15565   */\n      0x40\n        /* \"#utility.yul\":15552:15561   */\n      dup4\n        /* \"#utility.yul\":15548:15566   */\n      add\n        /* \"#utility.yul\":15539:15545   */\n      dup5\n        /* \"#utility.yul\":15495:15567   */\n      tag_206\n      jump\t// in\n    tag_383:\n        /* \"#utility.yul\":14935:15574   */\n      swap4\n      swap3\n      pop\n      pop\n      pop\n      jump\t// out\n        /* \"#utility.yul\":15580:15805   */\n    tag_232:\n        /* \"#utility.yul\":15720:15754   */\n      0x4f776e61626c653a206e6577206f776e657220697320746865207a65726f2061\n        /* \"#utility.yul\":15716:15717   */\n      0x00\n        /* \"#utility.yul\":15708:15714   */\n      dup3\n        /* \"#utility.yul\":15704:15718   */\n      add\n        /* \"#utility.yul\":15697:15755   */\n      mstore\n        /* \"#utility.yul\":15789:15797   */\n      0x6464726573730000000000000000000000000000000000000000000000000000\n        /* \"#utility.yul\":15784:15786   */\n      0x20\n        /* \"#utility.yul\":15776:15782   */\n      dup3\n        /* \"#utility.yul\":15772:15787   */\n      add\n        /* \"#utility.yul\":15765:15798   */\n      mstore\n        /* \"#utility.yul\":15580:15805   */\n      pop\n      jump\t// out\n        /* \"#utility.yul\":15811:16177   */\n    tag_233:\n        /* \"#utility.yul\":15953:15956   */\n      0x00\n        /* \"#utility.yul\":15974:16041   */\n      tag_386\n        /* \"#utility.yul\":16038:16040   */\n      0x26\n        /* \"#utility.yul\":16033:16036   */\n      dup4\n        /* \"#utility.yul\":15974:16041   */\n      tag_212\n      jump\t// in\n    tag_386:\n        /* \"#utility.yul\":15967:16041   */\n      swap2\n      pop\n        /* \"#utility.yul\":16050:16143   */\n      tag_387\n        /* \"#utility.yul\":16139:16142   */\n      dup3\n        /* \"#utility.yul\":16050:16143   */\n      tag_232\n      jump\t// in\n    tag_387:\n        /* \"#utility.yul\":16168:16170   */\n      0x40\n        /* \"#utility.yul\":16163:16166   */\n      dup3\n        /* \"#utility.yul\":16159:16171   */\n      add\n        /* \"#utility.yul\":16152:16171   */\n      swap1\n      pop\n        /* \"#utility.yul\":15811:16177   */\n      swap2\n      swap1\n      pop\n      jump\t// out\n        /* \"#utility.yul\":16183:16602   */\n    tag_177:\n        /* \"#utility.yul\":16349:16353   */\n      0x00\n        /* \"#utility.yul\":16387:16389   */\n      0x20\n        /* \"#utility.yul\":16376:16385   */\n      dup3\n        /* \"#utility.yul\":16372:16390   */\n      add\n        /* \"#utility.yul\":16364:16390   */\n      swap1\n      pop\n        /* \"#utility.yul\":16436:16445   */\n      dup2\n        /* \"#utility.yul\":16430:16434   */\n      dup2\n        /* \"#utility.yul\":16426:16446   */\n      sub\n        /* \"#utility.yul\":16422:16423   */\n      0x00\n        /* \"#utility.yul\":16411:16420   */\n      dup4\n        /* \"#utility.yul\":16407:16424   */\n      add\n        /* \"#utility.yul\":16400:16447   */\n      mstore\n        /* \"#utility.yul\":16464:16595   */\n      tag_389\n        /* \"#utility.yul\":16590:16594   */\n      dup2\n        /* \"#utility.yul\":16464:16595   */\n      tag_233\n      jump\t// in\n    tag_389:\n        /* \"#utility.yul\":16456:16595   */\n      swap1\n      pop\n        /* \"#utility.yul\":16183:16602   */\n      swap2\n      swap1\n      pop\n      jump\t// out\n        /* \"#utility.yul\":16608:16790   */\n    tag_234:\n        /* \"#utility.yul\":16748:16782   */\n      0x4f776e61626c653a2063616c6c6572206973206e6f7420746865206f776e6572\n        /* \"#utility.yul\":16744:16745   */\n      0x00\n        /* \"#utility.yul\":16736:16742   */\n      dup3\n        /* \"#utility.yul\":16732:16746   */\n      add\n        /* \"#utility.yul\":16725:16783   */\n      mstore\n        /* \"#utility.yul\":16608:16790   */\n      pop\n      jump\t// out\n        /* \"#utility.yul\":16796:17162   */\n    tag_235:\n        /* \"#utility.yul\":16938:16941   */\n      0x00\n        /* \"#utility.yul\":16959:17026   */\n      tag_392\n        /* \"#utility.yul\":17023:17025   */\n      0x20\n        /* \"#utility.yul\":17018:17021   */\n      dup4\n        /* \"#utility.yul\":16959:17026   */\n      tag_212\n      jump\t// in\n    tag_392:\n        /* \"#utility.yul\":16952:17026   */\n      swap2\n      pop\n        /* \"#utility.yul\":17035:17128   */\n      tag_393\n        /* \"#utility.yul\":17124:17127   */\n      dup3\n        /* \"#utility.yul\":17035:17128   */\n      tag_234\n      jump\t// in\n    tag_393:\n        /* \"#utility.yul\":17153:17155   */\n      0x20\n        /* \"#utility.yul\":17148:17151   */\n      dup3\n        /* \"#utility.yul\":17144:17156   */\n      add\n        /* \"#utility.yul\":17137:17156   */\n      swap1\n      pop\n        /* \"#utility.yul\":16796:17162   */\n      swap2\n      swap1\n      pop\n      jump\t// out\n        /* \"#utility.yul\":17168:17587   */\n    tag_185:\n        /* \"#utility.yul\":17334:17338   */\n      0x00\n        /* \"#utility.yul\":17372:17374   */\n      0x20\n        /* \"#utility.yul\":17361:17370   */\n      dup3\n        /* \"#utility.yul\":17357:17375   */\n      add\n        /* \"#utility.yul\":17349:17375   */\n      swap1\n      pop\n        /* \"#utility.yul\":17421:17430   */\n      dup2\n        /* \"#utility.yul\":17415:17419   */\n      dup2\n        /* \"#utility.yul\":17411:17431   */\n      sub\n        /* \"#utility.yul\":17407:17408   */\n      0x00\n        /* \"#utility.yul\":17396:17405   */\n      dup4\n        /* \"#utility.yul\":17392:17409   */\n      add\n        /* \"#utility.yul\":17385:17432   */\n      mstore\n        /* \"#utility.yul\":17449:17580   */\n      tag_395\n        /* \"#utility.yul\":17575:17579   */\n      dup2\n        /* \"#utility.yul\":17449:17580   */\n      tag_235\n      jump\t// in\n    tag_395:\n        /* \"#utility.yul\":17441:17580   */\n      swap1\n      pop\n        /* \"#utility.yul\":17168:17587   */\n      swap2\n      swap1\n      pop\n      jump\t// out\n\n    auxdata: 0xa2646970667358221220d52116c839fa14b05f34d08f27a176f016627203669086311aac702cfa804b5b64736f6c634300081e0033\n}\n",
				"bytecode": {
					"linkReferences": {},
					"object": "608060405234801561000f575f5ffd5b50604051611af4380380611af4833981810160405281019061003191906101fa565b61004d6100426100d460201b60201c565b6100db60201b60201c565b8160015f6101000a81548173ffffffffffffffffffffffffffffffffffffffff021916908373ffffffffffffffffffffffffffffffffffffffff1602179055508060025f6101000a81548173ffffffffffffffffffffffffffffffffffffffff021916908373ffffffffffffffffffffffffffffffffffffffff1602179055505050610238565b5f33905090565b5f5f5f9054906101000a900473ffffffffffffffffffffffffffffffffffffffff169050815f5f6101000a81548173ffffffffffffffffffffffffffffffffffffffff021916908373ffffffffffffffffffffffffffffffffffffffff1602179055508173ffffffffffffffffffffffffffffffffffffffff168173ffffffffffffffffffffffffffffffffffffffff167f8be0079c531659141344cd1fd0a4f28419497f9722a3daafe3b4186f6b6457e060405160405180910390a35050565b5f5ffd5b5f73ffffffffffffffffffffffffffffffffffffffff82169050919050565b5f6101c9826101a0565b9050919050565b6101d9816101bf565b81146101e3575f5ffd5b50565b5f815190506101f4816101d0565b92915050565b5f5f604083850312156102105761020f61019c565b5b5f61021d858286016101e6565b925050602061022e858286016101e6565b9150509250929050565b6118af806102455f395ff3fe608060405234801561000f575f5ffd5b50600436106100b2575f3560e01c80638da5cb5b1161006f5780638da5cb5b146101665780639cd441da146101845780639d7de6b3146101a0578063c4ccea90146101bc578063e4f1f70a146101da578063f2fde38b146101f6576100b2565b80630fc63d10146100b657806341976e09146100d457806345b42138146101045780635f64b55b14610122578063715018a6146101405780638014a7aa1461014a575b5f5ffd5b6100be610212565b6040516100cb9190611078565b60405180910390f35b6100ee60048036038101906100e991906110d0565b610237565b6040516100fb9190611113565b60405180910390f35b61010c610374565b6040516101199190611113565b60405180910390f35b61012a61037a565b6040516101379190611078565b60405180910390f35b61014861039f565b005b610164600480360381019061015f9190611156565b6103b2565b005b61016e610642565b60405161017b9190611190565b60405180910390f35b61019e600480360381019061019991906111a9565b610669565b005b6101ba60048036038101906101b591906111a9565b610898565b005b6101c4610b5f565b6040516101d19190611113565b60405180910390f35b6101f460048036038101906101ef9190611156565b610b65565b005b610210600480360381019061020b91906110d0565b610df5565b005b60015f9054906101000a900473ffffffffffffffffffffffffffffffffffffffff1681565b5f60015f9054906101000a900473ffffffffffffffffffffffffffffffffffffffff1673ffffffffffffffffffffffffffffffffffffffff168273ffffffffffffffffffffffffffffffffffffffff16036102b657600354670de0b6b3a76400006004546102a59190611214565b6102af9190611282565b905061036f565b60025f9054906101000a900473ffffffffffffffffffffffffffffffffffffffff1673ffffffffffffffffffffffffffffffffffffffff168273ffffffffffffffffffffffffffffffffffffffff160361033457600454670de0b6b3a76400006003546103239190611214565b61032d9190611282565b905061036f565b6040517f08c379a00000000000000000000000000000000000000000000000000000000081526004016103669061130c565b60405180910390fd5b919050565b60035481565b60025f9054906101000a900473ffffffffffffffffffffffffffffffffffffffff1681565b6103a7610e77565b6103b05f610ef5565b565b5f81116103f4576040517f08c379a00000000000000000000000000000000000000000000000000000000081526004016103eb90611374565b60405180910390fd5b60025f9054906101000a900473ffffffffffffffffffffffffffffffffffffffff1673ffffffffffffffffffffffffffffffffffffffff166323b872dd3330846040518463ffffffff1660e01b815260040161045293929190611392565b6020604051808303815f875af115801561046e573d5f5f3e3d5ffd5b505050506040513d601f19601f8201168201806040525081019061049291906113fc565b6104d1576040517f08c379a00000000000000000000000000000000000000000000000000000000081526004016104c890611471565b60405180910390fd5b5f6104e182600454600354610fb6565b90508160045f8282546104f4919061148f565b925050819055508060035f82825461050c91906114c2565b9250508190555060015f9054906101000a900473ffffffffffffffffffffffffffffffffffffffff1673ffffffffffffffffffffffffffffffffffffffff1663a9059cbb33836040518363ffffffff1660e01b815260040161056f9291906114f5565b6020604051808303815f875af115801561058b573d5f5f3e3d5ffd5b505050506040513d601f19601f820116820180604052508101906105af91906113fc565b6105ee576040517f08c379a00000000000000000000000000000000000000000000000000000000081526004016105e590611566565b60405180910390fd5b3373ffffffffffffffffffffffffffffffffffffffff167fd6fc4a38a3a3702d8fb16d699f0581d9d0ba09223b03c76aebd61831fe696f5083836040516106369291906115ce565b60405180910390a25050565b5f5f5f9054906101000a900473ffffffffffffffffffffffffffffffffffffffff16905090565b610671610e77565b60015f9054906101000a900473ffffffffffffffffffffffffffffffffffffffff1673ffffffffffffffffffffffffffffffffffffffff166323b872dd3330856040518463ffffffff1660e01b81526004016106cf93929190611392565b6020604051808303815f875af11580156106eb573d5f5f3e3d5ffd5b505050506040513d601f19601f8201168201806040525081019061070f91906113fc565b61074e576040517f08c379a000000000000000000000000000000000000000000000000000000000815260040161074590611566565b60405180910390fd5b60025f9054906101000a900473ffffffffffffffffffffffffffffffffffffffff1673ffffffffffffffffffffffffffffffffffffffff166323b872dd3330846040518463ffffffff1660e01b81526004016107ac93929190611392565b6020604051808303815f875af11580156107c8573d5f5f3e3d5ffd5b505050506040513d601f19601f820116820180604052508101906107ec91906113fc565b61082b576040517f08c379a000000000000000000000000000000000000000000000000000000000815260040161082290611471565b60405180910390fd5b8160035f82825461083c919061148f565b925050819055508060045f828254610854919061148f565b925050819055507f38f8a0c92f4c5b0b6877f878cb4c0c8d348a47b76d716c8e78f425043df9515b828260405161088c929190611608565b60405180910390a15050565b6108a0610e77565b5f8211156109e1578160035410156108ed576040517f08c379a00000000000000000000000000000000000000000000000000000000081526004016108e490611679565b60405180910390fd5b8160035f8282546108fe91906114c2565b9250508190555060015f9054906101000a900473ffffffffffffffffffffffffffffffffffffffff1673ffffffffffffffffffffffffffffffffffffffff1663a9059cbb33846040518363ffffffff1660e01b81526004016109619291906114f5565b6020604051808303815f875af115801561097d573d5f5f3e3d5ffd5b505050506040513d601f19601f820116820180604052508101906109a191906113fc565b6109e0576040517f08c379a00000000000000000000000000000000000000000000000000000000081526004016109d790611566565b60405180910390fd5b5b5f811115610b2257806004541015610a2e576040517f08c379a0000000000000000000000000000000000000000000000000000000008152600401610a25906116e1565b60405180910390fd5b8060045f828254610a3f91906114c2565b9250508190555060025f9054906101000a900473ffffffffffffffffffffffffffffffffffffffff1673ffffffffffffffffffffffffffffffffffffffff1663a9059cbb33836040518363ffffffff1660e01b8152600401610aa29291906114f5565b6020604051808303815f875af1158015610abe573d5f5f3e3d5ffd5b505050506040513d601f19601f82011682018060405250810190610ae291906113fc565b610b21576040517f08c379a0000000000000000000000000000000000000000000000000000000008152600401610b1890611471565b60405180910390fd5b5b7f6f0f96292ae0038c04f9b6bab30f185d9ca02c471d0983f563f2a4f674aef1378282604051610b53929190611608565b60405180910390a15050565b60045481565b5f8111610ba7576040517f08c379a0000000000000000000000000000000000000000000000000000000008152600401610b9e90611374565b60405180910390fd5b60015f9054906101000a900473ffffffffffffffffffffffffffffffffffffffff1673ffffffffffffffffffffffffffffffffffffffff166323b872dd3330846040518463ffffffff1660e01b8152600401610c0593929190611392565b6020604051808303815f875af1158015610c21573d5f5f3e3d5ffd5b505050506040513d601f19601f82011682018060405250810190610c4591906113fc565b610c84576040517f08c379a0000000000000000000000000000000000000000000000000000000008152600401610c7b90611566565b60405180910390fd5b5f610c9482600354600454610fb6565b90508160035f828254610ca7919061148f565b925050819055508060045f828254610cbf91906114c2565b9250508190555060025f9054906101000a900473ffffffffffffffffffffffffffffffffffffffff1673ffffffffffffffffffffffffffffffffffffffff1663a9059cbb33836040518363ffffffff1660e01b8152600401610d229291906114f5565b6020604051808303815f875af1158015610d3e573d5f5f3e3d5ffd5b505050506040513d601f19601f82011682018060405250810190610d6291906113fc565b610da1576040517f08c379a0000000000000000000000000000000000000000000000000000000008152600401610d9890611471565b60405180910390fd5b3373ffffffffffffffffffffffffffffffffffffffff167fd6fc4a38a3a3702d8fb16d699f0581d9d0ba09223b03c76aebd61831fe696f508383604051610de9929190611749565b60405180910390a25050565b610dfd610e77565b5f73ffffffffffffffffffffffffffffffffffffffff168173ffffffffffffffffffffffffffffffffffffffff1603610e6b576040517f08c379a0000000000000000000000000000000000000000000000000000000008152600401610e62906117f3565b60405180910390fd5b610e7481610ef5565b50565b610e7f610ff7565b73ffffffffffffffffffffffffffffffffffffffff16610e9d610642565b73ffffffffffffffffffffffffffffffffffffffff1614610ef3576040517f08c379a0000000000000000000000000000000000000000000000000000000008152600401610eea9061185b565b60405180910390fd5b565b5f5f5f9054906101000a900473ffffffffffffffffffffffffffffffffffffffff169050815f5f6101000a81548173ffffffffffffffffffffffffffffffffffffffff021916908373ffffffffffffffffffffffffffffffffffffffff1602179055508173ffffffffffffffffffffffffffffffffffffffff168173ffffffffffffffffffffffffffffffffffffffff167f8be0079c531659141344cd1fd0a4f28419497f9722a3daafe3b4186f6b6457e060405160405180910390a35050565b5f5f8484610fc4919061148f565b90505f818486610fd49190611214565b610fde9190611282565b90508084610fec91906114c2565b925050509392505050565b5f33905090565b5f73ffffffffffffffffffffffffffffffffffffffff82169050919050565b5f819050919050565b5f61104061103b61103684610ffe565b61101d565b610ffe565b9050919050565b5f61105182611026565b9050919050565b5f61106282611047565b9050919050565b61107281611058565b82525050565b5f60208201905061108b5f830184611069565b92915050565b5f5ffd5b5f61109f82610ffe565b9050919050565b6110af81611095565b81146110b9575f5ffd5b50565b5f813590506110ca816110a6565b92915050565b5f602082840312156110e5576110e4611091565b5b5f6110f2848285016110bc565b91505092915050565b5f819050919050565b61110d816110fb565b82525050565b5f6020820190506111265f830184611104565b92915050565b611135816110fb565b811461113f575f5ffd5b50565b5f813590506111508161112c565b92915050565b5f6020828403121561116b5761116a611091565b5b5f61117884828501611142565b91505092915050565b61118a81611095565b82525050565b5f6020820190506111a35f830184611181565b92915050565b5f5f604083850312156111bf576111be611091565b5b5f6111cc85828601611142565b92505060206111dd85828601611142565b9150509250929050565b7f4e487b71000000000000000000000000000000000000000000000000000000005f52601160045260245ffd5b5f61121e826110fb565b9150611229836110fb565b9250828202611237816110fb565b9150828204841483151761124e5761124d6111e7565b5b5092915050565b7f4e487b71000000000000000000000000000000000000000000000000000000005f52601260045260245ffd5b5f61128c826110fb565b9150611297836110fb565b9250826112a7576112a6611255565b5b828204905092915050565b5f82825260208201905092915050565b7f496e76616c696420746f6b656e206164647265737300000000000000000000005f82015250565b5f6112f66015836112b2565b9150611301826112c2565b602082019050919050565b5f6020820190508181035f830152611323816112ea565b9050919050565b7f416d6f756e74206d7573742062652067726561746572207468616e20300000005f82015250565b5f61135e601d836112b2565b91506113698261132a565b602082019050919050565b5f6020820190508181035f83015261138b81611352565b9050919050565b5f6060820190506113a55f830186611181565b6113b26020830185611181565b6113bf6040830184611104565b949350505050565b5f8115159050919050565b6113db816113c7565b81146113e5575f5ffd5b50565b5f815190506113f6816113d2565b92915050565b5f6020828403121561141157611410611091565b5b5f61141e848285016113e8565b91505092915050565b7f5472616e73666572206f6620546f6b656e42206661696c6564000000000000005f82015250565b5f61145b6019836112b2565b915061146682611427565b602082019050919050565b5f6020820190508181035f8301526114888161144f565b9050919050565b5f611499826110fb565b91506114a4836110fb565b92508282019050808211156114bc576114bb6111e7565b5b92915050565b5f6114cc826110fb565b91506114d7836110fb565b92508282039050818111156114ef576114ee6111e7565b5b92915050565b5f6040820190506115085f830185611181565b6115156020830184611104565b9392505050565b7f5472616e73666572206f6620546f6b656e41206661696c6564000000000000005f82015250565b5f6115506019836112b2565b915061155b8261151c565b602082019050919050565b5f6020820190508181035f83015261157d81611544565b9050919050565b7f422d3e41000000000000000000000000000000000000000000000000000000005f82015250565b5f6115b86004836112b2565b91506115c382611584565b602082019050919050565b5f6060820190508181035f8301526115e5816115ac565b90506115f46020830185611104565b6116016040830184611104565b9392505050565b5f60408201905061161b5f830185611104565b6116286020830184611104565b9392505050565b7f4e6f7420656e6f75676820546f6b656e41206c697175696469747900000000005f82015250565b5f611663601b836112b2565b915061166e8261162f565b602082019050919050565b5f6020820190508181035f83015261169081611657565b9050919050565b7f4e6f7420656e6f75676820546f6b656e42206c697175696469747900000000005f82015250565b5f6116cb601b836112b2565b91506116d682611697565b602082019050919050565b5f6020820190508181035f8301526116f8816116bf565b9050919050565b7f412d3e42000000000000000000000000000000000000000000000000000000005f82015250565b5f6117336004836112b2565b915061173e826116ff565b602082019050919050565b5f6060820190508181035f83015261176081611727565b905061176f6020830185611104565b61177c6040830184611104565b9392505050565b7f4f776e61626c653a206e6577206f776e657220697320746865207a65726f20615f8201527f6464726573730000000000000000000000000000000000000000000000000000602082015250565b5f6117dd6026836112b2565b91506117e882611783565b604082019050919050565b5f6020820190508181035f83015261180a816117d1565b9050919050565b7f4f776e61626c653a2063616c6c6572206973206e6f7420746865206f776e65725f82015250565b5f6118456020836112b2565b915061185082611811565b602082019050919050565b5f6020820190508181035f83015261187281611839565b905091905056fea2646970667358221220d52116c839fa14b05f34d08f27a176f016627203669086311aac702cfa804b5b64736f6c634300081e0033",
					"opcodes": "PUSH1 0x80 PUSH1 0x40 MSTORE CALLVALUE DUP1 ISZERO PUSH2 0xF JUMPI PUSH0 PUSH0 REVERT JUMPDEST POP PUSH1 0x40 MLOAD PUSH2 0x1AF4 CODESIZE SUB DUP1 PUSH2 0x1AF4 DUP4 CODECOPY DUP2 DUP2 ADD PUSH1 0x40 MSTORE DUP2 ADD SWAP1 PUSH2 0x31 SWAP2 SWAP1 PUSH2 0x1FA JUMP JUMPDEST PUSH2 0x4D PUSH2 0x42 PUSH2 0xD4 PUSH1 0x20 SHL PUSH1 0x20 SHR JUMP JUMPDEST PUSH2 0xDB PUSH1 0x20 SHL PUSH1 0x20 SHR JUMP JUMPDEST DUP2 PUSH1 0x1 PUSH0 PUSH2 0x100 EXP DUP2 SLOAD DUP2 PUSH20 0xFFFFFFFFFFFFFFFFFFFFFFFFFFFFFFFFFFFFFFFF MUL NOT AND SWAP1 DUP4 PUSH20 0xFFFFFFFFFFFFFFFFFFFFFFFFFFFFFFFFFFFFFFFF AND MUL OR SWAP1 SSTORE POP DUP1 PUSH1 0x2 PUSH0 PUSH2 0x100 EXP DUP2 SLOAD DUP2 PUSH20 0xFFFFFFFFFFFFFFFFFFFFFFFFFFFFFFFFFFFFFFFF MUL NOT AND SWAP1 DUP4 PUSH20 0xFFFFFFFFFFFFFFFFFFFFFFFFFFFFFFFFFFFFFFFF AND MUL OR SWAP1 SSTORE POP POP POP PUSH2 0x238 JUMP JUMPDEST PUSH0 CALLER SWAP1 POP SWAP1 JUMP JUMPDEST PUSH0 PUSH0 PUSH0 SWAP1 SLOAD SWAP1 PUSH2 0x100 EXP SWAP1 DIV PUSH20 0xFFFFFFFFFFFFFFFFFFFFFFFFFFFFFFFFFFFFFFFF AND SWAP1 POP DUP2 PUSH0 PUSH0 PUSH2 0x100 EXP DUP2 SLOAD DUP2 PUSH20 0xFFFFFFFFFFFFFFFFFFFFFFFFFFFFFFFFFFFFFFFF MUL NOT AND SWAP1 DUP4 PUSH20 0xFFFFFFFFFFFFFFFFFFFFFFFFFFFFFFFFFFFFFFFF AND MUL OR SWAP1 SSTORE POP DUP2 PUSH20 0xFFFFFFFFFFFFFFFFFFFFFFFFFFFFFFFFFFFFFFFF AND DUP2 PUSH20 0xFFFFFFFFFFFFFFFFFFFFFFFFFFFFFFFFFFFFFFFF AND PUSH32 0x8BE0079C531659141344CD1FD0A4F28419497F9722A3DAAFE3B4186F6B6457E0 PUSH1 0x40 MLOAD PUSH1 0x40 MLOAD DUP1 SWAP2 SUB SWAP1 LOG3 POP POP JUMP JUMPDEST PUSH0 PUSH0 REVERT JUMPDEST PUSH0 PUSH20 0xFFFFFFFFFFFFFFFFFFFFFFFFFFFFFFFFFFFFFFFF DUP3 AND SWAP1 POP SWAP2 SWAP1 POP JUMP JUMPDEST PUSH0 PUSH2 0x1C9 DUP3 PUSH2 0x1A0 JUMP JUMPDEST SWAP1 POP SWAP2 SWAP1 POP JUMP JUMPDEST PUSH2 0x1D9 DUP2 PUSH2 0x1BF JUMP JUMPDEST DUP2 EQ PUSH2 0x1E3 JUMPI PUSH0 PUSH0 REVERT JUMPDEST POP JUMP JUMPDEST PUSH0 DUP2 MLOAD SWAP1 POP PUSH2 0x1F4 DUP2 PUSH2 0x1D0 JUMP JUMPDEST SWAP3 SWAP2 POP POP JUMP JUMPDEST PUSH0 PUSH0 PUSH1 0x40 DUP4 DUP6 SUB SLT ISZERO PUSH2 0x210 JUMPI PUSH2 0x20F PUSH2 0x19C JUMP JUMPDEST JUMPDEST PUSH0 PUSH2 0x21D DUP6 DUP3 DUP7 ADD PUSH2 0x1E6 JUMP JUMPDEST SWAP3 POP POP PUSH1 0x20 PUSH2 0x22E DUP6 DUP3 DUP7 ADD PUSH2 0x1E6 JUMP JUMPDEST SWAP2 POP POP SWAP3 POP SWAP3 SWAP1 POP JUMP JUMPDEST PUSH2 0x18AF DUP1 PUSH2 0x245 PUSH0 CODECOPY PUSH0 RETURN INVALID PUSH1 0x80 PUSH1 0x40 MSTORE CALLVALUE DUP1 ISZERO PUSH2 0xF JUMPI PUSH0 PUSH0 REVERT JUMPDEST POP PUSH1 0x4 CALLDATASIZE LT PUSH2 0xB2 JUMPI PUSH0 CALLDATALOAD PUSH1 0xE0 SHR DUP1 PUSH4 0x8DA5CB5B GT PUSH2 0x6F JUMPI DUP1 PUSH4 0x8DA5CB5B EQ PUSH2 0x166 JUMPI DUP1 PUSH4 0x9CD441DA EQ PUSH2 0x184 JUMPI DUP1 PUSH4 0x9D7DE6B3 EQ PUSH2 0x1A0 JUMPI DUP1 PUSH4 0xC4CCEA90 EQ PUSH2 0x1BC JUMPI DUP1 PUSH4 0xE4F1F70A EQ PUSH2 0x1DA JUMPI DUP1 PUSH4 0xF2FDE38B EQ PUSH2 0x1F6 JUMPI PUSH2 0xB2 JUMP JUMPDEST DUP1 PUSH4 0xFC63D10 EQ PUSH2 0xB6 JUMPI DUP1 PUSH4 0x41976E09 EQ PUSH2 0xD4 JUMPI DUP1 PUSH4 0x45B42138 EQ PUSH2 0x104 JUMPI DUP1 PUSH4 0x5F64B55B EQ PUSH2 0x122 JUMPI DUP1 PUSH4 0x715018A6 EQ PUSH2 0x140 JUMPI DUP1 PUSH4 0x8014A7AA EQ PUSH2 0x14A JUMPI JUMPDEST PUSH0 PUSH0 REVERT JUMPDEST PUSH2 0xBE PUSH2 0x212 JUMP JUMPDEST PUSH1 0x40 MLOAD PUSH2 0xCB SWAP2 SWAP1 PUSH2 0x1078 JUMP JUMPDEST PUSH1 0x40 MLOAD DUP1 SWAP2 SUB SWAP1 RETURN JUMPDEST PUSH2 0xEE PUSH1 0x4 DUP1 CALLDATASIZE SUB DUP2 ADD SWAP1 PUSH2 0xE9 SWAP2 SWAP1 PUSH2 0x10D0 JUMP JUMPDEST PUSH2 0x237 JUMP JUMPDEST PUSH1 0x40 MLOAD PUSH2 0xFB SWAP2 SWAP1 PUSH2 0x1113 JUMP JUMPDEST PUSH1 0x40 MLOAD DUP1 SWAP2 SUB SWAP1 RETURN JUMPDEST PUSH2 0x10C PUSH2 0x374 JUMP JUMPDEST PUSH1 0x40 MLOAD PUSH2 0x119 SWAP2 SWAP1 PUSH2 0x1113 JUMP JUMPDEST PUSH1 0x40 MLOAD DUP1 SWAP2 SUB SWAP1 RETURN JUMPDEST PUSH2 0x12A PUSH2 0x37A JUMP JUMPDEST PUSH1 0x40 MLOAD PUSH2 0x137 SWAP2 SWAP1 PUSH2 0x1078 JUMP JUMPDEST PUSH1 0x40 MLOAD DUP1 SWAP2 SUB SWAP1 RETURN JUMPDEST PUSH2 0x148 PUSH2 0x39F JUMP JUMPDEST STOP JUMPDEST PUSH2 0x164 PUSH1 0x4 DUP1 CALLDATASIZE SUB DUP2 ADD SWAP1 PUSH2 0x15F SWAP2 SWAP1 PUSH2 0x1156 JUMP JUMPDEST PUSH2 0x3B2 JUMP JUMPDEST STOP JUMPDEST PUSH2 0x16E PUSH2 0x642 JUMP JUMPDEST PUSH1 0x40 MLOAD PUSH2 0x17B SWAP2 SWAP1 PUSH2 0x1190 JUMP JUMPDEST PUSH1 0x40 MLOAD DUP1 SWAP2 SUB SWAP1 RETURN JUMPDEST PUSH2 0x19E PUSH1 0x4 DUP1 CALLDATASIZE SUB DUP2 ADD SWAP1 PUSH2 0x199 SWAP2 SWAP1 PUSH2 0x11A9 JUMP JUMPDEST PUSH2 0x669 JUMP JUMPDEST STOP JUMPDEST PUSH2 0x1BA PUSH1 0x4 DUP1 CALLDATASIZE SUB DUP2 ADD SWAP1 PUSH2 0x1B5 SWAP2 SWAP1 PUSH2 0x11A9 JUMP JUMPDEST PUSH2 0x898 JUMP JUMPDEST STOP JUMPDEST PUSH2 0x1C4 PUSH2 0xB5F JUMP JUMPDEST PUSH1 0x40 MLOAD PUSH2 0x1D1 SWAP2 SWAP1 PUSH2 0x1113 JUMP JUMPDEST PUSH1 0x40 MLOAD DUP1 SWAP2 SUB SWAP1 RETURN JUMPDEST PUSH2 0x1F4 PUSH1 0x4 DUP1 CALLDATASIZE SUB DUP2 ADD SWAP1 PUSH2 0x1EF SWAP2 SWAP1 PUSH2 0x1156 JUMP JUMPDEST PUSH2 0xB65 JUMP JUMPDEST STOP JUMPDEST PUSH2 0x210 PUSH1 0x4 DUP1 CALLDATASIZE SUB DUP2 ADD SWAP1 PUSH2 0x20B SWAP2 SWAP1 PUSH2 0x10D0 JUMP JUMPDEST PUSH2 0xDF5 JUMP JUMPDEST STOP JUMPDEST PUSH1 0x1 PUSH0 SWAP1 SLOAD SWAP1 PUSH2 0x100 EXP SWAP1 DIV PUSH20 0xFFFFFFFFFFFFFFFFFFFFFFFFFFFFFFFFFFFFFFFF AND DUP2 JUMP JUMPDEST PUSH0 PUSH1 0x1 PUSH0 SWAP1 SLOAD SWAP1 PUSH2 0x100 EXP SWAP1 DIV PUSH20 0xFFFFFFFFFFFFFFFFFFFFFFFFFFFFFFFFFFFFFFFF AND PUSH20 0xFFFFFFFFFFFFFFFFFFFFFFFFFFFFFFFFFFFFFFFF AND DUP3 PUSH20 0xFFFFFFFFFFFFFFFFFFFFFFFFFFFFFFFFFFFFFFFF AND SUB PUSH2 0x2B6 JUMPI PUSH1 0x3 SLOAD PUSH8 0xDE0B6B3A7640000 PUSH1 0x4 SLOAD PUSH2 0x2A5 SWAP2 SWAP1 PUSH2 0x1214 JUMP JUMPDEST PUSH2 0x2AF SWAP2 SWAP1 PUSH2 0x1282 JUMP JUMPDEST SWAP1 POP PUSH2 0x36F JUMP JUMPDEST PUSH1 0x2 PUSH0 SWAP1 SLOAD SWAP1 PUSH2 0x100 EXP SWAP1 DIV PUSH20 0xFFFFFFFFFFFFFFFFFFFFFFFFFFFFFFFFFFFFFFFF AND PUSH20 0xFFFFFFFFFFFFFFFFFFFFFFFFFFFFFFFFFFFFFFFF AND DUP3 PUSH20 0xFFFFFFFFFFFFFFFFFFFFFFFFFFFFFFFFFFFFFFFF AND SUB PUSH2 0x334 JUMPI PUSH1 0x4 SLOAD PUSH8 0xDE0B6B3A7640000 PUSH1 0x3 SLOAD PUSH2 0x323 SWAP2 SWAP1 PUSH2 0x1214 JUMP JUMPDEST PUSH2 0x32D SWAP2 SWAP1 PUSH2 0x1282 JUMP JUMPDEST SWAP1 POP PUSH2 0x36F JUMP JUMPDEST PUSH1 0x40 MLOAD PUSH32 0x8C379A000000000000000000000000000000000000000000000000000000000 DUP2 MSTORE PUSH1 0x4 ADD PUSH2 0x366 SWAP1 PUSH2 0x130C JUMP JUMPDEST PUSH1 0x40 MLOAD DUP1 SWAP2 SUB SWAP1 REVERT JUMPDEST SWAP2 SWAP1 POP JUMP JUMPDEST PUSH1 0x3 SLOAD DUP2 JUMP JUMPDEST PUSH1 0x2 PUSH0 SWAP1 SLOAD SWAP1 PUSH2 0x100 EXP SWAP1 DIV PUSH20 0xFFFFFFFFFFFFFFFFFFFFFFFFFFFFFFFFFFFFFFFF AND DUP2 JUMP JUMPDEST PUSH2 0x3A7 PUSH2 0xE77 JUMP JUMPDEST PUSH2 0x3B0 PUSH0 PUSH2 0xEF5 JUMP JUMPDEST JUMP JUMPDEST PUSH0 DUP2 GT PUSH2 0x3F4 JUMPI PUSH1 0x40 MLOAD PUSH32 0x8C379A000000000000000000000000000000000000000000000000000000000 DUP2 MSTORE PUSH1 0x4 ADD PUSH2 0x3EB SWAP1 PUSH2 0x1374 JUMP JUMPDEST PUSH1 0x40 MLOAD DUP1 SWAP2 SUB SWAP1 REVERT JUMPDEST PUSH1 0x2 PUSH0 SWAP1 SLOAD SWAP1 PUSH2 0x100 EXP SWAP1 DIV PUSH20 0xFFFFFFFFFFFFFFFFFFFFFFFFFFFFFFFFFFFFFFFF AND PUSH20 0xFFFFFFFFFFFFFFFFFFFFFFFFFFFFFFFFFFFFFFFF AND PUSH4 0x23B872DD CALLER ADDRESS DUP5 PUSH1 0x40 MLOAD DUP5 PUSH4 0xFFFFFFFF AND PUSH1 0xE0 SHL DUP2 MSTORE PUSH1 0x4 ADD PUSH2 0x452 SWAP4 SWAP3 SWAP2 SWAP1 PUSH2 0x1392 JUMP JUMPDEST PUSH1 0x20 PUSH1 0x40 MLOAD DUP1 DUP4 SUB DUP2 PUSH0 DUP8 GAS CALL ISZERO DUP1 ISZERO PUSH2 0x46E JUMPI RETURNDATASIZE PUSH0 PUSH0 RETURNDATACOPY RETURNDATASIZE PUSH0 REVERT JUMPDEST POP POP POP POP PUSH1 0x40 MLOAD RETURNDATASIZE PUSH1 0x1F NOT PUSH1 0x1F DUP3 ADD AND DUP3 ADD DUP1 PUSH1 0x40 MSTORE POP DUP2 ADD SWAP1 PUSH2 0x492 SWAP2 SWAP1 PUSH2 0x13FC JUMP JUMPDEST PUSH2 0x4D1 JUMPI PUSH1 0x40 MLOAD PUSH32 0x8C379A000000000000000000000000000000000000000000000000000000000 DUP2 MSTORE PUSH1 0x4 ADD PUSH2 0x4C8 SWAP1 PUSH2 0x1471 JUMP JUMPDEST PUSH1 0x40 MLOAD DUP1 SWAP2 SUB SWAP1 REVERT JUMPDEST PUSH0 PUSH2 0x4E1 DUP3 PUSH1 0x4 SLOAD PUSH1 0x3 SLOAD PUSH2 0xFB6 JUMP JUMPDEST SWAP1 POP DUP2 PUSH1 0x4 PUSH0 DUP3 DUP3 SLOAD PUSH2 0x4F4 SWAP2 SWAP1 PUSH2 0x148F JUMP JUMPDEST SWAP3 POP POP DUP2 SWAP1 SSTORE POP DUP1 PUSH1 0x3 PUSH0 DUP3 DUP3 SLOAD PUSH2 0x50C SWAP2 SWAP1 PUSH2 0x14C2 JUMP JUMPDEST SWAP3 POP POP DUP2 SWAP1 SSTORE POP PUSH1 0x1 PUSH0 SWAP1 SLOAD SWAP1 PUSH2 0x100 EXP SWAP1 DIV PUSH20 0xFFFFFFFFFFFFFFFFFFFFFFFFFFFFFFFFFFFFFFFF AND PUSH20 0xFFFFFFFFFFFFFFFFFFFFFFFFFFFFFFFFFFFFFFFF AND PUSH4 0xA9059CBB CALLER DUP4 PUSH1 0x40 MLOAD DUP4 PUSH4 0xFFFFFFFF AND PUSH1 0xE0 SHL DUP2 MSTORE PUSH1 0x4 ADD PUSH2 0x56F SWAP3 SWAP2 SWAP1 PUSH2 0x14F5 JUMP JUMPDEST PUSH1 0x20 PUSH1 0x40 MLOAD DUP1 DUP4 SUB DUP2 PUSH0 DUP8 GAS CALL ISZERO DUP1 ISZERO PUSH2 0x58B JUMPI RETURNDATASIZE PUSH0 PUSH0 RETURNDATACOPY RETURNDATASIZE PUSH0 REVERT JUMPDEST POP POP POP POP PUSH1 0x40 MLOAD RETURNDATASIZE PUSH1 0x1F NOT PUSH1 0x1F DUP3 ADD AND DUP3 ADD DUP1 PUSH1 0x40 MSTORE POP DUP2 ADD SWAP1 PUSH2 0x5AF SWAP2 SWAP1 PUSH2 0x13FC JUMP JUMPDEST PUSH2 0x5EE JUMPI PUSH1 0x40 MLOAD PUSH32 0x8C379A000000000000000000000000000000000000000000000000000000000 DUP2 MSTORE PUSH1 0x4 ADD PUSH2 0x5E5 SWAP1 PUSH2 0x1566 JUMP JUMPDEST PUSH1 0x40 MLOAD DUP1 SWAP2 SUB SWAP1 REVERT JUMPDEST CALLER PUSH20 0xFFFFFFFFFFFFFFFFFFFFFFFFFFFFFFFFFFFFFFFF AND PUSH32 0xD6FC4A38A3A3702D8FB16D699F0581D9D0BA09223B03C76AEBD61831FE696F50 DUP4 DUP4 PUSH1 0x40 MLOAD PUSH2 0x636 SWAP3 SWAP2 SWAP1 PUSH2 0x15CE JUMP JUMPDEST PUSH1 0x40 MLOAD DUP1 SWAP2 SUB SWAP1 LOG2 POP POP JUMP JUMPDEST PUSH0 PUSH0 PUSH0 SWAP1 SLOAD SWAP1 PUSH2 0x100 EXP SWAP1 DIV PUSH20 0xFFFFFFFFFFFFFFFFFFFFFFFFFFFFFFFFFFFFFFFF AND SWAP1 POP SWAP1 JUMP JUMPDEST PUSH2 0x671 PUSH2 0xE77 JUMP JUMPDEST PUSH1 0x1 PUSH0 SWAP1 SLOAD SWAP1 PUSH2 0x100 EXP SWAP1 DIV PUSH20 0xFFFFFFFFFFFFFFFFFFFFFFFFFFFFFFFFFFFFFFFF AND PUSH20 0xFFFFFFFFFFFFFFFFFFFFFFFFFFFFFFFFFFFFFFFF AND PUSH4 0x23B872DD CALLER ADDRESS DUP6 PUSH1 0x40 MLOAD DUP5 PUSH4 0xFFFFFFFF AND PUSH1 0xE0 SHL DUP2 MSTORE PUSH1 0x4 ADD PUSH2 0x6CF SWAP4 SWAP3 SWAP2 SWAP1 PUSH2 0x1392 JUMP JUMPDEST PUSH1 0x20 PUSH1 0x40 MLOAD DUP1 DUP4 SUB DUP2 PUSH0 DUP8 GAS CALL ISZERO DUP1 ISZERO PUSH2 0x6EB JUMPI RETURNDATASIZE PUSH0 PUSH0 RETURNDATACOPY RETURNDATASIZE PUSH0 REVERT JUMPDEST POP POP POP POP PUSH1 0x40 MLOAD RETURNDATASIZE PUSH1 0x1F NOT PUSH1 0x1F DUP3 ADD AND DUP3 ADD DUP1 PUSH1 0x40 MSTORE POP DUP2 ADD SWAP1 PUSH2 0x70F SWAP2 SWAP1 PUSH2 0x13FC JUMP JUMPDEST PUSH2 0x74E JUMPI PUSH1 0x40 MLOAD PUSH32 0x8C379A000000000000000000000000000000000000000000000000000000000 DUP2 MSTORE PUSH1 0x4 ADD PUSH2 0x745 SWAP1 PUSH2 0x1566 JUMP JUMPDEST PUSH1 0x40 MLOAD DUP1 SWAP2 SUB SWAP1 REVERT JUMPDEST PUSH1 0x2 PUSH0 SWAP1 SLOAD SWAP1 PUSH2 0x100 EXP SWAP1 DIV PUSH20 0xFFFFFFFFFFFFFFFFFFFFFFFFFFFFFFFFFFFFFFFF AND PUSH20 0xFFFFFFFFFFFFFFFFFFFFFFFFFFFFFFFFFFFFFFFF AND PUSH4 0x23B872DD CALLER ADDRESS DUP5 PUSH1 0x40 MLOAD DUP5 PUSH4 0xFFFFFFFF AND PUSH1 0xE0 SHL DUP2 MSTORE PUSH1 0x4 ADD PUSH2 0x7AC SWAP4 SWAP3 SWAP2 SWAP1 PUSH2 0x1392 JUMP JUMPDEST PUSH1 0x20 PUSH1 0x40 MLOAD DUP1 DUP4 SUB DUP2 PUSH0 DUP8 GAS CALL ISZERO DUP1 ISZERO PUSH2 0x7C8 JUMPI RETURNDATASIZE PUSH0 PUSH0 RETURNDATACOPY RETURNDATASIZE PUSH0 REVERT JUMPDEST POP POP POP POP PUSH1 0x40 MLOAD RETURNDATASIZE PUSH1 0x1F NOT PUSH1 0x1F DUP3 ADD AND DUP3 ADD DUP1 PUSH1 0x40 MSTORE POP DUP2 ADD SWAP1 PUSH2 0x7EC SWAP2 SWAP1 PUSH2 0x13FC JUMP JUMPDEST PUSH2 0x82B JUMPI PUSH1 0x40 MLOAD PUSH32 0x8C379A000000000000000000000000000000000000000000000000000000000 DUP2 MSTORE PUSH1 0x4 ADD PUSH2 0x822 SWAP1 PUSH2 0x1471 JUMP JUMPDEST PUSH1 0x40 MLOAD DUP1 SWAP2 SUB SWAP1 REVERT JUMPDEST DUP2 PUSH1 0x3 PUSH0 DUP3 DUP3 SLOAD PUSH2 0x83C SWAP2 SWAP1 PUSH2 0x148F JUMP JUMPDEST SWAP3 POP POP DUP2 SWAP1 SSTORE POP DUP1 PUSH1 0x4 PUSH0 DUP3 DUP3 SLOAD PUSH2 0x854 SWAP2 SWAP1 PUSH2 0x148F JUMP JUMPDEST SWAP3 POP POP DUP2 SWAP1 SSTORE POP PUSH32 0x38F8A0C92F4C5B0B6877F878CB4C0C8D348A47B76D716C8E78F425043DF9515B DUP3 DUP3 PUSH1 0x40 MLOAD PUSH2 0x88C SWAP3 SWAP2 SWAP1 PUSH2 0x1608 JUMP JUMPDEST PUSH1 0x40 MLOAD DUP1 SWAP2 SUB SWAP1 LOG1 POP POP JUMP JUMPDEST PUSH2 0x8A0 PUSH2 0xE77 JUMP JUMPDEST PUSH0 DUP3 GT ISZERO PUSH2 0x9E1 JUMPI DUP2 PUSH1 0x3 SLOAD LT ISZERO PUSH2 0x8ED JUMPI PUSH1 0x40 MLOAD PUSH32 0x8C379A000000000000000000000000000000000000000000000000000000000 DUP2 MSTORE PUSH1 0x4 ADD PUSH2 0x8E4 SWAP1 PUSH2 0x1679 JUMP JUMPDEST PUSH1 0x40 MLOAD DUP1 SWAP2 SUB SWAP1 REVERT JUMPDEST DUP2 PUSH1 0x3 PUSH0 DUP3 DUP3 SLOAD PUSH2 0x8FE SWAP2 SWAP1 PUSH2 0x14C2 JUMP JUMPDEST SWAP3 POP POP DUP2 SWAP1 SSTORE POP PUSH1 0x1 PUSH0 SWAP1 SLOAD SWAP1 PUSH2 0x100 EXP SWAP1 DIV PUSH20 0xFFFFFFFFFFFFFFFFFFFFFFFFFFFFFFFFFFFFFFFF AND PUSH20 0xFFFFFFFFFFFFFFFFFFFFFFFFFFFFFFFFFFFFFFFF AND PUSH4 0xA9059CBB CALLER DUP5 PUSH1 0x40 MLOAD DUP4 PUSH4 0xFFFFFFFF AND PUSH1 0xE0 SHL DUP2 MSTORE PUSH1 0x4 ADD PUSH2 0x961 SWAP3 SWAP2 SWAP1 PUSH2 0x14F5 JUMP JUMPDEST PUSH1 0x20 PUSH1 0x40 MLOAD DUP1 DUP4 SUB DUP2 PUSH0 DUP8 GAS CALL ISZERO DUP1 ISZERO PUSH2 0x97D JUMPI RETURNDATASIZE PUSH0 PUSH0 RETURNDATACOPY RETURNDATASIZE PUSH0 REVERT JUMPDEST POP POP POP POP PUSH1 0x40 MLOAD RETURNDATASIZE PUSH1 0x1F NOT PUSH1 0x1F DUP3 ADD AND DUP3 ADD DUP1 PUSH1 0x40 MSTORE POP DUP2 ADD SWAP1 PUSH2 0x9A1 SWAP2 SWAP1 PUSH2 0x13FC JUMP JUMPDEST PUSH2 0x9E0 JUMPI PUSH1 0x40 MLOAD PUSH32 0x8C379A000000000000000000000000000000000000000000000000000000000 DUP2 MSTORE PUSH1 0x4 ADD PUSH2 0x9D7 SWAP1 PUSH2 0x1566 JUMP JUMPDEST PUSH1 0x40 MLOAD DUP1 SWAP2 SUB SWAP1 REVERT JUMPDEST JUMPDEST PUSH0 DUP2 GT ISZERO PUSH2 0xB22 JUMPI DUP1 PUSH1 0x4 SLOAD LT ISZERO PUSH2 0xA2E JUMPI PUSH1 0x40 MLOAD PUSH32 0x8C379A000000000000000000000000000000000000000000000000000000000 DUP2 MSTORE PUSH1 0x4 ADD PUSH2 0xA25 SWAP1 PUSH2 0x16E1 JUMP JUMPDEST PUSH1 0x40 MLOAD DUP1 SWAP2 SUB SWAP1 REVERT JUMPDEST DUP1 PUSH1 0x4 PUSH0 DUP3 DUP3 SLOAD PUSH2 0xA3F SWAP2 SWAP1 PUSH2 0x14C2 JUMP JUMPDEST SWAP3 POP POP DUP2 SWAP1 SSTORE POP PUSH1 0x2 PUSH0 SWAP1 SLOAD SWAP1 PUSH2 0x100 EXP SWAP1 DIV PUSH20 0xFFFFFFFFFFFFFFFFFFFFFFFFFFFFFFFFFFFFFFFF AND PUSH20 0xFFFFFFFFFFFFFFFFFFFFFFFFFFFFFFFFFFFFFFFF AND PUSH4 0xA9059CBB CALLER DUP4 PUSH1 0x40 MLOAD DUP4 PUSH4 0xFFFFFFFF AND PUSH1 0xE0 SHL DUP2 MSTORE PUSH1 0x4 ADD PUSH2 0xAA2 SWAP3 SWAP2 SWAP1 PUSH2 0x14F5 JUMP JUMPDEST PUSH1 0x20 PUSH1 0x40 MLOAD DUP1 DUP4 SUB DUP2 PUSH0 DUP8 GAS CALL ISZERO DUP1 ISZERO PUSH2 0xABE JUMPI RETURNDATASIZE PUSH0 PUSH0 RETURNDATACOPY RETURNDATASIZE PUSH0 REVERT JUMPDEST POP POP POP POP PUSH1 0x40 MLOAD RETURNDATASIZE PUSH1 0x1F NOT PUSH1 0x1F DUP3 ADD AND DUP3 ADD DUP1 PUSH1 0x40 MSTORE POP DUP2 ADD SWAP1 PUSH2 0xAE2 SWAP2 SWAP1 PUSH2 0x13FC JUMP JUMPDEST PUSH2 0xB21 JUMPI PUSH1 0x40 MLOAD PUSH32 0x8C379A000000000000000000000000000000000000000000000000000000000 DUP2 MSTORE PUSH1 0x4 ADD PUSH2 0xB18 SWAP1 PUSH2 0x1471 JUMP JUMPDEST PUSH1 0x40 MLOAD DUP1 SWAP2 SUB SWAP1 REVERT JUMPDEST JUMPDEST PUSH32 0x6F0F96292AE0038C04F9B6BAB30F185D9CA02C471D0983F563F2A4F674AEF137 DUP3 DUP3 PUSH1 0x40 MLOAD PUSH2 0xB53 SWAP3 SWAP2 SWAP1 PUSH2 0x1608 JUMP JUMPDEST PUSH1 0x40 MLOAD DUP1 SWAP2 SUB SWAP1 LOG1 POP POP JUMP JUMPDEST PUSH1 0x4 SLOAD DUP2 JUMP JUMPDEST PUSH0 DUP2 GT PUSH2 0xBA7 JUMPI PUSH1 0x40 MLOAD PUSH32 0x8C379A000000000000000000000000000000000000000000000000000000000 DUP2 MSTORE PUSH1 0x4 ADD PUSH2 0xB9E SWAP1 PUSH2 0x1374 JUMP JUMPDEST PUSH1 0x40 MLOAD DUP1 SWAP2 SUB SWAP1 REVERT JUMPDEST PUSH1 0x1 PUSH0 SWAP1 SLOAD SWAP1 PUSH2 0x100 EXP SWAP1 DIV PUSH20 0xFFFFFFFFFFFFFFFFFFFFFFFFFFFFFFFFFFFFFFFF AND PUSH20 0xFFFFFFFFFFFFFFFFFFFFFFFFFFFFFFFFFFFFFFFF AND PUSH4 0x23B872DD CALLER ADDRESS DUP5 PUSH1 0x40 MLOAD DUP5 PUSH4 0xFFFFFFFF AND PUSH1 0xE0 SHL DUP2 MSTORE PUSH1 0x4 ADD PUSH2 0xC05 SWAP4 SWAP3 SWAP2 SWAP1 PUSH2 0x1392 JUMP JUMPDEST PUSH1 0x20 PUSH1 0x40 MLOAD DUP1 DUP4 SUB DUP2 PUSH0 DUP8 GAS CALL ISZERO DUP1 ISZERO PUSH2 0xC21 JUMPI RETURNDATASIZE PUSH0 PUSH0 RETURNDATACOPY RETURNDATASIZE PUSH0 REVERT JUMPDEST POP POP POP POP PUSH1 0x40 MLOAD RETURNDATASIZE PUSH1 0x1F NOT PUSH1 0x1F DUP3 ADD AND DUP3 ADD DUP1 PUSH1 0x40 MSTORE POP DUP2 ADD SWAP1 PUSH2 0xC45 SWAP2 SWAP1 PUSH2 0x13FC JUMP JUMPDEST PUSH2 0xC84 JUMPI PUSH1 0x40 MLOAD PUSH32 0x8C379A000000000000000000000000000000000000000000000000000000000 DUP2 MSTORE PUSH1 0x4 ADD PUSH2 0xC7B SWAP1 PUSH2 0x1566 JUMP JUMPDEST PUSH1 0x40 MLOAD DUP1 SWAP2 SUB SWAP1 REVERT JUMPDEST PUSH0 PUSH2 0xC94 DUP3 PUSH1 0x3 SLOAD PUSH1 0x4 SLOAD PUSH2 0xFB6 JUMP JUMPDEST SWAP1 POP DUP2 PUSH1 0x3 PUSH0 DUP3 DUP3 SLOAD PUSH2 0xCA7 SWAP2 SWAP1 PUSH2 0x148F JUMP JUMPDEST SWAP3 POP POP DUP2 SWAP1 SSTORE POP DUP1 PUSH1 0x4 PUSH0 DUP3 DUP3 SLOAD PUSH2 0xCBF SWAP2 SWAP1 PUSH2 0x14C2 JUMP JUMPDEST SWAP3 POP POP DUP2 SWAP1 SSTORE POP PUSH1 0x2 PUSH0 SWAP1 SLOAD SWAP1 PUSH2 0x100 EXP SWAP1 DIV PUSH20 0xFFFFFFFFFFFFFFFFFFFFFFFFFFFFFFFFFFFFFFFF AND PUSH20 0xFFFFFFFFFFFFFFFFFFFFFFFFFFFFFFFFFFFFFFFF AND PUSH4 0xA9059CBB CALLER DUP4 PUSH1 0x40 MLOAD DUP4 PUSH4 0xFFFFFFFF AND PUSH1 0xE0 SHL DUP2 MSTORE PUSH1 0x4 ADD PUSH2 0xD22 SWAP3 SWAP2 SWAP1 PUSH2 0x14F5 JUMP JUMPDEST PUSH1 0x20 PUSH1 0x40 MLOAD DUP1 DUP4 SUB DUP2 PUSH0 DUP8 GAS CALL ISZERO DUP1 ISZERO PUSH2 0xD3E JUMPI RETURNDATASIZE PUSH0 PUSH0 RETURNDATACOPY RETURNDATASIZE PUSH0 REVERT JUMPDEST POP POP POP POP PUSH1 0x40 MLOAD RETURNDATASIZE PUSH1 0x1F NOT PUSH1 0x1F DUP3 ADD AND DUP3 ADD DUP1 PUSH1 0x40 MSTORE POP DUP2 ADD SWAP1 PUSH2 0xD62 SWAP2 SWAP1 PUSH2 0x13FC JUMP JUMPDEST PUSH2 0xDA1 JUMPI PUSH1 0x40 MLOAD PUSH32 0x8C379A000000000000000000000000000000000000000000000000000000000 DUP2 MSTORE PUSH1 0x4 ADD PUSH2 0xD98 SWAP1 PUSH2 0x1471 JUMP JUMPDEST PUSH1 0x40 MLOAD DUP1 SWAP2 SUB SWAP1 REVERT JUMPDEST CALLER PUSH20 0xFFFFFFFFFFFFFFFFFFFFFFFFFFFFFFFFFFFFFFFF AND PUSH32 0xD6FC4A38A3A3702D8FB16D699F0581D9D0BA09223B03C76AEBD61831FE696F50 DUP4 DUP4 PUSH1 0x40 MLOAD PUSH2 0xDE9 SWAP3 SWAP2 SWAP1 PUSH2 0x1749 JUMP JUMPDEST PUSH1 0x40 MLOAD DUP1 SWAP2 SUB SWAP1 LOG2 POP POP JUMP JUMPDEST PUSH2 0xDFD PUSH2 0xE77 JUMP JUMPDEST PUSH0 PUSH20 0xFFFFFFFFFFFFFFFFFFFFFFFFFFFFFFFFFFFFFFFF AND DUP2 PUSH20 0xFFFFFFFFFFFFFFFFFFFFFFFFFFFFFFFFFFFFFFFF AND SUB PUSH2 0xE6B JUMPI PUSH1 0x40 MLOAD PUSH32 0x8C379A000000000000000000000000000000000000000000000000000000000 DUP2 MSTORE PUSH1 0x4 ADD PUSH2 0xE62 SWAP1 PUSH2 0x17F3 JUMP JUMPDEST PUSH1 0x40 MLOAD DUP1 SWAP2 SUB SWAP1 REVERT JUMPDEST PUSH2 0xE74 DUP2 PUSH2 0xEF5 JUMP JUMPDEST POP JUMP JUMPDEST PUSH2 0xE7F PUSH2 0xFF7 JUMP JUMPDEST PUSH20 0xFFFFFFFFFFFFFFFFFFFFFFFFFFFFFFFFFFFFFFFF AND PUSH2 0xE9D PUSH2 0x642 JUMP JUMPDEST PUSH20 0xFFFFFFFFFFFFFFFFFFFFFFFFFFFFFFFFFFFFFFFF AND EQ PUSH2 0xEF3 JUMPI PUSH1 0x40 MLOAD PUSH32 0x8C379A000000000000000000000000000000000000000000000000000000000 DUP2 MSTORE PUSH1 0x4 ADD PUSH2 0xEEA SWAP1 PUSH2 0x185B JUMP JUMPDEST PUSH1 0x40 MLOAD DUP1 SWAP2 SUB SWAP1 REVERT JUMPDEST JUMP JUMPDEST PUSH0 PUSH0 PUSH0 SWAP1 SLOAD SWAP1 PUSH2 0x100 EXP SWAP1 DIV PUSH20 0xFFFFFFFFFFFFFFFFFFFFFFFFFFFFFFFFFFFFFFFF AND SWAP1 POP DUP2 PUSH0 PUSH0 PUSH2 0x100 EXP DUP2 SLOAD DUP2 PUSH20 0xFFFFFFFFFFFFFFFFFFFFFFFFFFFFFFFFFFFFFFFF MUL NOT AND SWAP1 DUP4 PUSH20 0xFFFFFFFFFFFFFFFFFFFFFFFFFFFFFFFFFFFFFFFF AND MUL OR SWAP1 SSTORE POP DUP2 PUSH20 0xFFFFFFFFFFFFFFFFFFFFFFFFFFFFFFFFFFFFFFFF AND DUP2 PUSH20 0xFFFFFFFFFFFFFFFFFFFFFFFFFFFFFFFFFFFFFFFF AND PUSH32 0x8BE0079C531659141344CD1FD0A4F28419497F9722A3DAAFE3B4186F6B6457E0 PUSH1 0x40 MLOAD PUSH1 0x40 MLOAD DUP1 SWAP2 SUB SWAP1 LOG3 POP POP JUMP JUMPDEST PUSH0 PUSH0 DUP5 DUP5 PUSH2 0xFC4 SWAP2 SWAP1 PUSH2 0x148F JUMP JUMPDEST SWAP1 POP PUSH0 DUP2 DUP5 DUP7 PUSH2 0xFD4 SWAP2 SWAP1 PUSH2 0x1214 JUMP JUMPDEST PUSH2 0xFDE SWAP2 SWAP1 PUSH2 0x1282 JUMP JUMPDEST SWAP1 POP DUP1 DUP5 PUSH2 0xFEC SWAP2 SWAP1 PUSH2 0x14C2 JUMP JUMPDEST SWAP3 POP POP POP SWAP4 SWAP3 POP POP POP JUMP JUMPDEST PUSH0 CALLER SWAP1 POP SWAP1 JUMP JUMPDEST PUSH0 PUSH20 0xFFFFFFFFFFFFFFFFFFFFFFFFFFFFFFFFFFFFFFFF DUP3 AND SWAP1 POP SWAP2 SWAP1 POP JUMP JUMPDEST PUSH0 DUP2 SWAP1 POP SWAP2 SWAP1 POP JUMP JUMPDEST PUSH0 PUSH2 0x1040 PUSH2 0x103B PUSH2 0x1036 DUP5 PUSH2 0xFFE JUMP JUMPDEST PUSH2 0x101D JUMP JUMPDEST PUSH2 0xFFE JUMP JUMPDEST SWAP1 POP SWAP2 SWAP1 POP JUMP JUMPDEST PUSH0 PUSH2 0x1051 DUP3 PUSH2 0x1026 JUMP JUMPDEST SWAP1 POP SWAP2 SWAP1 POP JUMP JUMPDEST PUSH0 PUSH2 0x1062 DUP3 PUSH2 0x1047 JUMP JUMPDEST SWAP1 POP SWAP2 SWAP1 POP JUMP JUMPDEST PUSH2 0x1072 DUP2 PUSH2 0x1058 JUMP JUMPDEST DUP3 MSTORE POP POP JUMP JUMPDEST PUSH0 PUSH1 0x20 DUP3 ADD SWAP1 POP PUSH2 0x108B PUSH0 DUP4 ADD DUP5 PUSH2 0x1069 JUMP JUMPDEST SWAP3 SWAP2 POP POP JUMP JUMPDEST PUSH0 PUSH0 REVERT JUMPDEST PUSH0 PUSH2 0x109F DUP3 PUSH2 0xFFE JUMP JUMPDEST SWAP1 POP SWAP2 SWAP1 POP JUMP JUMPDEST PUSH2 0x10AF DUP2 PUSH2 0x1095 JUMP JUMPDEST DUP2 EQ PUSH2 0x10B9 JUMPI PUSH0 PUSH0 REVERT JUMPDEST POP JUMP JUMPDEST PUSH0 DUP2 CALLDATALOAD SWAP1 POP PUSH2 0x10CA DUP2 PUSH2 0x10A6 JUMP JUMPDEST SWAP3 SWAP2 POP POP JUMP JUMPDEST PUSH0 PUSH1 0x20 DUP3 DUP5 SUB SLT ISZERO PUSH2 0x10E5 JUMPI PUSH2 0x10E4 PUSH2 0x1091 JUMP JUMPDEST JUMPDEST PUSH0 PUSH2 0x10F2 DUP5 DUP3 DUP6 ADD PUSH2 0x10BC JUMP JUMPDEST SWAP2 POP POP SWAP3 SWAP2 POP POP JUMP JUMPDEST PUSH0 DUP2 SWAP1 POP SWAP2 SWAP1 POP JUMP JUMPDEST PUSH2 0x110D DUP2 PUSH2 0x10FB JUMP JUMPDEST DUP3 MSTORE POP POP JUMP JUMPDEST PUSH0 PUSH1 0x20 DUP3 ADD SWAP1 POP PUSH2 0x1126 PUSH0 DUP4 ADD DUP5 PUSH2 0x1104 JUMP JUMPDEST SWAP3 SWAP2 POP POP JUMP JUMPDEST PUSH2 0x1135 DUP2 PUSH2 0x10FB JUMP JUMPDEST DUP2 EQ PUSH2 0x113F JUMPI PUSH0 PUSH0 REVERT JUMPDEST POP JUMP JUMPDEST PUSH0 DUP2 CALLDATALOAD SWAP1 POP PUSH2 0x1150 DUP2 PUSH2 0x112C JUMP JUMPDEST SWAP3 SWAP2 POP POP JUMP JUMPDEST PUSH0 PUSH1 0x20 DUP3 DUP5 SUB SLT ISZERO PUSH2 0x116B JUMPI PUSH2 0x116A PUSH2 0x1091 JUMP JUMPDEST JUMPDEST PUSH0 PUSH2 0x1178 DUP5 DUP3 DUP6 ADD PUSH2 0x1142 JUMP JUMPDEST SWAP2 POP POP SWAP3 SWAP2 POP POP JUMP JUMPDEST PUSH2 0x118A DUP2 PUSH2 0x1095 JUMP JUMPDEST DUP3 MSTORE POP POP JUMP JUMPDEST PUSH0 PUSH1 0x20 DUP3 ADD SWAP1 POP PUSH2 0x11A3 PUSH0 DUP4 ADD DUP5 PUSH2 0x1181 JUMP JUMPDEST SWAP3 SWAP2 POP POP JUMP JUMPDEST PUSH0 PUSH0 PUSH1 0x40 DUP4 DUP6 SUB SLT ISZERO PUSH2 0x11BF JUMPI PUSH2 0x11BE PUSH2 0x1091 JUMP JUMPDEST JUMPDEST PUSH0 PUSH2 0x11CC DUP6 DUP3 DUP7 ADD PUSH2 0x1142 JUMP JUMPDEST SWAP3 POP POP PUSH1 0x20 PUSH2 0x11DD DUP6 DUP3 DUP7 ADD PUSH2 0x1142 JUMP JUMPDEST SWAP2 POP POP SWAP3 POP SWAP3 SWAP1 POP JUMP JUMPDEST PUSH32 0x4E487B7100000000000000000000000000000000000000000000000000000000 PUSH0 MSTORE PUSH1 0x11 PUSH1 0x4 MSTORE PUSH1 0x24 PUSH0 REVERT JUMPDEST PUSH0 PUSH2 0x121E DUP3 PUSH2 0x10FB JUMP JUMPDEST SWAP2 POP PUSH2 0x1229 DUP4 PUSH2 0x10FB JUMP JUMPDEST SWAP3 POP DUP3 DUP3 MUL PUSH2 0x1237 DUP2 PUSH2 0x10FB JUMP JUMPDEST SWAP2 POP DUP3 DUP3 DIV DUP5 EQ DUP4 ISZERO OR PUSH2 0x124E JUMPI PUSH2 0x124D PUSH2 0x11E7 JUMP JUMPDEST JUMPDEST POP SWAP3 SWAP2 POP POP JUMP JUMPDEST PUSH32 0x4E487B7100000000000000000000000000000000000000000000000000000000 PUSH0 MSTORE PUSH1 0x12 PUSH1 0x4 MSTORE PUSH1 0x24 PUSH0 REVERT JUMPDEST PUSH0 PUSH2 0x128C DUP3 PUSH2 0x10FB JUMP JUMPDEST SWAP2 POP PUSH2 0x1297 DUP4 PUSH2 0x10FB JUMP JUMPDEST SWAP3 POP DUP3 PUSH2 0x12A7 JUMPI PUSH2 0x12A6 PUSH2 0x1255 JUMP JUMPDEST JUMPDEST DUP3 DUP3 DIV SWAP1 POP SWAP3 SWAP2 POP POP JUMP JUMPDEST PUSH0 DUP3 DUP3 MSTORE PUSH1 0x20 DUP3 ADD SWAP1 POP SWAP3 SWAP2 POP POP JUMP JUMPDEST PUSH32 0x496E76616C696420746F6B656E20616464726573730000000000000000000000 PUSH0 DUP3 ADD MSTORE POP JUMP JUMPDEST PUSH0 PUSH2 0x12F6 PUSH1 0x15 DUP4 PUSH2 0x12B2 JUMP JUMPDEST SWAP2 POP PUSH2 0x1301 DUP3 PUSH2 0x12C2 JUMP JUMPDEST PUSH1 0x20 DUP3 ADD SWAP1 POP SWAP2 SWAP1 POP JUMP JUMPDEST PUSH0 PUSH1 0x20 DUP3 ADD SWAP1 POP DUP2 DUP2 SUB PUSH0 DUP4 ADD MSTORE PUSH2 0x1323 DUP2 PUSH2 0x12EA JUMP JUMPDEST SWAP1 POP SWAP2 SWAP1 POP JUMP JUMPDEST PUSH32 0x416D6F756E74206D7573742062652067726561746572207468616E2030000000 PUSH0 DUP3 ADD MSTORE POP JUMP JUMPDEST PUSH0 PUSH2 0x135E PUSH1 0x1D DUP4 PUSH2 0x12B2 JUMP JUMPDEST SWAP2 POP PUSH2 0x1369 DUP3 PUSH2 0x132A JUMP JUMPDEST PUSH1 0x20 DUP3 ADD SWAP1 POP SWAP2 SWAP1 POP JUMP JUMPDEST PUSH0 PUSH1 0x20 DUP3 ADD SWAP1 POP DUP2 DUP2 SUB PUSH0 DUP4 ADD MSTORE PUSH2 0x138B DUP2 PUSH2 0x1352 JUMP JUMPDEST SWAP1 POP SWAP2 SWAP1 POP JUMP JUMPDEST PUSH0 PUSH1 0x60 DUP3 ADD SWAP1 POP PUSH2 0x13A5 PUSH0 DUP4 ADD DUP7 PUSH2 0x1181 JUMP JUMPDEST PUSH2 0x13B2 PUSH1 0x20 DUP4 ADD DUP6 PUSH2 0x1181 JUMP JUMPDEST PUSH2 0x13BF PUSH1 0x40 DUP4 ADD DUP5 PUSH2 0x1104 JUMP JUMPDEST SWAP5 SWAP4 POP POP POP POP JUMP JUMPDEST PUSH0 DUP2 ISZERO ISZERO SWAP1 POP SWAP2 SWAP1 POP JUMP JUMPDEST PUSH2 0x13DB DUP2 PUSH2 0x13C7 JUMP JUMPDEST DUP2 EQ PUSH2 0x13E5 JUMPI PUSH0 PUSH0 REVERT JUMPDEST POP JUMP JUMPDEST PUSH0 DUP2 MLOAD SWAP1 POP PUSH2 0x13F6 DUP2 PUSH2 0x13D2 JUMP JUMPDEST SWAP3 SWAP2 POP POP JUMP JUMPDEST PUSH0 PUSH1 0x20 DUP3 DUP5 SUB SLT ISZERO PUSH2 0x1411 JUMPI PUSH2 0x1410 PUSH2 0x1091 JUMP JUMPDEST JUMPDEST PUSH0 PUSH2 0x141E DUP5 DUP3 DUP6 ADD PUSH2 0x13E8 JUMP JUMPDEST SWAP2 POP POP SWAP3 SWAP2 POP POP JUMP JUMPDEST PUSH32 0x5472616E73666572206F6620546F6B656E42206661696C656400000000000000 PUSH0 DUP3 ADD MSTORE POP JUMP JUMPDEST PUSH0 PUSH2 0x145B PUSH1 0x19 DUP4 PUSH2 0x12B2 JUMP JUMPDEST SWAP2 POP PUSH2 0x1466 DUP3 PUSH2 0x1427 JUMP JUMPDEST PUSH1 0x20 DUP3 ADD SWAP1 POP SWAP2 SWAP1 POP JUMP JUMPDEST PUSH0 PUSH1 0x20 DUP3 ADD SWAP1 POP DUP2 DUP2 SUB PUSH0 DUP4 ADD MSTORE PUSH2 0x1488 DUP2 PUSH2 0x144F JUMP JUMPDEST SWAP1 POP SWAP2 SWAP1 POP JUMP JUMPDEST PUSH0 PUSH2 0x1499 DUP3 PUSH2 0x10FB JUMP JUMPDEST SWAP2 POP PUSH2 0x14A4 DUP4 PUSH2 0x10FB JUMP JUMPDEST SWAP3 POP DUP3 DUP3 ADD SWAP1 POP DUP1 DUP3 GT ISZERO PUSH2 0x14BC JUMPI PUSH2 0x14BB PUSH2 0x11E7 JUMP JUMPDEST JUMPDEST SWAP3 SWAP2 POP POP JUMP JUMPDEST PUSH0 PUSH2 0x14CC DUP3 PUSH2 0x10FB JUMP JUMPDEST SWAP2 POP PUSH2 0x14D7 DUP4 PUSH2 0x10FB JUMP JUMPDEST SWAP3 POP DUP3 DUP3 SUB SWAP1 POP DUP2 DUP2 GT ISZERO PUSH2 0x14EF JUMPI PUSH2 0x14EE PUSH2 0x11E7 JUMP JUMPDEST JUMPDEST SWAP3 SWAP2 POP POP JUMP JUMPDEST PUSH0 PUSH1 0x40 DUP3 ADD SWAP1 POP PUSH2 0x1508 PUSH0 DUP4 ADD DUP6 PUSH2 0x1181 JUMP JUMPDEST PUSH2 0x1515 PUSH1 0x20 DUP4 ADD DUP5 PUSH2 0x1104 JUMP JUMPDEST SWAP4 SWAP3 POP POP POP JUMP JUMPDEST PUSH32 0x5472616E73666572206F6620546F6B656E41206661696C656400000000000000 PUSH0 DUP3 ADD MSTORE POP JUMP JUMPDEST PUSH0 PUSH2 0x1550 PUSH1 0x19 DUP4 PUSH2 0x12B2 JUMP JUMPDEST SWAP2 POP PUSH2 0x155B DUP3 PUSH2 0x151C JUMP JUMPDEST PUSH1 0x20 DUP3 ADD SWAP1 POP SWAP2 SWAP1 POP JUMP JUMPDEST PUSH0 PUSH1 0x20 DUP3 ADD SWAP1 POP DUP2 DUP2 SUB PUSH0 DUP4 ADD MSTORE PUSH2 0x157D DUP2 PUSH2 0x1544 JUMP JUMPDEST SWAP1 POP SWAP2 SWAP1 POP JUMP JUMPDEST PUSH32 0x422D3E4100000000000000000000000000000000000000000000000000000000 PUSH0 DUP3 ADD MSTORE POP JUMP JUMPDEST PUSH0 PUSH2 0x15B8 PUSH1 0x4 DUP4 PUSH2 0x12B2 JUMP JUMPDEST SWAP2 POP PUSH2 0x15C3 DUP3 PUSH2 0x1584 JUMP JUMPDEST PUSH1 0x20 DUP3 ADD SWAP1 POP SWAP2 SWAP1 POP JUMP JUMPDEST PUSH0 PUSH1 0x60 DUP3 ADD SWAP1 POP DUP2 DUP2 SUB PUSH0 DUP4 ADD MSTORE PUSH2 0x15E5 DUP2 PUSH2 0x15AC JUMP JUMPDEST SWAP1 POP PUSH2 0x15F4 PUSH1 0x20 DUP4 ADD DUP6 PUSH2 0x1104 JUMP JUMPDEST PUSH2 0x1601 PUSH1 0x40 DUP4 ADD DUP5 PUSH2 0x1104 JUMP JUMPDEST SWAP4 SWAP3 POP POP POP JUMP JUMPDEST PUSH0 PUSH1 0x40 DUP3 ADD SWAP1 POP PUSH2 0x161B PUSH0 DUP4 ADD DUP6 PUSH2 0x1104 JUMP JUMPDEST PUSH2 0x1628 PUSH1 0x20 DUP4 ADD DUP5 PUSH2 0x1104 JUMP JUMPDEST SWAP4 SWAP3 POP POP POP JUMP JUMPDEST PUSH32 0x4E6F7420656E6F75676820546F6B656E41206C69717569646974790000000000 PUSH0 DUP3 ADD MSTORE POP JUMP JUMPDEST PUSH0 PUSH2 0x1663 PUSH1 0x1B DUP4 PUSH2 0x12B2 JUMP JUMPDEST SWAP2 POP PUSH2 0x166E DUP3 PUSH2 0x162F JUMP JUMPDEST PUSH1 0x20 DUP3 ADD SWAP1 POP SWAP2 SWAP1 POP JUMP JUMPDEST PUSH0 PUSH1 0x20 DUP3 ADD SWAP1 POP DUP2 DUP2 SUB PUSH0 DUP4 ADD MSTORE PUSH2 0x1690 DUP2 PUSH2 0x1657 JUMP JUMPDEST SWAP1 POP SWAP2 SWAP1 POP JUMP JUMPDEST PUSH32 0x4E6F7420656E6F75676820546F6B656E42206C69717569646974790000000000 PUSH0 DUP3 ADD MSTORE POP JUMP JUMPDEST PUSH0 PUSH2 0x16CB PUSH1 0x1B DUP4 PUSH2 0x12B2 JUMP JUMPDEST SWAP2 POP PUSH2 0x16D6 DUP3 PUSH2 0x1697 JUMP JUMPDEST PUSH1 0x20 DUP3 ADD SWAP1 POP SWAP2 SWAP1 POP JUMP JUMPDEST PUSH0 PUSH1 0x20 DUP3 ADD SWAP1 POP DUP2 DUP2 SUB PUSH0 DUP4 ADD MSTORE PUSH2 0x16F8 DUP2 PUSH2 0x16BF JUMP JUMPDEST SWAP1 POP SWAP2 SWAP1 POP JUMP JUMPDEST PUSH32 0x412D3E4200000000000000000000000000000000000000000000000000000000 PUSH0 DUP3 ADD MSTORE POP JUMP JUMPDEST PUSH0 PUSH2 0x1733 PUSH1 0x4 DUP4 PUSH2 0x12B2 JUMP JUMPDEST SWAP2 POP PUSH2 0x173E DUP3 PUSH2 0x16FF JUMP JUMPDEST PUSH1 0x20 DUP3 ADD SWAP1 POP SWAP2 SWAP1 POP JUMP JUMPDEST PUSH0 PUSH1 0x60 DUP3 ADD SWAP1 POP DUP2 DUP2 SUB PUSH0 DUP4 ADD MSTORE PUSH2 0x1760 DUP2 PUSH2 0x1727 JUMP JUMPDEST SWAP1 POP PUSH2 0x176F PUSH1 0x20 DUP4 ADD DUP6 PUSH2 0x1104 JUMP JUMPDEST PUSH2 0x177C PUSH1 0x40 DUP4 ADD DUP5 PUSH2 0x1104 JUMP JUMPDEST SWAP4 SWAP3 POP POP POP JUMP JUMPDEST PUSH32 0x4F776E61626C653A206E6577206F776E657220697320746865207A65726F2061 PUSH0 DUP3 ADD MSTORE PUSH32 0x6464726573730000000000000000000000000000000000000000000000000000 PUSH1 0x20 DUP3 ADD MSTORE POP JUMP JUMPDEST PUSH0 PUSH2 0x17DD PUSH1 0x26 DUP4 PUSH2 0x12B2 JUMP JUMPDEST SWAP2 POP PUSH2 0x17E8 DUP3 PUSH2 0x1783 JUMP JUMPDEST PUSH1 0x40 DUP3 ADD SWAP1 POP SWAP2 SWAP1 POP JUMP JUMPDEST PUSH0 PUSH1 0x20 DUP3 ADD SWAP1 POP DUP2 DUP2 SUB PUSH0 DUP4 ADD MSTORE PUSH2 0x180A DUP2 PUSH2 0x17D1 JUMP JUMPDEST SWAP1 POP SWAP2 SWAP1 POP JUMP JUMPDEST PUSH32 0x4F776E61626C653A2063616C6C6572206973206E6F7420746865206F776E6572 PUSH0 DUP3 ADD MSTORE POP JUMP JUMPDEST PUSH0 PUSH2 0x1845 PUSH1 0x20 DUP4 PUSH2 0x12B2 JUMP JUMPDEST SWAP2 POP PUSH2 0x1850 DUP3 PUSH2 0x1811 JUMP JUMPDEST PUSH1 0x20 DUP3 ADD SWAP1 POP SWAP2 SWAP1 POP JUMP JUMPDEST PUSH0 PUSH1 0x20 DUP3 ADD SWAP1 POP DUP2 DUP2 SUB PUSH0 DUP4 ADD MSTORE PUSH2 0x1872 DUP2 PUSH2 0x1839 JUMP JUMPDEST SWAP1 POP SWAP2 SWAP1 POP JUMP INVALID LOG2 PUSH5 0x6970667358 0x22 SLT KECCAK256 0xD5 0x21 AND 0xC8 CODECOPY STATICCALL EQ 0xB0 PUSH0 CALLVALUE 0xD0 DUP16 0x27 LOG1 PUSH23 0xF016627203669086311AAC702CFA804B5B64736F6C6343 STOP ADDMOD 0x1E STOP CALLER "
				},
				"gasEstimates": {
					"creation": {
						"codeDepositCost": "1263800",
						"executionCost": "infinite",
						"totalCost": "infinite"
					},
					"external": {
						"addLiquidity(uint256,uint256)": "infinite",
						"getPrice(address)": "infinite",
						"owner()": "2514",
						"removeLiquidity(uint256,uint256)": "infinite",
						"renounceOwnership()": "30476",
						"reserveForTokenA()": "2470",
						"reserveForTokenB()": "2491",
						"swapAforB(uint256)": "infinite",
						"swapBforA(uint256)": "infinite",
						"tokenA()": "infinite",
						"tokenB()": "infinite",
						"transferOwnership(address)": "30838"
					},
					"internal": {
						"getAmountOut(uint256,uint256,uint256)": "infinite"
					}
				},
				"methodIdentifiers": {
					"addLiquidity(uint256,uint256)": "9cd441da",
					"getPrice(address)": "41976e09",
					"owner()": "8da5cb5b",
					"removeLiquidity(uint256,uint256)": "9d7de6b3",
					"renounceOwnership()": "715018a6",
					"reserveForTokenA()": "45b42138",
					"reserveForTokenB()": "c4ccea90",
					"swapAforB(uint256)": "e4f1f70a",
					"swapBforA(uint256)": "8014a7aa",
					"tokenA()": "0fc63d10",
					"tokenB()": "5f64b55b",
					"transferOwnership(address)": "f2fde38b"
				}
			},
			"storageLayout": {
				"storage": [
					{
						"astId": 391,
						"contract": "contracts/SimpleDEX.sol:SimpleDEX",
						"label": "_owner",
						"offset": 0,
						"slot": "0",
						"type": "t_address"
					},
					{
						"astId": 9,
						"contract": "contracts/SimpleDEX.sol:SimpleDEX",
						"label": "tokenA",
						"offset": 0,
						"slot": "1",
						"type": "t_contract(IERC20)1161"
					},
					{
						"astId": 12,
						"contract": "contracts/SimpleDEX.sol:SimpleDEX",
						"label": "tokenB",
						"offset": 0,
						"slot": "2",
						"type": "t_contract(IERC20)1161"
					},
					{
						"astId": 14,
						"contract": "contracts/SimpleDEX.sol:SimpleDEX",
						"label": "reserveForTokenA",
						"offset": 0,
						"slot": "3",
						"type": "t_uint256"
					},
					{
						"astId": 16,
						"contract": "contracts/SimpleDEX.sol:SimpleDEX",
						"label": "reserveForTokenB",
						"offset": 0,
						"slot": "4",
						"type": "t_uint256"
					}
				],
				"types": {
					"t_address": {
						"encoding": "inplace",
						"label": "address",
						"numberOfBytes": "20"
					},
					"t_contract(IERC20)1161": {
						"encoding": "inplace",
						"label": "contract IERC20",
						"numberOfBytes": "20"
					},
					"t_uint256": {
						"encoding": "inplace",
						"label": "uint256",
						"numberOfBytes": "32"
					}
				}
			},
			"userdoc": {
				"events": {
					"LiquidityAdded(uint256,uint256)": {
						"notice": "Emitted when liquidity is added to the pool"
					},
					"LiquidityRemoved(uint256,uint256)": {
						"notice": "Emitted when liquidity is removed from the pool"
					},
					"Swap(address,string,uint256,uint256)": {
						"notice": "Emitted when a token swap is performed"
					}
				},
				"kind": "user",
				"methods": {
					"addLiquidity(uint256,uint256)": {
						"notice": "Allows the owner to add liquidity to the pool"
					},
					"constructor": {
						"notice": "Initializes the exchange with two ERC20 tokens"
					},
					"getPrice(address)": {
						"notice": "Returns the price of a token in terms of the other token"
					},
					"removeLiquidity(uint256,uint256)": {
						"notice": "Allows the owner to remove liquidity from the pool"
					},
					"swapAforB(uint256)": {
						"notice": "Swaps a given amount of TokenA for TokenB"
					},
					"swapBforA(uint256)": {
						"notice": "Swaps a given amount of TokenB for TokenA"
					}
				},
				"notice": "This contract allows the owner to add or remove liquidity and users to swap TokenA for TokenB and vice-versa.  Uses OpenZeppelin's ERC20 and Ownable contracts for token interaction and access control.",
				"version": 1
			}
		}
	}
}